:020000040002F8
:1060000048410220C1630200C9630200CB63020061
:10601000CD630200CF630200D163020000000000E4
:10602000000000000000000000000000D363020038
:10603000D563020000000000D7630200D9630200AC
:106040006D6B0200DB630200816E0200496C02008E
:10605000DB630200DB630200A9650200DB63020070
:10606000DB630200DB630200DB630200DB63020030
:10607000DB630200DB630200DB630200DB63020020
:10608000DB630200C56B0200DB630200DB6302001E
:106090009D6C0200DB630200A16C0200DB63020066
:1060A000DB630200DB630200DB630200DB630200F0
:1060B000DB630200DB630200000000000000000060
:1060C000DB630200DB630200DB630200DB630200D0
:1060D000DB630200DB630200DB630200DB630200C0
:1060E000DB630200DB630200DB63020000000000F0
:1060F00000000000DB63020000000000DB63020020
:10610000000000000000000000000000000000008F
:10611000000000000000000000000000000000007F
:10612000000000000000000000000000000000006F
:10613000000000000000000000000000000000005F
:10614000000000000000000000000000000000004F
:10615000000000000000000000000000000000003F
:10616000000000000000000000000000000000002F
:10617000000000000000000000000000000000001F
:10618000000000000000000000000000000000000F
:1061900000000000000000000000000000000000FF
:1061A00000000000000000000000000000000000EF
:1061B00000000000000000000000000000000000DF
:1061C00000000000000000000000000000000000CF
:1061D00000000000000000000000000000000000BF
:1061E00000000000000000000000000000000000AF
:1061F000000000000000000000000000000000009F
:10620000DFF80CD000F092F90048004751A50300D8
:106210004841022030B450E8012F93B2C48923448E
:106220008489A34228BF1B1B0489A34202BFBFF37A
:106230002F8F002007E0C3EA020340E80134002C5E
:10624000E9D14FF001000A6030BC704750E8012FDF
:10625000C2EA024240E801210029F7D1704730B478
:1062600050E8022F1FFAA2F3C488A34202BFBFF373
:106270002F8F00200DE0C48923448489A34228BFC6
:106280001B1BC2EA034340E80234002CE8D14FF064
:1062900001000A6030BC704750E8022FC2EA224277
:1062A00040E802210029F7D17047034653E8022F46
:1062B000D988B2EB324F4FF0000017BF92B241EADB
:1062C000014142EA014104E05A68B2EB324F08BF93
:1062D000012043E80212002AE8D1704730B4044696
:1062E00054E8000F0D4644E80053002BF8D1156028
:1062F00030BC704730B4044654E8000F40EA010552
:1063000044E80053002BF7D1156030BC704730B41F
:10631000044654E8000F00EA010544E80053002B4E
:10632000F7D1156030BC704730B4044654E8000F14
:1063300080EA010544E80053002BF7D1156030BC1A
:10634000704730B4044654E8000F00EB010544E800
:106350000053002BF7D1156030BC704730B40446B1
:1063600054E8000FA0EB010544E80053002BF7D1DF
:10637000156030BC704770B404464FF0000054E81C
:10638000006F0D68AE4207BF44E80023012044E8D7
:1063900000630E60002B1CBF0020F0E770BC70474C
:1063A00030B4044654E8000F88422CBF451A054615
:1063B00044E80053002BF5D1156030BC7047000055
:1063C0000648804706480047FEE7FEE7FEE7FEE78F
:1063D000FEE7FEE7FEE7FEE7FEE7FEE7A56C02004C
:1063E000016202002DE9F05F0546002092469B46BF
:1063F00088460646814640241BE0284641464746DB
:10640000224600F082F853465A46C01A914110D3F2
:1064100011461846224600F016F82D1A67EB0108BF
:106420004F4622460120002100F00DF817EB00092D
:106430004E41201EA4F10104DFDC484631462A46C5
:106440004346BDE8F09F202A04DB203A00FA02F11F
:10645000002070479140C2F1200320FA03F3194352
:1064600090407047004870472046040040EA01030E
:106470009B0703D009E008C9121F08C0042AFAD2FA
:1064800003E011F8013B00F8013B521EF9D27047BE
:10649000D2B201E000F8012B491EFBD27047002266
:1064A000F6E710B513460A4604461946FFF7F0FF13
:1064B000204610BD421C10F8011B0029FBD1801A98
:1064C000704710B5002200E0521C835C8C5CA34234
:1064D00001D1002BF8D1D8B2E1B2401A10BD30B5CD
:1064E00004460020034600E05B1C934203D2E05CBC
:1064F000CD5C401BF8D030BD034611F8012B00F8ED
:10650000012B002AF9D118467047202A04DB203AD3
:1065100021FA02F00021704721FA02F3D040C2F1C3
:10652000200291400843194670470000064C074D71
:1065300006E0E06840F0010394E807009847103453
:10654000AC42F6D3FFF760FEF04D0400104E04009D
:1065500070B58C1810F8015B15F0070301D110F825
:10656000013B2A1106D110F8012B03E010F8016B52
:1065700001F8016B5B1EF9D12B0705D40023521ED5
:106580000DD401F8013BFAE710F8013BCB1A921C3D
:1065900003E013F8015B01F8015B521EF9D5A1423B
:1065A000D8D3002070BD00002DE9F04F00268DB03B
:1065B000DFF8A081B14604964FF480750124374678
:1065C0000596284615F06CFB38B1D8F80403204234
:1065D00003D0284615F05AFB26432D1D64007F1C6E
:1065E000ADB2082FEDD34FF4BE74204615F058FB22
:1065F00048B1204615F04AFB46F0004604AA0221A5
:10660000002015F02DFB544C16F0FF0F15D001277C
:10661000002537420DD008EB8501D1F81005D1F8DF
:106620001015C0F3052054F82520C1F3014102B133
:1066300090477F006D1C082DEBD3002E7EDA0020E2
:10664000CDF82890411E0DF1100B07AACDF82C9023
:1066500042F82010401C91460228F9D300252E460E
:10666000A11911F8607F91F9000027F0C008401CC3
:1066700040D007A9404614F09CFD40B34FEA971A5A
:10668000404605F081FF54F820701FB1BAF1030FA6
:1066900003D006E0BAF1030F2CD10AA9404614F04A
:1066A00090FD02A8CDF8088015F04EFA029900EB93
:1066B0008100D0F8000704A9C0F3014002904046D1
:1066C00014F077FD0028029802D0022802D011E0D1
:1066D00003280FD1BAF1030F08D10298022833D052
:1066E0000221404615F0F6F96D1CEDB217B1514686
:1066F0004046B847761C042EB2D3002D21D001AA03
:106700000221002015F0ACFA00205A460DF10401D8
:1067100052F8206051F82030B34217D000200AAE62
:106720004FEA090351F8207042F8207056F82070A3
:1067300043F82070401C0228F4D300E001E0002D53
:106740008CD10DB0BDE8F08F0321CAE7401C0228B0
:10675000DED3F6E7006000407432002070B50646D4
:10676000094800240188458820464D43214600F011
:1067700041F900F0C1F903E0304600F055F9641C1E
:10678000AC42F9D370BD0000F02B00202DE9F0479A
:106790008246A2EB0A00401C0E4687B2981B401CA2
:1067A00085B20024DFF83C90DDF8208015E0301938
:1067B00081B2504600F01EF900F09EF900204946D3
:1067C00007E000BF04FB0503401C38F813200A80D3
:1067D00080B2B842F6D3641CA4B2AC42E7D3BDE8A1
:1067E000F08700000000086010B50AF00FFBC82019
:1067F00014F03AFE2B2015F08FF9322014F034FEFD
:106800002B2015F010FA322014F02EFE784880214B
:106810000180A02141802C2101712A2141712B216D
:106820008171112000F046F9782014F01DFEB1208E
:1068300000F040F9052000F01BF93C2000F018F9A9
:106840003C2000F015F9B22000F034F9052000F0EA
:106850000FF93C2000F00CF93C2000F009F9B320BE
:1068600000F028F9052000F003F93C2000F000F9C1
:106870003C2000F0FDF8052000F0FAF83C2000F084
:10688000F7F83C2000F0F4F8B42000F013F90320EE
:1068900000F0EEF8C02000F00DF9282000F0E8F834
:1068A000082000F0E5F8042000F0E2F8C12000F034
:1068B00001F9C02000F0DCF8C22000F0FBF80D2048
:1068C00000F0D6F8002000F0D3F8C32000F0F2F872
:1068D0008D2000F0CDF82A2000F0CAF8C42000F086
:1068E000E9F88D2000F0C4F8EE2000F0C1F8C520D2
:1068F00000F0E0F81A2000F0BBF8362000F0DAF8DB
:10690000C02000F0B5F8E02000F0D4F8042000F03A
:10691000AFF8222000F0ACF8072000F0A9F80A2018
:1069200000F0A6F82E2000F0A3F8302000F0A0F828
:10693000252000F09DF82A2000F09AF8282000F089
:1069400097F8262000F094F82E2000F091F83A20D5
:1069500000F08EF8002000F08BF8012000F088F89D
:10696000032000F085F8132000F082F8E12000F009
:10697000A1F8042000F07CF8162000F079F8062039
:1069800000F076F80D2000F073F82D2000F070F87C
:10699000262000F06DF8232000F06AF8272000F090
:1069A00067F8272000F064F8252000F061F82D201A
:1069B00000F05EF83B2000F05BF8002000F058F893
:1069C000012000F055F8042000F052F8132000F0E8
:1069D0004FF83A2000F06EF8052000F049F8292021
:1069E00000F068F8BDE810400020FFF7B7BE0000D7
:1069F000F02B002070B50B4E05460C46707900F068
:106A000059F8280A00F034F8E8B200F031F8B0790B
:106A100000F050F8200A00F02BF8E0B2BDE870401A
:106A200000F026B8F02B002038B5044602252C20B3
:106A300015F0F9F80A48210A01704470094C002049
:106A40002070094B2A4606490848009514F088FD35
:106A500008B102F08BFF20780028FCD038BD000080
:106A6000243D0020EC2B0020243E0020080F0400D1
:106A700038B5044601252C2015F0D5F809480470D6
:106A8000094C00202070094B2A4606490848009509
:106A900014F066FD08B102F069FF20780028FCD0F0
:106AA00038BD0000243D0020EC2B0020243E0020B7
:106AB000080F040038B5054601242C2015F02CF8E9
:106AC00009480570094D00202870094B22460649E7
:106AD0000848009414F044FD08B102F047FF2878FC
:106AE0000028FCD038BD0000243D0020EC2B002005
:106AF000243E0020080F040001480079FFF7DABFA8
:106B0000F02B002000F01F0201219140400980007D
:106B100000F1E020C0F88012704700F01F02012150
:106B200091404009800000F1E020C0F8001170475A
:106B300000F01F02012191404009800000F1E02097
:106B4000C0F8001270474907090E002806DA00F065
:106B50000F0000F1E02080F8141D704700F1E020E4
:106B600080F80014704713F003BA000070B54FF4BA
:106B70008076304614F068FC114CB50560B13046A3
:106B800014F069FC0120C5F80803607920B90120E0
:106B900060712168002088474FF48276304614F0F7
:106BA00053FC00280AD0304614F055FC0220C5F8EA
:106BB00008032168BDE870400120084770BD00004F
:106BC000002B002007480021C0F84011C0F84411F4
:106BD000C0F84811C0F84C11C0F80011C0F80411F9
:106BE00018F092BF0010014000F050B970B50E4689
:106BF000144900EB400001EBC0051446E86A183563
:106C000020B101280FD0022805D113E0284600F05A
:106C100071F9A04201D2002411E0224631462846F3
:106C200000F0A0F90BE0284600F064F9A042F4D28D
:106C30000446F2E73146284600F067F9044620464C
:106C400070BD0000583A0020F8B51248124E0446B4
:106C50004FF48C7115F0E5FD00281AD00025C4F81A
:106C60001851D4F818010090F07F3446FF2806D060
:106C7000A17F11B114F046FF01E014F0CAFF65775F
:106C80002572D4E9002101B004F10800BDE8F0400C
:106C90001047F8BD00300040003D002018F082BED3
:106CA00015F054BD30B54FF0805000228300D0F86D
:106CB0003011C3F80C21C3F81021624B1A60624BEB
:106CC0001B68624C2360604B1B1D1B68241D2360E6
:106CD0005D4B08331B68241D23605B4B0C331B6822
:106CE000241D2360584B10331B68241D2360564B12
:106CF00014331B68241D2360534B18331B68534CFB
:106D000020342360504B1C331B68241D23604E4BE2
:106D100020331B68241D23604B4B24331B68241D28
:106D20002360494B28331B68241D2360464B2C33BA
:106D30001B68241D2360444B30331B68434C403494
:106D40002360414B34331B68241D23603E4B383392
:106D50001B68241D23603C4B3C331B68241D2360AF
:106D6000394B40331B68241D23600124082902D1BC
:106D7000D0F8343113B1082904D006E0354B34493A
:106D8000196005E0D0F8343113B1082904D006E0C9
:106D9000314BFB21196005E0D0F8343113B10829DB
:106DA00008D00EE090F858322C48016863F30301D4
:106DB000016002E0D0F834311BB929494FF400706A
:106DC000086028480168C90702D06FF0010101601E
:106DD0002548016841F470010160BFF34F8FBFF394
:106DE0006F8F4FF01021D1F80002002803DBD1F89B
:106DF0000402002822DA1D4B1C601D480468002C88
:106E0000FCD01224C1F800420568002DFCD0C1F866
:106E1000044201680029FCD01A6001680029FCD0F6
:106E2000BFF34F8F10487C380168124A01F4E061CB
:106E300011430160BFF34F8F00BFFDE70F490E48BC
:106E4000086030BD380500400404001020C5004033
:106E5000488103008C56004018F50040E40E0040C5
:106E6000409602400004004088ED00E004E5014047
:106E700000E401400400FA050090D003F82C002043
:106E80000148006800470000082B002010B5124C94
:106E900002202061606111A0A06104F17800E0612E
:106EA0004FF4007020620020A06260620BA1A16418
:106EB000E06204F51E71E1641021A065C4E91410BC
:106EC000E06509A1E01DFFF717FB08A12046FFF7C9
:106ED00013FB2020A07110BD583A00205465726D3C
:106EE000696E616C000000005254540053454747DE
:106EF000455200000269C1688A4203D88068401A7E
:106F0000104400E0501A401E70472DE9F047C46855
:106F10001746894606464FF000083069A04201D95D
:106F2000051B02E0B168201A0D1AB0686D1E001B27
:106F3000A84200D80546BD4200D33D4670682A46A7
:106F400020444946FFF792FAB0687F1B2C44A844BE
:106F5000A944A04200D10024F460002FDDD14046B6
:106F6000BDE8F0872DE9F04104468846D4E90207E0
:106F7000C51BE168606816460844B54206D941461B
:106F8000FFF774FAB819E060BDE8F0812A4641467F
:106F9000FFF76CFA761B08EB050132466068FFF7D5
:106FA00065FAE660F0E70000014A024902F060BBC2
:106FB00025040300842B002002E008C8121F08C12A
:106FC000002AFAD170477047002001E001C1121F6A
:106FD000002AFBD1704700000121202803DA8140FC
:106FE0000548014003E0402802DA2038814009B119
:106FF0000120704700207047FC06FFBD10B54021FE
:10700000074801F0EEF8002304221E21054812F083
:1070100015FF054CA06002F063FB0020207010BD3E
:107020006041002095970200682C00202DE9F04176
:1070300000251C4688460646152A3BD2DFE802F0AA
:107040000B1B1D2E3744535C5E676A79878999A6AE
:10705000ABB0B5BACD0030460BF0F7F80546404668
:107060000BF0F3F8014605EBD570401001EBD17140
:10707000A0EB6100A1E025800EE030460BF0E5F8C2
:10708000074640460BF0E1F807EBD771491000EBDB
:10709000D070A1EB60008BE065800BE030460BF018
:1070A000D4F8074640460BF0D0F8381A80E0258027
:1070B00097E060802088318808442080608871884B
:1070C00008446080BDE8F08130460BF0BEF805460C
:1070D00040460BF0BAF805EBD571491000EBD070C3
:1070E000A1EB60007CE030460BF0AFF8054640466F
:1070F0000BF0ABF8281A73E025805FE030460BF008
:10710000A4F8054640460BF0A0F8281A55E0258063
:10711000084618E030460BF098F8054640460BF05C
:1071200094F805EBD571491000EBD070A1EB60002D
:1071300007E030460BF089F8054640460BF085F82D
:10714000281A208040460BF054F84042B1E72580D1
:1071500018E030460BF079F8054640460BF075F81C
:10716000014605EBD570401001EBD171A0EB610039
:1071700007E030460BF069F8054640460BF065F82D
:10718000281A208030460BF034F892E708460BF0BE
:107190005CF840420CE008460BF057F840420CE027
:1071A00008460BF052F840421AE030460BF04DF81A
:1071B000208071E730460BF048F8208030460BF015
:1071C00018F8054640460BF014F805EBD571491048
:1071D00000EBD070A1EB60006BE730460BF035F8A8
:1071E000208030460BF005F8054640460BF001F8CC
:1071F000281A5EE770B5B1F90030B2F90040A34239
:1072000000DC23460380B1F90250B2F90240A542E6
:1072100000DD2C464480B1F90460B2F90450AE425E
:1072200000DA35468580B1F90610B2F906209142A0
:1072300000DB1146C1800120AB4201DC8C4200DD45
:10724000002070BDF8B50D460446B0F90000B1F954
:1072500000101646884247DBB4F90210B5F9022047
:10726000914241DBB4F90410B5F9042091423BDCB2
:10727000B4F90610B5F90620914235DC96B3ADF8A5
:1072800000006088ADF8020032466946284600F0EA
:1072900049F8002827D0A088ADF800006088ADF834
:1072A000020032466946284600F03CF800281AD011
:1072B0002088ADF80000E088ADF80200324669464B
:1072C000284600F02FF800280DD0A088ADF8000067
:1072D000E088ADF8020032466946284600F022F800
:1072E000002800D00120F8BD0020F8BDB0F9002032
:1072F000B1F904309A4213DCB0F90420B1F900303E
:107300009A420DDBB0F90220B1F906309A4207DC4F
:10731000B0F90600B1F90210884201DB0120704784
:10732000002070472DE9FC4114460E46B1F90020BB
:10733000B0F9001005468A423ADBB5F904008242F2
:1073400036DCB6F90270B5F90220974230DBB5F9A8
:1073500006309F422CDC002C75DD401A9A1A401C26
:10736000521C00B212B200EBD07002EBD27240108D
:107370005210904200DB1046844200DD0446ADF816
:107380000010288800222044ADF804006888ADF879
:107390000200688831462044ADF806006846FFF7D1
:1073A000C1FF40B1BDF804002044ADF804003FE047
:1073B0000020BDE8FC81E8880022001BADF8020037
:1073C000E888ADF8060031466846FFF7ABFF28B104
:1073D000BDF804002044ADF8040011E0A8880022A4
:1073E000001BADF80000A888ADF8040031466846DF
:1073F000FFF798FF50B1BDF80000001BADF800008A
:10740000BDF80200001BADF8020016E06888ADF878
:107410000200688800222044ADF806003146684624
:10742000FFF780FF70B1BDF80000001BADF8000051
:10743000BDF806002044ADF806003146684611F05C
:1074400063FEB6E7FFE70120B3E710B5B1F90040EE
:10745000B2F900309C4200DA23460380B1F90240C1
:10746000B2F902309C4200DA23464380B1F904406D
:10747000B2F904309C4200DD23468380B1F9061046
:10748000B2F90620914200DC1146C18010BD2DE901
:10749000FF4F87B01D46DDE91476DDF858908B4626
:1074A000022E50D3002F4ED001F0CEFB80460CF0C0
:1074B000B3F800F11004D0F808A0D8F82410404622
:1074C00001B188475A4604A80799FFF793FE0028A0
:1074D00039D0BDF810002188401A01B2ADF8101063
:1074E000BDF812006288801AADF81200BDF81400D1
:1074F0002288801A00B2ADF81400BDF81620638807
:10750000D21AADF8162095B198F80820D2070ED1FE
:10751000401A401C01B2002007E02A5C802A01D9F1
:10752000FF2200E000222A54401C8842F5DBD8F8F4
:10753000140058B1CDE90065029704AA51462046CF
:10754000099B08F08DFE0BB0BDE8F08FB9F1000F7C
:107550000AD001A8009680E8A00204AA514620465D
:10756000099B08F0D3FBEEE7CDE90065029704AA7A
:1075700051462046099B08F063FCE4E72DE9FF4FE4
:1075800087B01D46DDE91476DDF858A09146022E3D
:1075900052D3002F50D0014605A8089AFFF72AFEC3
:1075A000002849D001F050FB80460CF035F800F17E
:1075B0001004D0F808B0D8F82410404601B188472C
:1075C000BDF814002188401A01B2ADF81410BDF8BE
:1075D00016006288801AADF81600BDF818002288DF
:1075E000801A00B2ADF81800BDF81A206388D21ACC
:1075F000ADF81A2095B198F80820D2070ED1401A9C
:10760000401C01B2002007E02A5C802A01D9FF2239
:1076100000E000222A54401C8842F5DBD8F8140010
:1076200068B1CDF800900397CDE9016505AA5946E8
:107630002046089B13F08AFB0BB0BDE8F08FBAF12F
:10764000000F0BD002A805AA80E8A004CDE900969F
:1076500059462046089B13F001F9EDE7CDF800905C
:107660000397CDE9016505AA59462046089B13F00A
:10767000A5F9E1E72DE9FC5F054612F0D5FD554C73
:107680000190E86860600021284612F005FD6068FE
:10769000416CA9B111F050FF11F0C6FE60684E4A6E
:1076A000D0F8801111427DD0A3460CF04CF8002890
:1076B00067D0DBF804005D464169002961D108E02C
:1076C0004549D0F88021C9430A40C0F88021BDE86F
:1076D000FC9F0BF0A1FF044612F028F8A0690028D7
:1076E000FCD16868B0F90000400000F099FE8246C5
:1076F000A16820688946814200D160688046686838
:107700000BF09EFF06460024AB462DE00A1992F8C6
:1077100062213ABB01EBC40131F9622FB1F9025089
:1077200016FB052389885F00891A491C09B24900A4
:1077300000910FE008EB07015046009A00F034FF7B
:1077400009EB07005146009A00F02EFF6D1C07EB75
:1077500046072DB2DBF8040000EBC400B0F9680066
:10776000A842E7DA641CA4B2DBF80410D1F8802147
:10777000C2F30942A242C9D8BAF1000001D000F018
:10778000D5FEDBF804004FF480715C46623001F0F6
:1077900001F86068202100F5B17000F0FBFF60681F
:1077A0000D4A00E00FE0D0F88011D2431140C0F83C
:1077B0008011019812F032FD63689D691DB1014688
:1077C00018462268A84700F009FEBDE8FC5F00F0FB
:1077D00005B800000C2C00200000FF0310B5044C7D
:1077E0002068002803D00FF085FC0020206010BD29
:1077F0008C2C00204421014800F0F3BC48410020BB
:107800001821014800F0EDBC6C4100202DE9FF5F1C
:107810000446DDE90E0613B9B0F5807F7ED0B6F9D7
:1078200000504FF0FF376D42454307EB25252DB241
:107830002580B6F902C0CCF1000C0CFB00FC07EB74
:107840002C273FB26780B6F900C0A1EB0C01414381
:107850004FF0020C0CEB212109B2A180B6F9028095
:10786000A2EB080242430CEB222000B2E080002B86
:107870007ED04FF00A0A93FBFAF5684200EB8000D5
:1078800003EB400705F1010928B201F077FD0090F4
:107890000FFA89F001F072FD83465A3528B201F0E3
:1078A0006DFD804609F15A0000B201F067FD014606
:1078B000009AC7F10A0000FB02F300FB08F00BFB83
:1078C000073301FB070193FBFAF291FBFAF04FEA51
:1078D000601AB4F90010B4F902000AFB01FCCDF8FB
:1078E0000CC05511378805FB10C207EBA2220FFA16
:1078F00082F905FB01F2BB46029277880AFB002160
:1079000007EBA1210BB2B4F90410BE460AFB01FC3F
:1079100005FB10C20BEBA22216B200E02FE005FB24
:1079200001F7CDE9007CB4F90680DDF80CC00AFB54
:10793000007005FB18C1DDF804C0009F05FB18C5E9
:10794000029A0AFB087C0AFB08220BEBA1210EEB32
:10795000AC270EEBA02009B20EEBA2220BEBA52563
:107960000FFA87FC00B212B22DB24F46494500E033
:107970000EE000DA0F46B54216DAA84615E0002000
:107980002080491E6080A180521EE280BDE8FF9FDA
:1079900032882A44228072883A44628032881144B4
:1079A000A180718808444FE0B046474504DA4F464D
:1079B000494506DA0F4604E0B54201DA2F4600E0F9
:1079C000374627804F46494500DD0F46B54201DD69
:1079D000A84600E0B046474503DD4D46494505DC75
:1079E00001E0B54201DD294600E03146A1809A421E
:1079F00001DA154600E01D46844501DA614600E0E3
:107A000001468D4205DA9A4201DA114606E019462E
:107A100004E0844501DA614600E0014661809A4253
:107A200001DD114600E01946844501DD654600E0B0
:107A30000546A94205DD9A4201DD104604E01846DC
:107A400002E0844500DD6046E0809FE72DE9FE4FBF
:107A50000446D0F800B0B0F90800E589081AB4F976
:107A60000A10511AD4E90932B5F5807F3CD0A589B6
:107A7000002DA56B05FB00F005FB01F54FEA60103A
:107A80004FEA65113ED0256BE66A05FB00F706FB61
:107A90001177464305FB016003EBA72902EBA02009
:107AA00080460612B4F904004FEA2927B84248DD9F
:107AB000002F46DBB4F90610B14242DD002E40DB58
:107AC00094F834104A073FD58A0704F114031DD4F3
:107AD00000FB067045004FF0020A0BEB0501524611
:107AE000184600F00DFE22E0256BE66A05FB00F764
:107AF00006FB1177464305FB016003EBA70902EB88
:107B0000A000CDE703EB00095018C9E700FB0670A1
:107B100000EB40054FF0030A0BEB0501022218466B
:107B200000F0EEFDE81C584410F8010CA07594F824
:107B30003400C0071ED01948A18A008880B2814253
:107B400018D10020BDE8FE8F32B204F1180023697D
:107B5000CDE90102002539B2AA468B460DF0D0FBD3
:107B60000090BDF80000A082DDE9010259460DF049
:107B70005FFBDBE7E07C78B1A4F83C90A4F83E80A2
:107B8000A4F84070A4F84260656484F848A02046D8
:107B9000BDE8FE4F00F004B80120D3E72C0F04002D
:107BA0002DE9F04F044690F83C10D0F8009090F882
:107BB0003E0087B04FF0FF36702907DAB4F9402055
:107BC0003546012A00D5002580310DE0902916DDCB
:107BD000B4F94020B4F904300125521C9A4200DB6C
:107BE0000025A1F27F114942C9B28846702809DAFE
:107BF000B4F94210012900D50026803010E000259C
:107C0000FF21F2E790280DDDB4F94210B4F9062007
:107C10000126491C914200DB0026A0F27F10404261
:107C2000C7B201E00026FF2760690090A07D0590A3
:107C3000002083468246049094F83400400744D5DF
:107C400094F84810606C11FB05014944022201A818
:107C500000F062FDA08894F8481010FB01F0616C00
:107C6000022206FB0011494403A800F055FDA1883B
:107C700094F8480011FB00F1626C06FB012210FB36
:107C800005901118022202A800F046FD94F8340075
:107C9000800761D594F84800626C10FB052300EB67
:107CA00009010B4413F8013C0493A38813FB00F370
:107CB00006FB0322114411F801BC10FB050011184A
:107CC00001EB090010F8010C45E0B4F84000B4F9EC
:107CD0004220284401B204F11800814623690DF0C6
:107CE0000FFB0190B4F84200B4F94010304402B2E6
:107CF00054F8103F48460DF003FB0390608E236854
:107D0000304402B2208E284401B248460DF0F8FA01
:107D1000029094F82400103C80071DD5B4F942204D
:107D200034F8400F284401B248460DF081FA04901F
:107D30006088B4F90010304402B248460DF078FA79
:107D400083466088304402B234F84009284401B2C6
:107D500048460DF06DFA824694F834004246454696
:107D6000800735D5059810FB08F30499C8F1FF008A
:107D700011FB0031C1F307211BFB08F61AFB006061
:107D8000C0F3072011FB07F3C7F1FF0610FB063312
:107D90001B0AA375022907D8022803D8002007B0C0
:107DA000BDE8F08F002702E0022800D8FF270598E1
:107DB000022800D800220498022800D8FF22BBF134
:107DC000020F00D80025BAF1020F03D8FF2501E009
:107DD000FF20A075EAB1FF2A04D0DDE900010AF016
:107DE00073FC0090BDB1FF2D17D0DDE902102A46CB
:107DF0000AF06AFC049097B1FF2F05D001463A467D
:107E000000980AF061FC0090BDF80000A0820120FB
:107E1000C5E70198E5E70298ECE70398EAE7BDF8C3
:107E20001000F3E72DE9F0470446B0F908000A27EF
:107E300000026062B4F90A000002A062B4F90C10FA
:107E400091FBF7F5684200EB800001EB40066842C9
:107E500005F1010800B201F091FA8246E84300B250
:107E600001F08CFA8146C5F15A0000B201F086FAA1
:107E70000546C8F15A0000B201F080FAC6F10A01C5
:107E800001FB0AF3024609FB0630694390FBF7F059
:107E900002FB061191FBF7F14011E06248112063EB
:107EA000A07C0DF041FB94F8341060F3000184F8DD
:107EB0003410A07C0DF028FB94F8341060F34101DD
:107EC00084F83410A07C042824D0052822D0062869
:107ED00020D021F0040100BF84F834102168216211
:107EE000A16921F0E00160F30401A08860F394210E
:107EF000E08860F35F51A161E0894FF4001101EB6C
:107F00005001B1FBF0F0A063FF20A075208AA08291
:107F1000BDE8F08741F00401DEE700002DE9F047FD
:107F20003B4E88468146318821B13A483A4C056833
:107F300000200EE00020BDE8F08700BF00EBC0028B
:107F400005EB82031A6AA24201DD521E1A62401C2E
:107F500080B28842F2D300241FFA88F721E000BFE4
:107F600004EBC40005EB800001898F4217D1416802
:107F700048460DF061FA90B104EBC40005EB8000B7
:107F80004269016A11444FF47A720162914200DD44
:107F900002620028CFD12C460120328811E0641CF7
:107FA000A4B230888442DBD3F5E700BF00EBC00108
:107FB00005EB8101266A0B6AB34200DA0C46401CCD
:107FC00080B29042F2D3606810B120460DF0D6FD29
:107FD00012F02AF905464246494620460DF022FE97
:107FE00020B100202062606940B10EE024212046CB
:107FF00000F0D0FB4FF0004020629BE7284612F0D3
:108000000DF9606108B901206061204693E7000026
:108010001C2C0020742C00200100008010B51021C1
:108020000C4800F0DEF80DF0BBFD04460BF0F6F94D
:1080300050B1002C07D0084820600848606008480C
:10804000A0600848E06010BD2246002306A00BF0A7
:10805000E9F9FEE77841002075550300E558030073
:10806000C55A0300435503004F7574206F66206D99
:10807000656D6F7279000000002108460DF05EBF4B
:108080007FB50D46040003D10BF0C8FA040025D0DB
:108090002E4EF5B10020ADF80000ADF802002046EC
:1080A0000BF0CEFA401EADF8040020460BF02CFB7E
:1080B000401EADF806006A46294602A8FFF79AF866
:1080C00000280BD0226912B102A920469047002552
:1080D00011E0D4F880013040C4F880017FBD00BFBA
:1080E00004EBC501002202A86231FFF7ABF80028BB
:1080F000F4D16D1CADB2D4F88001C0F30940A842A0
:10810000EED8D4F88001C0F30941202903D204EB52
:10811000C10002A907E03040C4F88001C0F3094063
:1081200004EBC000694662300AF036F8D4F88001EA
:108130004FF4800101EBB0604FEAB010C4F8800149
:108140000321606B11F0A8FF7FBD0000FFFF00FC62
:1081500070B50C461E461546114600F0F2F8AEB159
:1081600000222946204612F06FFF29462046626809
:1081700012F064FF616819B12A46204612F064FFCC
:108180006560A068002800D1A56070BD2946204622
:10819000A26812F059FF00222946204612F04EFF35
:1081A000A16819B12A46204612F048FFA560606810
:1081B0000028EAD1656070BD002100B14168084621
:1081C0007047002802D00068091D405870470028F9
:1081D00001D0006840587047002100B1816808460E
:1081E000704700224260C91C21F0030182600160D7
:1081F000704770B50446006808300EF027FF050090
:1082000013D001460022204612F01EFF29462046C8
:10821000626812F013FF616819B12A46204612F015
:1082200013FF6560A06800B9A560284670BD2DE900
:10823000F0410D4607002BD055B3FFF7BDFFA84214
:1082400004D13846FFF7D5FF04461EE038680830F1
:108250000EF0FCFE04001BD029463846FFF7B7FF9E
:10826000064601462246384612F0E8FE32462146CE
:10827000384612F0E9FE22462946384612F0E4FE5E
:108280002A462146384612F0D9FE2046BDE8F08144
:108290000020FBE770B50446006808300EF0D6FEFB
:1082A000050013D001460022204612F0C7FE2946E1
:1082B0002046A26812F0C8FEA16819B12A462046DD
:1082C00012F0BCFEA560606800B96560284670BD0C
:1082D00028B1416809B9806808B1002070470120C1
:1082E00070472DE9F04116460D460746B14226D0AB
:1082F0001EB11146FFF76BFF01E0FFF76DFF04466B
:10830000A5421CD02946384600F01BF82A462146D3
:10831000384612F093FE22462946384612F094FE63
:108320002A463146384612F08FFE324629463846F4
:1083300012F084FE06B9BD60002C00D17D60BDE85E
:10834000F08170B50A460446FFF736FF00239042DD
:108350000AD111462046FFF734FF6060011E01D0AC
:10836000002224E0A36070BD2046FFF735FF904255
:10837000114620460CD1FFF72AFFA060011E05D050
:108380002046BDE87040002212F058BE636070BD08
:10839000FFF71DFF064611462046FFF712FF054670
:1083A00002463146204612F049FE32462946204612
:1083B000BDE8704012F048BE10B59042029C01DB4F
:1083C000204610BD884201DC184610BD521AE41A3E
:1083D000401A604390FBF2F0184410BD70B50020C5
:1083E0000D49054601EBC002401CC0B29571022840
:1083F000F8D30A4E002400BF56F8340038B10EF00E
:1084000079FE06EBC40046F8345085718580641C03
:10841000E4B2102CF0D370BDA02C002090410020BD
:108420002DE9F041050019D00126102D0BD8304957
:10843000002000BF01EBC0029279D20711D0401C8E
:10844000C0B20228F6D32B4C4FF0FF30002200BF01
:1084500004EBC2018B79DB0709D01AE00020BDE8EC
:10846000F08101EBC002967151F83000F7E789887E
:10847000A9420ED305D104EBC200867154F8320034
:10848000EDE7002804DB04EBC0039B88994200D28F
:1084900050B2521CD2B2102ADAD3002805DB04EB0A
:1084A000C0018E7154F83000D9E7002704EBC700F3
:1084B0008079C00709D07F1CFFB2102FF6D30022AD
:1084C00013460DA00AF0AEFFFEE754F83700294628
:1084D0000EF03EFE30B104EBC7018E718D8044F882
:1084E0003700BCE7002213460F480AF09BFFFEE767
:1084F000A02C0020904100204E6F20667265652000
:108500006275666665722E20496E63726561736579
:10851000204C565F4D454D5F4255465F4D41585F7B
:108520004E554D2E00000000EC4C040010B500210B
:108530000C4B0A4653F83140844209D0491CC9B259
:108540000229F7D3084B002153F83140844203D16C
:1085500003EBC100827110BD491CC9B21029F3D3CD
:1085600010BD0000A02C002090410020002803D066
:108570000449884201D10020704750F8040C40089B
:1085800070470000982C00200649054847F6FC7209
:108590004860016821F0010162F35F0101607047EA
:1085A00090420020902C002030B500F0030401F030
:1085B00003050346A54243D14EE00C781C704C786D
:1085C0005C708C789C70CC78DC700C791C714C7968
:1085D0005C718C799C71CC79DC710C7A1C724C7A50
:1085E0005C728C7A9C72CC7ADC720C7B1C734C7B38
:1085F0005C738C7B9C73CC7BDC730C7C1C744C7C20
:108600005C748C7C9C74CC7CDC740C7D1C754C7D07
:108610005C758C7D9C75CC7DDC750C7E1C764C7EEF
:108620005C768C7E9C76CC7EDC760C7F1C774C7FD7
:108630005C778C7F9C77CC7FDC772031203A2033AD
:10864000202ABAD805E000BF11F8014B03F8014B0E
:10865000521E002AF8D130BD4CB3C4F1040405E029
:1086600011F8015B521E03F8015B641EFCB1002A85
:10867000F6D11CE010C9203A10C310C910C351F83C
:10868000084B43F8084B51F8044C43F8044C51F89C
:10869000104B43F8104B51F80C4C43F80C4C51F86C
:1086A000084C43F8084C51F8044C43F8044C202A79
:1086B000E0D802E010C9121F10C3042AFAD804E05F
:1086C00011F8014B03F8014B521E002AF8D130BDBE
:1086D00010B5034605E000BF11F8014B03F8014B4C
:1086E000521E002AF8D110BD10B5034605E000BFA8
:1086F00011F8014B03F8014B521E002AF8D110BDAE
:1087000010B5034605E000BF11F8014B03F8014B1B
:10871000521E002AF8D110BD10B5034605E000BF77
:1087200011F8014B03F8014B521E002AF8D110BD7D
:1087300010F0030309D0C3F1040303E0521E00F854
:10874000011B5B1E0BB1002AF8D101EB012303EBE7
:10875000014303EB01630EE008C0203A08C040F873
:10876000083B40F8043C40F8103B40F80C3C40F813
:10877000083C40F8043C202AEED801E008C0121F53
:10878000042AFBD803E000BF00F8011B521E002A98
:10879000FAD1704710F003034FF0000219D0C3F173
:1087A000040303E0491E00F8012B5B1E8BB1002976
:1087B000F8D1704704C0203904C040F8082B40F8B5
:1087C000042C40F8102B40F80C2C40F8082C40F8F2
:1087D000042C2029EED801E004C0091F0429FBD88D
:1087E00003E000BF00F8012B491E0029FAD17047B1
:1087F00010F003024FF0FF030AD0C2F1040203E0BD
:10880000491E00F8013B521E12B10029F8D17047F1
:108810004FF0FF320EE004C0203904C040F8082BAE
:1088200040F8042C40F8102B40F80C2C40F8082C91
:1088300040F8042C2029EED801E004C0091F0429C7
:10884000FBD802E000F8013B491E0029FAD170472D
:1088500070B50D4606460024214630460FF0DDFB7C
:1088600038B14168641C65F3CB21E4B24160402C0F
:10887000F2D34024214630460FF0CFFB002807D02A
:108880004168641C65F3CB21E4B24160FF2CF1D355
:1088900070BD00002DE9F04786B014468A461646A2
:1088A000170A05464FF0000823E0514628460FF00E
:1088B000B4FB8146514628460FF04EFB06EB0020E4
:1088C00084B202AA2146484600F0CCFA012807D01B
:1088D000380610D5BAF1000F07D04FF0000A08E0B3
:1088E000BDF8080006B0BDE8F08728460FF0F2FAA0
:1088F0000546002DD9D124F4FE40292804D02A2889
:1089000002D0CDF8008002E0024800680090BDF877
:108910000000E7E7280F04002DE9F84315468946D3
:1089200017464FEA12280646A5E0494630460FF0A2
:1089300074FB04464068010570D481066ED0400582
:1089400005D425F4FE424946304617F053FE25F47F
:10895000FE40302859D024DC112869D010DC0528CD
:1089600050D006DC01285DD0022845D004286CD107
:1089700048E0062846D0072844D0102865D157E0A3
:10898000162858D006DC122852D0132850D01528AB
:108990005BD150E017284ED018284CD0202854D155
:1089A0004CE060284AD010DC402838D006DC312862
:1089B0002ED0322842D0332847D12CE042283DD057
:1089C000502832D0542840D138E048F28102811A30
:1089D000904214D009DC722830D091282ED000F5B6
:1089E000FF40B0F5803F30D109E0012929D00229AC
:1089F00024D01F2929D121E0A088400423E0606809
:108A0000800020E0A08800041DE0606880021AE079
:108A10006068400217E06068000214E015E06068DA
:108A2000C00110E0A088C0040DE0606840010AE0C9
:108A30006068C00307E06068800304E0606840038A
:108A400001E060684000002818DB494630460FF01E
:108A500083FA07EB002085B26A462946204600F0DB
:108A60003DFA012814D05FEA086007D5B9F1000F7C
:108A700012D04FF00009002E7FF457AF25F4FE40CE
:108A8000222819D00CDC032812D007280CD115E0BD
:108A9000BDF90000BDE8F88330460FF01BFA42E74D
:108AA000312803D0C02805D00020F3E70F20F1E7DC
:108AB0000620EFE71020EDE7FF20EBE74FF4807092
:108AC000E8E72DE9F8431446894617464FEA12288D
:108AD00006463BE0494630460FF09FFA054640689F
:108AE00001051DD481061BD0400505D424F4FE42A7
:108AF0004946304617F07EFD24F4FE402C2809D06C
:108B00000C38B0F5004002D0A12809D12DE0A8888A
:108B1000800403E06868C10224D40003002817DB46
:108B2000494630460FF018FA07EB002084B26A4637
:108B30002146284600F00EFA012819D05FEA0860A5
:108B400006D5B9F1000F16D04FF00009002EC1D1A3
:108B500024F4FE402C2812D06D2810D0AD38B0F58A
:108B6000004F0CD0FF20BDE8F8836868C000D5E74F
:108B70009DF80000F7E730460FF0ACF9A8E70020B9
:108B8000F1E700002DE9F8431446894617464FEAFD
:108B9000122806463BE0494630460FF03EFA0546AD
:108BA000406801051DD481061BD0400505D424F47E
:108BB000FE424946304617F01DFD24F4FE406E2863
:108BC00009D07F2804D08E38B0F5004F09D105E0D8
:108BD0006868000103E06868800100E068680028B8
:108BE00017DB494630460FF0B7F907EB002084B297
:108BF0006A462146284600F0E9F9012816D05FEAC6
:108C0000086006D5B9F1000F12D04FF00009002E10
:108C1000C1D124F4FE407E280ED0BE280FD08E385D
:108C2000B0F5004F08D00020BDE8F8830098FBE7BE
:108C300030460FF04FF9ACE711F078FAF4E701484D
:108C4000F2E70000844404000148406870470000D7
:108C50000C2C0020704730B504020020831803FB61
:108C600003F5A54200D818465208F7D102090007BB
:108C70000A80000E488030BD70B51646054607F0E4
:108C800041FF040002D54FF0FF3070BD2968A01CE1
:108C9000014402223046FFF727FD2146284607F00F
:108CA0006EFF00F07F0070BD70B51646054607F0F8
:108CB00029FF040002D54FF0FF3070BD2968A01CC9
:108CC000014402223046FFF70FFD2146284607F0F7
:108CD00056FF00F07F0070BD70B5050003D0286816
:108CE00008B1002405E0002070BD00BF07F0FCFEC5
:108CF00004442146284607F047FFFF28F6D1A41C6C
:108D0000A0B270BD70B51646054607F0FBFE040024
:108D100002D54FF0FF3070BD2968A01C014401222C
:108D20003046FFF7E1FC2146284607F028FF00F017
:108D30007F0070BD70B51646054607F0E3FE0400DF
:108D400002D54FF0FF3070BD2968A01C01440422F9
:108D50003046FFF7C9FC2146284607F010FF00F017
:108D60007F0070BD70B50E4605003AD000F06EF978
:108D70006868810616D08006010E091D28680EF06D
:108D8000E7F904460AF04AFB80B1002C29D0696853
:108D900000200A0600D501204A0600D5401C01F03B
:108DA0003F0111E004200EF051F9EAE722460023CA
:108DB0000CA00AF037FBFEE704EB810252F8042C0A
:108DC00044F82120491EC9B28142F5D844F82060F8
:108DD00068684FF0806101EBB0104FEAB060C5E900
:108DE000004070BD4F7574206F66206D656D6F72A9
:108DF0007900000070B505460079000604D52846C4
:108E0000BDE8704000F019B904200EF01FF90446C7
:108E10000AF004FBA8B1D4B1204610F079FE214637
:108E20002846FFF79FFF686840F0800068604006B2
:108E300005D52868D0E90012026028684160204604
:108E400070BD2246002303A00AF0ECFAFEE70020E2
:108E500070BD00004F7574206F66206D656D6F7278
:108E6000790000002DE9F84317468946060033D003
:108E7000306800282ED000204FEA19284FF0FF3428
:108E8000ADF8000005461DE0E9B2304610F0BFFE27
:108E90006A464946FFF7F0FE404503D1BDF80000A1
:108EA000388016E071680A0604D5002802DB0DB987
:108EB000C905F3D5A04203DD0446BDF800003880A3
:108EC0006D1C2DB2307900F03F00A842DCDC002C94
:108ED00002DB0120BDE8F8830020FBE72DE9F84321
:108EE00017468946060033D0306800282ED000206F
:108EF0004FEA19284FF0FF34ADF8000005461DE099
:108F0000E9B2304610F083FE6A464946FFF7CCFED0
:108F1000404503D1BDF80000388016E071680A06AC
:108F200004D5002802DB0DB9C905F3D5A04203DD45
:108F30000446BDF8000038806D1C2DB2307900F079
:108F40003F00A842DCDC002C02DB0120BDE8F883F6
:108F50000020FBE72DE9F84317468946060033D089
:108F6000306800282ED000204FEA19284FF0FF3437
:108F70008DF8000005461DE0E9B2304610F047FECE
:108F80006A464946FFF7BEFE404503D19DF8000002
:108F9000387016E071680A0604D5002802DB0DB9A6
:108FA000C905F3D5A04203DD04469DF800003870E2
:108FB0006D1C2DB2307900F03F00A842DCDC002CA3
:108FC00002DB0120BDE8F8830020FBE72DE9F84330
:108FD0001746894606002ED03068002829D04FEA6F
:108FE00019284FF0FF3400251BE0E9B2304610F09D
:108FF0000EFE6A464946FFF79DFE404502D10098A5
:10900000386015E071680A0604D5002802DB0DB946
:10901000C905F4D5A04202DD0446009838606D1CF5
:109020002DB2307900F03F00A842DEDC002C02DBDC
:109030000120BDE8F8830020FBE70179090601D48F
:1090400000207047006800687047000070B50E4649
:109050004168044688061CD0002001F03F0116E05C
:10906000226852F82020B2420FD10025012911D0E8
:109070008800001F0DF0EAFF05460AF0CFF990B115
:10908000002D06D0002001461EE0401CC0B28142E7
:10909000E6D870BD20680EF02DF82560606820F0DD
:1090A0007F00606070BD2A46002310A00AF0BAF964
:1090B000FEE7226852F82020B24203D045F8212072
:1090C000491CC9B2401CC0B2227902F03F02824260
:1090D000EFD820680EF00EF860684FF07C4101EB8D
:1090E000B0104FEAB060C4E9005070BD4F757420F5
:1090F0006F66206D656D6F727900000070B50400B9
:1091000025D02079400609D5204610F074FD0500D1
:1091100004D010F0BDFD28460DF0ECFF20790006CC
:1091200009D52046FFF789FF050004D010F0B0FDF7
:1091300028460DF0DFFF2079800602D020680DF070
:10914000D9FF0020206060686FF30800606070BD88
:1091500037B582B00546BDF80C1007F0D3FC04000B
:1091600011D40146284607F00AFDBDF80C1000F0A6
:109170007F00C1F30621884205D1A41C2868022281
:10918000204404A922E0FF20ADF800002846FFF7A4
:10919000A3FD00B90220001D84B22146284615F027
:1091A000C6FB002814D028680222204403A9801F8F
:1091B000FFF79AFA28680222204404A9001FFFF74B
:1091C00093FA2868022220446946801EFFF78CFA31
:1091D00005B030BD37B582B00546BDF80C1007F0BC
:1091E00091FC040011D40146284607F0C8FCBDF8E4
:1091F0000C1000F07F00C1F30621884205D1A41CA9
:1092000028680222204404A922E0FF20ADF80000D3
:109210002846FFF761FD00B90220001D84B22146F7
:10922000284615F084FB002814D028680222204428
:1092300003A9801FFFF758FA28680222204404A9D6
:10924000001FFFF751FA2868022220446946801E59
:10925000FFF74AFA05B030BD37B582B00546BDF814
:109260000C1007F04FFC040011D40146284607F00B
:1092700086FCBDF80C1000F07F00C1F30621884287
:1092800005D1A41C28680122204404A922E0FF2063
:10929000ADF800002846FFF71FFD00B90220C01CF2
:1092A00084B22146284615F042FB002814D02868D5
:1092B0000222204403A9401FFFF716FA2868012262
:1092C000204404A9C01EFFF70FFA28680222204498
:1092D0006946801EFFF708FA05B030BD37B582B089
:1092E0000546BDF80C1007F00DFC040011D4014632
:1092F000284607F044FCBDF80C1000F07F00C1F3D5
:109300000621884205D1A41C28680422204404A90F
:1093100022E0FF20ADF800002846FFF7DDFC00B991
:109320000220801D84B22146284615F000FB00284B
:1093300014D028680222204403A90838FFF7D4F982
:1093400028680422204404A9801FFFF7CDF928686B
:10935000022220446946801EFFF7C6F905B030BDE1
:1093600010B518210348FEF73CFF0349012008709F
:1093700010BD000024410020B02C00204FF4B47137
:1093800090FBF1F201FB1200002802DA00F5B47044
:1093900000B20E495A2802DA31F910007047A0F1E4
:1093A0005A025A2A03D2C0F1B40000B2F4E7A0F185
:1093B000B4025A2A01D210B202E0C0F5B47000B271
:1093C00031F81000404200B270470000A044040091
:1093D0002DE9F04788B01D46109E9246894604004C
:1093E00007D0B9F1000F04D016F0120F10D00020F2
:1093F00004E0002008B0BDE8F087401C215C0A2989
:1094000004D00D2902D00029F7D1F3E7401CF1E781
:10941000B00701D547F618454FF000088DF81480C5
:10942000204FCDF8108021E00498CDF8188028B3A3
:10943000002105AB06AACDE90231CDE90062204446
:109440002B465246494610F0F9FE0699691A0DB2AC
:10945000B0B104990844049021780A290BD00D2951
:1094600009D0205C0A2812D00D2810D00498205C66
:1094700008B1002DD8DC049868B110E00121D8E7CC
:10948000049860B97A6804A920469047F3E70498E5
:10949000401C0490EFE77A6804A92046904704989E
:1094A000A8E70000C02C00202DE9FF4F83B0044640
:1094B0004FF00000DDF848A0DDF840902080934692
:1094C0000F00608047D0BBF1000F44D05FEA8A7084
:1094D00002D547F6184011900025A846BBF8086051
:1094E00023E07819CDE900A05946119B069AFFF7B1
:1094F0006FFF8044B4F9020006EB09010144B1F5A5
:10950000004F28D2304448446080A8EB0501CDF8D4
:1095100000A05A46069B019800F022F8B4F900100A
:10952000814200DB084620804546785D0028D8D17E
:109530005DB1781910F8010C0A2801D00D2804D16A
:10954000618806EB090008446080B4F9020028B184
:10955000A0EB0900608007B0BDE8F08F6680FAE7F5
:109560002DE9FC5F1F46DDF830A091460E46050050
:109570000CD0B9F1000F09D02878002807D00020BE
:10958000044600908DF804002EBB2BE00020BDE8BF
:10959000FC9FDFF8548069462846D8F8042090479D
:1095A00083460098D8F8042028440021904780463C
:1095B0005FEACA7004D0594601A800F017F850B904
:1095C0004246594648460BF0A7FC00B2002802DD8F
:1095D0002044384404B20098B042DAD3002C01DDB4
:1095E000E01B04B22046D2E7C02C00200023027802
:1095F000232902D0012A0DD00FE02AB10021012A2F
:1096000004D0022A04D008E0012101E0017004E046
:10961000017001E0202902D0012318467047022181
:10962000F6E700002DE9F0471E4614460D46824637
:10963000DDF8209015E000BF4FEA540808FB0657FC
:10964000394650464A469047002808DD44F300005A
:10965000C0EB540407EB0605A4F1010401E005DAB0
:109660004446002CE8D12046BDE8F0873846FBE7A9
:109670002DE9F04116460F460446002503E0394621
:10968000B047641C6D1C20780028F8D12846BDE83E
:10969000F08110B501220221002002F0CBFA08B1BE
:1096A000072818D107220221012002F0C3FA08B1CD
:1096B000072810D100210A22084602F0BBFA08B19F
:1096C000072808D10B220121002002F0B3FA08B1CB
:1096D000072800D1002010BD022002F0B3B900001D
:1096E00010B5074C012020700648FEF765FD28B133
:1096F0000421A068BDE8104010F0CEBC0021F8E7BE
:10970000682C00206041002010B5044690F83A0013
:10971000216B90B0820707D4228F3AB1A2F57F4324
:10972000FF3B1CD0521E2287228FC2B909B182078B
:1097300015D5402221466846FEF736FF21461448DB
:10974000FEF7FFFD20460DF0D5FCFFF7C9FF03989B
:10975000002802D001466846884710B010BD626BF1
:109760005242A2620029F8D0820702D4E26A524231
:10977000A2624210521C62F3410084F83A00236A4C
:10978000A269A3612262800700D4E16B6162E4E711
:109790006041002070B52D4D686810F03FFD064611
:1097A000687880F00100687042E00020287094F82A
:1097B0003A006978C0F380028A423DD061F38200AA
:1097C00084F83A00A16A8A1900070DD400290BDC3D
:1097D000002A09DBA16809B12046884794F83A00BD
:1097E00040F0080084F83A00A06A8019A0621DD4F5
:1097F000616A884200DDA1622269214604F11000FD
:109800000AB1904701E008F057FCE169814206D0B7
:10981000E06162681AB1236801B218469047D4E942
:109820000901814202DB2046FFF76EFF287818B15C
:109830000748FEF7C1FC03E021460548FEF7C1FCDE
:109840000400B2D110F0F0FC686070BD682C0020FC
:109850006041002070B50024064D06E068680121D3
:1098600010F8340013F060F8641C28788442F5D3B3
:10987000002070BD102B0020F8B515460C4606469A
:10988000052A01D20720F8BD13F046F918B913F0E4
:1098900009F90028F7D1124900224E600C708D6042
:1098A000C1E90422C1E906220E4D0DE006EBC40019
:1098B0002968009181788DF8011000780A4A69467C
:1098C00013F07EF80028DED1641EE4B2EED2BDE8CB
:1098D000F84004480021054A001D00F07BB8000054
:1098E000102B00206C0C0400E10B0300CDD2020011
:1098F00072B612F05DFC00BF12F09CFA0028FBD19A
:10990000104C0121208801EB00400FA112F0A2FBB6
:1099100010480068C00700D000BE2088022101EB7B
:1099200000400DA112F096FBBFF34F8F0948E438B9
:1099300001680D4A01F4E06111430160BFF34F8FEC
:1099400000BFFDE72C2D0020466174616C2065721C
:10995000726F7200F0ED00E053797374656D2072E0
:1099600065736574000000000400FA050EB500215F
:109970000091CDE901106A4644F20100FFF7B8FFFB
:109980000EBD10B58268C368934203D006F0ABF9F0
:10999000002010BD052010BD29B112B1531E134285
:1099A00003D0092070470E2070470160838000219A
:1099B0008160C1600846704710B58268C3689A1A12
:1099C00083889A4203D806F098F9002010BD04203D
:1099D00010BD0000084B9B7823B12AB120B100686C
:1099E000037C1BB1082070470720704700230374D5
:1099F00041744261184670475033002070B514F02E
:109A00009BF9104800240B21047044700E4D8170A6
:109A100014206C602C706C70FDF774F80721142012
:109A2000FDF791F81420FDF778F808480460072145
:109A30001120FDF788F80548001F0068A860002085
:109A400070BD000050330020302B0020081501406D
:109A50002DE9FC47DFF8789099F8023073B368B3CA
:109A6000052902D20720BDE8FC87436933B3437C54
:109A7000012B25D0002704460025884616468DF880
:109A80000050684600F0CEF801A816F0FBFFC8B100
:109A9000012101700F4944600968C0E90218C0E95A
:109AA00004769DF8040089F801009DF8000000F09C
:109AB000DDF81420FDF73CF82846D4E70820D2E76B
:109AC0000F46D8E704259DF8000000F0CFF8F3E733
:109AD00050330020041501400649897839B130B16E
:109AE000416921B100210174022115F0E9BF08206C
:109AF000704700005033002070B50A4E01460A48F6
:109B0000B578FFF73EFF04464DB10020B070711CE0
:109B10000122C81D11F064FD08B1FFF727FF2046A0
:109B200070BD0000442B00205C340020F0B5244EB2
:109B300089B01F460D00044672603FD0A88829688E
:109B400082B22048FFF728FF002835D1A889A968EC
:109B500082B21C481030FFF71FFF00282CD12022B2
:109B600019496846FCF782FC60690690207C00B1C8
:109B700001208DF814008DF81C70607C00B10E205F
:109B80008DF81500E0680290A068039020680190AD
:109B9000606800900A480D4A6946083011F0ECFCF4
:109BA000002809D1B0702068401C05D0044901226A
:109BB000491CC81D11F014FD09B0F0BD0720FBE7DA
:109BC000442B00205C340020880C040011020400A7
:109BD00010B501461048FFF7EFFE040019D10F48F9
:109BE0000F4A0178515C19B1001D13F019FB02E016
:109BF0000C3013F0FDF960B9084907480839FFF740
:109C0000C0FE30B9054901220839044811F0F8FCBA
:109C10000446204610BD00006C3400204C2B002070
:109C2000EC2A002030B5EFF3108172B60D4A94682B
:109C3000012324B10370002900D162B630BD9360C6
:109C40004FF0E023D3F88051074C25401560C3F84E
:109C50008041D3F8844154605A17C3F8842100220C
:109C60000270E8E77C340020FC06FFBD0B498A68DF
:109C7000002A11D000280FD1EFF3108072B60B68C4
:109C80004FF0E022C2F800314B68C2F804310022E4
:109C90008A60002800D162B6704700007C34002042
:109CA00070B5054608680C46411C04D011F09DFFB4
:109CB000206811F0F1FE6068411C02D0002111F013
:109CC000C8FE2968A069C1F82405607D227D296845
:109CD0001043C1F86C05D4E900122868C0F81425B7
:109CE000C0F80C15207D012814D1A068411C02D0B9
:109CF000002111F0AEFEE068411C04D011F075FFA8
:109D0000E06811F0C9FED4E902122868C0F80825FD
:109D1000C0F8101570BD70B5054608680C46411CAA
:109D200004D011F06CFF206811F0C0FE6068411C87
:109D300002D0002111F096FE2968A069C1F824051F
:109D4000607D217D2A680843C2F86C05D4E90012C1
:109D50002868C0F80C15C0F81425207D012814D1FE
:109D6000A068411C02D0002111F07CFEE068411C7B
:109D700004D011F044FFE06811F098FED4E902121B
:109D80002868C0F80825C0F8101570BD70B50446E5
:109D9000806815460E4608B1FFF7F8FF626822B1E9
:109DA00029463046BDE8704010472368002B06D096
:109DB00003482A4631460068BDE87040184770BD28
:109DC000D82C00202DE9F041454C20681C300FF0C4
:109DD0005FFF444F20680021FA681C300FF08BFFB2
:109DE000002009F021FC00EBC00101EB00104FF452
:109DF000A076A0255030B0420ADB002009F014FC08
:109E000000EBC00101EB0010503090FBF5F000E0DA
:109E1000012002B2206800211C300FF076FF20687C
:109E2000012200211C300FF06BFF206820300FF062
:109E30002FFF97F82000800701D52B4800E02B4822
:109E400008F0A5FB02462068002120300FF053FFE8
:109E5000002009F0E9FB00EBC00101EB00105030DD
:109E6000B0420ADB002009F0DFFB00EBC00101EB90
:109E70000010503090FBF5F000E0012002B22068A5
:109E8000002120300FF041FF206801220021203006
:109E90000FF036FF206824300FF0FAFE206847F6F6
:109EA000FF72002124300FF071FF2068002211465C
:109EB00024300FF061FF20680022114624300FF09B
:109EC00047FF20680022114624300FF04BFF206826
:109ED000BDE8F0410022114624300FF048BF0000D9
:109EE000DC2C0020B0C20020D9D7D4004D49450059
:109EF0002DE9F843554C20682C300FF0C9FE20683E
:109F000047F6FF78424600212C300FF03FFF2068D3
:109F1000FF2200212C300FF0CAFE4D4D95F8200095
:109F2000800701D54B4800E04B4808F030FB024663
:109F3000206800212C300FF0B5FE484E95F8200027
:109F40003268800703D5464808F021FB02462068A6
:109F500000212C300FF067FF20680021EA682C30C8
:109F60000FF0E2FEE889ADF8000020680421009AB5
:109F70002C300FF0D9FE2068002211462C300FF053
:109F8000D8FE95F82000800605D420687F220221A3
:109F90002C300FF0CEFE95F8200080064FF0000028
:109FA00011D409F041FB502707EB4000B0F5A07F2A
:109FB00008DB002009F038FB07EB4000A02190FBF4
:109FC000F1F000E0012002B2206800212C300FF0F7
:109FD000BAFE2068002211462C300FF01FFF2068C7
:109FE0004C2200212C300FF014FF206830300FF08D
:109FF0004FFE2068FF22002130300FF058FE20680D
:10A000004246002130300FF0C1FE20680021EA688E
:10A0100030300FF047FE40F6880008F0C4FA0246E0
:10A020002068202130300FF03DFE95F82000726846
:10A03000800703D50B4808F0AAFA02462068BDE85D
:10A04000F843002130300FF0EEBE0000DC2C002081
:10A05000B0C20020D9D7D4004D494500584504006E
:10A060004F4031004F4041002DE9F84FFE4D286828
:10A070000FF00EFEFF22002128680FF018FEFB4FA4
:10A0800097F82000800701D5F94800E0F94808F06A
:10A090007EFA0246002128680FF004FE97F820009F
:10A0A000F54E800701D5F54800E0304608F06FFA1C
:10A0B0000246002128680FF091FE97F820008007E3
:10A0C00001D5EE4800E0304608F061FA0246002172
:10A0D00028680FF0A8FE97F820002C68800701D5AB
:10A0E000E64800E0304608F052FA024648F28A019B
:10A0F0002046FFF72DF8286848F28B01FA68FFF731
:10A1000027F800217A6928680FF092FE2868001D60
:10A110000FF0BEFD002009F087FA502606EBC000C4
:10A120004FF4A079A024484507DB002009F07CFA11
:10A1300006EBC00090FBF4F000E0012002B22868BA
:10A140000021001D0FF022FE2868FF220021001DC3
:10A150000FF0ADFD97F820006FF07F4A800701D522
:10A16000504600E0C64808F012FA0246286800216E
:10A17000001D0FF097FD97F82000800701D5C1481A
:10A1800000E0C14808F003FA024628680021001DDB
:10A190000FF092FD97F82000B846800610D428688A
:10A1A00047460221D8F80C20001D0FF085FDF889E4
:10A1B000ADF8000028680421009A001D0FF07CFD16
:10A1C000002009F031FA06EB40004F46B84207DBA9
:10A1D000002009F029FA06EB400090FBF4F000E0C3
:10A1E000012002B228680021001D0FF074FD2868CC
:10A1F00001223321001DFEF7EDFF98F820008007B3
:10A2000001D59E4800E0504608F0C1F90246286892
:10A210000021A946001D0FF0E1FDD9F800004546D8
:10A220000021D8F81420001D0FF002FE95F8200040
:10A23000800701D5914800E0504608F0A8F9024691
:10A24000D9F800000021C846001D0FF0ECFD95F87C
:10A250002000800701D5894800E0504608F097F9B2
:10A260000246D8F800000021001D0FF03EFD95F8D1
:10A270002000A946800701D5804800E0504608F03C
:10A2800086F90246D8F8000000214546001D0FF06F
:10A2900032FD286801220021001D0FF036FD00204C
:10A2A00009F00EFA01284FF000000DD809F0BCF9B2
:10A2B000C0EB00105030B84218DB002009F0B4F9B0
:10A2C000C0EB001050300EE009F0AEF9C0EB00100A
:10A2D00006EB4000B84209DB002009F0A5F9C0EB0D
:10A2E000001006EB400090FBF4F500E00125002093
:10A2F00009F09AF906EB4000B84207DB002009F0AC
:10A3000093F906EB400090FBF4F000E001202844B4
:10A3100002B2D8F800000021001D0FF023FD00203C
:10A3200009F0CEF901284FF000000DD809F07CF9B2
:10A33000C0EB00105030B84218DB002009F074F96F
:10A34000C0EB001050300EE009F06EF9C0EB0010C9
:10A3500006EB4000B84209DB002009F065F9C0EBCC
:10A36000001006EB400090FBF4F500E00125002012
:10A3700009F05AF906EB4000B84207DB002009F06B
:10A3800053F906EB400090FBF4F000E00120284474
:10A3900002B2D8F800000021001D0FF0E8FC0020F8
:10A3A00009F08EF901284FF000000DD809F03CF9B2
:10A3B000C0EB00105030B84218DB002009F034F92F
:10A3C000C0EB001050300EE009F02EF9C0EB001089
:10A3D00006EB4000B84209DB002009F025F9C0EB8C
:10A3E000001006EB400090FBF4F500E00125002092
:10A3F00009F01AF906EB4000B84207DB002009F02B
:10A4000013F906EB400090FBF4F000E00120284433
:10A4100002B2D8F800000021001D0FF0ADFC0020B2
:10A4200009F04EF901284FF000000DD809F0FCF8B2
:10A43000C0EB00105030B8422BDB002009F0F4F8DC
:10A44000C0EB001050300EE009F0EEF8C0EB001049
:10A4500006EB4000B8421CDB002009F0E5F8C0EB39
:10A46000001006EB400011E0DC2C0020B0C2002000
:10A47000F3EFEA005A4B4400ECE9E700423E3B00B0
:10A4800073625800E3DDD600978A800090FBF4F5F4
:10A4900000E00125002009F0C7F806EB4000B842B3
:10A4A00007DB002009F0C0F806EB400090FBF4F059
:10A4B00000E00120284402B2D8F8000000214546FF
:10A4C000001D0FF045FC002009F0FAF801284FF0BC
:10A4D00000000DD809F0A8F8C0EB00105030B842C9
:10A4E00018DB002009F0A0F8C0EB001050300EE09F
:10A4F00009F09AF8C0EB001006EB4000B84209DB07
:10A50000002009F091F8C0EB001006EB400090FB32
:10A51000F4F000E0012002B228680021001D0FF0D5
:10A520001CFC286800221146001D0FF077FC2868EB
:10A5300039220021001D0FF06CFC28680C300FF050
:10A54000A7FB296801F10C00091D0FF0CDFA99F85D
:10A550002000800701D5F74800E0F74808F017F819
:10A56000024628680021A8460C300FF09BFB99F8A2
:10A5700020004D46800701D5F04800E0F04808F083
:10A5800006F80246D8F800000021C1460C300FF052
:10A5900093FB95F82000DFF8ACB3A846800701D5FF
:10A5A000E94800E0584607F0F2FF0246D9F80000FB
:10A5B00000214D460C300FF011FC98F82000800768
:10A5C00001D5E14800E0584607F0E1FF024628685F
:10A5D00000210C300FF027FC98F82000800701D5EF
:10A5E000D94800E0584607F0D2FF0246286800210B
:10A5F0000C300FF07AFB98F82000800701D5D24884
:10A6000000E0584607F0C3FF0246286800210C30DE
:10A610000FF071FB286808300FF03AFB98F8200023
:10A62000800701D5C94800E0C94807F0B0FF0246DD
:10A630002868102108300FF035FB28680121D8F870
:10A640000C2008300FF02EFB3321D8F80C0007F057
:10A6500055FF02462868112108300FF023FB98F8B7
:10A660002000800701D5504600E0BA4807F08FFF70
:10A6700002462868202108300FF014FB28680022C9
:10A68000012108300FF027FB98F8200080060AD43B
:10A690003321D8F80C0007F031FF02462868122158
:10A6A00008300FF009FB98F82000DFF8ACB2800703
:10A6B00004D540F6CC4007F076FF02E0584607F09C
:10A6C00066FF02462868102108300FF0F5FA98F866
:10A6D0002000800701D5A14800E0584607F057FF49
:10A6E00002462868012108300FF0E6FA98F82000A9
:10A6F000800701D5994800E0584607F048FF024618
:10A7000028681121A94608300FF0D6FA98F82000E1
:10A710004546800701D5924800E0584607F037FFCC
:10A720000246D9F800002021C84608300FF0C4FACC
:10A7300095F82000800701D5884800E0504607F0D2
:10A7400026FF0246D8F80000102108300FF046FB23
:10A75000504607F01CFF0246D8F8000001210830DF
:10A760000FF03CFB504607F012FF0246D8F80000FD
:10A77000112108300FF032FB95F8200040F6AA2B8B
:10A78000800701D5584601E040F6991007F00BFF0D
:10A790000246D8F80000202108300FF01FFB95F882
:10A7A0002000A946800701D56C4800E0504607F01C
:10A7B000EEFE0246D8F800001021454608300FF0A2
:10A7C00094FA504607F0E3FE024628680121A846A5
:10A7D00008300FF08AFA4D46504607F0D8FE024680
:10A7E000D8F80000112108300FF07FFA95F820000A
:10A7F000A946800701D5584601E040F6991007F0B8
:10A80000D2FE0246D8F800002021454608300FF05D
:10A810006CFA28682922002108300FF0F5FA286820
:10A8200010300FF035FA286847F6FF72002110301B
:10A830000FF0ACFA2868FF22002110300FF037FA31
:10A8400099F82000C846800701D5504600E04148ED
:10A8500007F09DFE024628680021A94610300FF03F
:10A8600021FA98F820004546800705D5504607F0A4
:10A870008EFE0146332204E0364807F088FE01468A
:10A880004C22E86807F098FF0246D9F80000102132
:10A89000C84610300FF006FAD8F80000A94601218A
:10A8A000EA6810300FF0FEF94C21E86807F026FE48
:10A8B0000246D8F80000112110300FF0F3F995F896
:10A8C0002000800701D5504600E0224807F05FFED7
:10A8D0000246D8F800002021454610300FF0E2F97A
:10A8E00099F82000C846800740F6880902D540F64E
:10A8F000CC4000E0484607F056FE02462868212179
:10A9000010300FF0CFF928680021D8F80C20103053
:10A910000FF0D2F928681021D8F80C2010300FF071
:10A92000CBF998F8200080071CD5484607F03BFE7D
:10A930001BE00000D9D7D4004D494500EDE7DF000A
:10A9400040404000ADA8A5004F403100EEEEEE00C3
:10A95000574F4900736258006E655F00423E3B00EE
:10A96000E3DDD600FE4807F012FE024628682021EB
:10A9700010300FF0A1F9002008F056FE06EB400061
:10A98000B946484507DB002008F04EFE06EB4000C4
:10A9900090FBF4F000E0012002B2286800211030A2
:10A9A0000FF099F928680022012110300FF089F981
:10A9B00098F820004746800701D5EA4800E0504655
:10A9C00007F0E5FD02462868002110300FF006FA76
:10A9D00097F82000800701D5E24800E0504607F0D4
:10A9E000D6FD02462868102110300FF0F7F9D04646
:10A9F000504607F0CCFD02462868012110300FF0C8
:10AA0000EDF9404607F0C3FD0246286811211030D9
:10AA10000FF0E4F9DFF850A3504607F0B8FD024606
:10AA20002868202110300FF0D9F997F8200080070E
:10AA300001D5CC4800E0404607F0A9FD0246286851
:10AA4000002110300FF051F997F82000800701D550
:10AA5000C44800E0404607F09AFD024628681021ED
:10AA600010300FF042F9404607F091FD0246286889
:10AA7000102110300FF039F9404607F088FD0246EA
:10AA80002868112110300FF030F9504607F07FFD93
:10AA900002462868202110300FF027F997F820008F
:10AAA000800701D5AF4800E0404607F070FD024640
:10AAB0002868002110300FF0B6F997F820008007C1
:10AAC00001D5A84800E0404607F061FD024628682D
:10AAD000102110300FF0A7F9404607F058FD02464C
:10AAE0002868012110300FF09EF9404607F04FFD15
:10AAF00002462868112110300FF095F9B8465046EB
:10AB000007F045FD02462868202110300FF08BF930
:10AB1000002008F089FD00EB800006EBC0004F46E6
:10AB2000B84209DB002008F07FFD00EB800006EB57
:10AB3000C00090FBF4F000E0012002B22868002180
:10AB400010300FF00FF9002008F06EFD00EB8000D0
:10AB500006EBC000B84209DB002008F065FD00EB01
:10AB6000800006EBC00090FBF4F000E0012002B290
:10AB70002868002110300FF0FAF8002008F054FD8A
:10AB8000C0EB00105030B84208DB002008F04CFD4C
:10AB9000C0EB0010503090FBF4F000E0012002B256
:10ABA0002868002110300FF0E7F8002008F03CFD85
:10ABB000C0EB00105030B84208DB002008F034FD34
:10ABC000C0EB0010503090FBF4F000E0012002B226
:10ABD0002868002110300FF0BBF8002008F024FD99
:10ABE00000EB800006EB8000B84209DB002008F093
:10ABF0001BFD00EB800006EB800090FBF4F000E012
:10AC0000012002B22868002110300FF0A6F898F851
:10AC1000200080064FF000000ED408F005FD06EB82
:10AC20004000B84207DB002008F0FEFC06EB4000C5
:10AC300090FBF4F000E0012002B2286800211030FF
:10AC40000FF081F828680022114610300FF071F8DB
:10AC500098F8200080060FD428687F220221103047
:10AC60000FF067F8B8F80E00ADF80000286804216E
:10AC7000009A10300FF058F828680021D8F80C20FE
:10AC800010300FF051F828680022114610300FF0F4
:10AC9000C5F828683C22B5211030FEF79BFA2868D9
:10ACA0002922002110300FF0AFF828684C22002133
:10ACB00010300FF0AEF828680022114610300FF067
:10ACC0009EF828680022102110300FF098F82868AC
:10ACD00014300EF0DDFF002008F0F2FC01284FF0E8
:10ACE00000000FD808F0A0FC00EB800006EB80000D
:10ACF000B84219DB002008F097FC00EB800006EB5F
:10AD000080000EE008F090FC00EB800006EBC00035
:10AD1000B84209DB002008F087FC00EB800006EB5E
:10AD2000C00090FBF4F000E0012002B2286800218E
:10AD300014300FF012F8286818300EF0A9FF002028
:10AD400008F0BEFC01284FF0000016D808F06CFC9B
:10AD500000EB800006EB4000B84220DB002005E05D
:10AD6000404040004F4031008888880008F05CFC7B
:10AD700000EB800006EB40000EE008F055FC00EB15
:10AD8000800006EB8000B84209DB002008F04CFC94
:10AD900000EB800006EB800090FBF4F000E0012067
:10ADA00004B228682246002118300EF0DBFF286824
:10ADB0002246002118300EF0DAFF286822460021D2
:10ADC00018300EF0D9FF28682246002118300EF006
:10ADD000BFFF28682246BDE8F84F002118300EF06A
:10ADE000BCBF30B5032B15D10423082A12D2DFE8EB
:10ADF00002F0110406080A0C0E1002220AE00422D6
:10AE000008E0062206E0092204E00B2202E00D22FF
:10AE100000E00F22C1F3CF0401F00701C1F10801E6
:10AE2000CD1A01219940491EC943035DA9400B4039
:10AE3000AA401343035530BD70B51500044609D030
:10AE40000020286034B1206820B1A079800703D0A9
:10AE5000072070BD0E2070BD084600F02FFBC0B269
:10AE6000142804D02179814203D8042070BD052024
:10AE700070BDE288216800FB02102860002070BDD0
:10AE80002DE9FC47002517880646158090F82D000F
:10AE90001446894630B13A462146484600F022FB26
:10AEA000051E09D1B0784FF00C0A18B32088C846A7
:10AEB000001DB84202D95046BDE8FC87684679DFDC
:10AEC0000028F9D12088032108F8001020881921D2
:10AED000401C80B2208008F800102088401C80B2FE
:10AEE000208000EB0801BDF8000015F01FFB218851
:10AEF00008442080F0780222C8B1218896F90330F6
:10AF000001F1030C4846BC45D5D8425421884FF086
:10AF1000010C491C89B2218000F801C02188491C1C
:10AF200089B2218009F801302088401C2080706897
:10AF3000B8B1218890F9003001F1030C4846BC45B6
:10AF4000B9D8425421880A22491C89B2218042542E
:10AF50002188491C89B2218009F801302088401CD1
:10AF60002080308950B1CDE900474B4606220221AE
:10AF700006F1080015F09EFD051E9DD1308A50B1E6
:10AF8000CDE900474B460722032106F1100015F0DA
:10AF900091FD051E90D1308B50B1CDE900474B4655
:10AFA0001522142106F1180015F084FD051E83D129
:10AFB000306A30B13B462246494601F0C0FE051ECC
:10AFC000DBD1706A30B13B46224649460FF014FC93
:10AFD000051ED2D196F82C0038B13B462246494690
:10AFE000304612F0DFFF051EC7D1307838B13B463E
:10AFF0002246494630460FF0D3FF051EBDD12846F4
:10B000005AE718B504460020ADF8000013466A461A
:10B01000204600F006F8002802D0BDF800002044C9
:10B0200018BD70B588B182B10024158803E0065DB3
:10B03000641C3444A4B2A54203D8061976789E4213
:10B0400001D08C42F3D38C4201D3002070BDA11CEF
:10B050001180005D401E80B270BD80F830107047D6
:10B060002DE9F0410E00044606D02CB196F87A0086
:10B070000025012803D006E00E20BDE8F08196F8F7
:10B080009800012821D04FF00108A5702C2206F16C
:10B090007801201DFBF7EAF984F83050D6F8A400B7
:10B0A0006063D6F8A800A0634FF6FF70A4F8A8006C
:10B0B00004F19400C4F8A400C4F8AA50A4F8AE5057
:10B0C00084F8B050207810B104E00720D5E7FF20C5
:10B0D00084F8540004F155011F27C4F89410A4F813
:10B0E000987004F198023046FFF7CAFE0028C4D1D8
:10B0F00016F13C0F0ED004F17401C4F89C10A4F8B2
:10B10000A07004F1A00206F13C00FFF7B9FE002890
:10B11000B3D103E0C4F89C50A4F8A05084F8518047
:10B12000208BA4F8480084F83C80256484F85050B3
:10B1300060696064464604F13C02002104F1540059
:10B1400072DF002899D1267097E710B50288102A7F
:10B150001BD0112A20D0262A1DD1007A0C460128A6
:10B1600001D0022817D1A0780521401CB0FBF1F2D4
:10B1700001FB1201204600F052F800280BD0A16B11
:10B18000002908D0BDE810400847C27B012A02D13F
:10B190008088A1F8A80010BD0C46002184F8B210E8
:10B1A0008088B4F8A8108842F5D120790028F2D11F
:10B1B0000121DFE710B50C46022801D0032810D189
:10B1C000607800280DD000206070A178204600F043
:10B1D00026F8002805D0A16B002902D0BDE8104058
:10B1E000084710BD10B5044690F8540074DF0120E4
:10B1F00084F8B200002084F8B40084F850000621DE
:10B20000204605F092F8002808D1A178204600F0E9
:10B2100006F810B1A16B01B18847002010BD2DE9DF
:10B22000F05F044600780F4638B1A770002010F098
:10B23000FDFA012620B1667007E10820BDE8F09F05
:10B240000025C4F8AA50A4F8AE5084F8B050A079F4
:10B2500010B1A078012806D0E07968B1A078012863
:10B2600001D0022808D1616B21B184F8B1600820B7
:10B27000884701E084F8B15004F1AB0100200A5C7A
:10B280000AB1304603E0401C0628F8D300204FF0F6
:10B2900002084FF0030B012F06D0022F0CD0032F12
:10B2A0000FD0042F15D110E0A17929B194F8241002
:10B2B00011B908B130460DE0E17911B108B140464D
:10B2C00008E0207A08B1584604E0607A08B104200A
:10B2D00000E02846A070616B41B1032801D004282A
:10B2E00004D1607910B194F8B200A0B184F8B350E1
:10B2F00004F13C0018210746FBF7D1F804F12C00BB
:10B3000084F83C60814612F00FFB58B194F82C0091
:10B3100084F8510008E084F8B45084F8B360072042
:10B320008847E5E784F8516094F8240050B1484616
:10B3300012F0FAFA20B194F8280084F8520001E0E3
:10B3400084F8526084F85050A27804F1AA0104F104
:10B3500094094FF0060A052A60D2DFE802F078036C
:10B360000F223F0084F83160C4F8A450C4E91015DE
:10B3700084F83C808020A4F8480051E084F83180B3
:10B3800094F82420384612B10722027001E080F8B8
:10B3900000B0228A8281C4F8A4504160E168B9609B
:10B3A0003EE06069B860208BB88194F824003D4687
:10B3B00010B184F83CA001E084F83C60204615F010
:10B3C00043FB40B185F814800421204604F0ADFF12
:10B3D00020BB05211EE084F831B01DE0E069B860B3
:10B3E000208CB88194F824003D4610B184F83CA02C
:10B3F00001E084F83C60204615F026FB48B185F852
:10B4000014800421204604F090FF38B984F831A05C
:10B4100002E0042184F83110C4F8A490A07878B137
:10B420003A4604F15400D4F8A41072DF00287FF4E7
:10B4300005AF94F8301094F8540073DF0028F6D16B
:10B44000616B11B194F8310088470020F6E684F86A
:10B450003150F5E770B5040012D001461C221448A3
:10B46000FBF704F81248134D0560206850B17ADFED
:10B47000002806D12068016829604068686005E0FE
:10B480000E2070BD0B487BDF0028FAD108484FF62C
:10B49000FF711438084A20F8041B0549343901604B
:10B4A0000021FEF797FA0028EBD0032070BD0000C2
:10B4B000CC310020E42A0020E109040010B5044644
:10B4C00000F006F808B1204610BD142010BD0000A1
:10B4D000142801D300207047014601480FF0DABD5F
:10B4E000EC3100207CB5054608880C4609309042B6
:10B4F00001D90C207CBD68466DDF0028FAD1218877
:10B500000820685420881B21401C80B220802954C8
:10B510002088401C80B220802844DDF801100160A2
:10B52000BDF8051081802088801D80B220809DF8A4
:10B530000010490800D0012129542088401C208097
:10B5400000207CBDF8B5294D028804466E88212A6A
:10B5500037D011DC26484FF00301102A008801EB98
:10B56000004013D0112A25D0132A29D100231A46CE
:10B57000852130467FDF17E03B2A32D0522A2AD07D
:10B58000562A1DD18088132176DF0DE019A110F015
:10B5900061FD072000F070FB08B1FEF7E7F9A18814
:10B5A000698017480FF0D8FE002809D0BDE8F840A0
:10B5B000FEF7DCB913A110F04DFD4FF6FF70688067
:10B5C000F8BD00200090A08869468FDF0028F7D0E2
:10B5D000FEF7CCF9F8BD00231A4619463046B1DF14
:10B5E000E2E78088132176DFDEE70000A02A002052
:10B5F0002C2D0020436F6E6E65637465640000003F
:10B6000068300020446973636F6E6E6563746564AF
:10B610000000000010B51A4C0188606810290ED097
:10B6200011292BD1401E606028D1FEF732F8002886
:10B6300024D02168002921D0BDE810400847D0B9A6
:10B6400000210122084600F0F5FA08B107280FD1C1
:10B6500007220221012000F0EDFA08B1072807D1E6
:10B6600004220221002000F0E5FA20B1072802D0D0
:10B67000216801B188476068401C606010BD00000F
:10B68000DC2A00202DE9F04701883B4E40F2F319F7
:10B690004FF6FF7510291BD011293ED0122954D026
:10B6A000502946D1C188F289841D914241D16189D6
:10B6B00002293ED18688304605F0F0FB050038D0DF
:10B6C00004F10C0000F076F9A8B3294630464EE0AC
:10B6D000C17B8788044601292BD1A846284605F05E
:10B6E000DDFB050017D02F80002028722348434639
:10B6F0004A460168C5F80A104068C5F80E0004F112
:10B70000100105F10A0005F0BCFC6872F089002800
:10B710000FD129462AE0042013E0808805F0BEFB03
:10B72000040006D06068FEF7D7F908B112F00AFCF1
:10B730002580BDE8F087FFE76868FEF7CDF90028AF
:10B74000F7D0BDE8F04712F0FDBB878806463846C3
:10B7500005F0A4FB0400ECD02B464A4606F1080194
:10B7600004F10A0005F08DFC607221463846BDE800
:10B77000F04701F02BBB0000CC310020E42A002070
:10B780002DE9F04F0746858802883D48012197B092
:10B790008346102A09D0112A49D01A2A6CD1387A46
:10B7A000B1EB101F45D2012244E0354C083CA068A3
:10B7B000C0430B9061680BA80FF08DFC0B990CA88F
:10B7C00001F09EFA2C220CA96846FAF74FFE0026DB
:10B7D000E946A04610E000BF09EB46005FF0000418
:10B7E000B0F804A008EB84005146001D0FF047FCA0
:10B7F000641C1D2CF6D3761C0098B042ECD8142D96
:10B8000005D317B00420BDE8F04FFEF7AFB82946C6
:10B8100058460FF04AFC294608F104000FF045FC99
:10B82000F87B012828D016482946001D15E0294636
:10B830001AE000220221B1EB101F01D2012600E024
:10B8400000260F49083901F11000041D294682B174
:10B850000FF02BFC36B12946204617B0BDE8F04F5B
:10B860000FF023BC2946204617B0BDE8F04F0FF07B
:10B8700006BC0FF004FCF5E717B0BDE8F08F000040
:10B88000F0310020F0B585B016460F4604001D4685
:10B8900014D004AA19466069FFF7CEFA00280BD12C
:10B8A000A5F57F40FF380BD0049848B1007848B127
:10B8B0003088F42808D9072005B0F0BD0E20FBE73A
:10B8C0000520F9E70820F7E700200090019002909A
:10B8D0000390A088ADF8000001208DF80200CDE9AA
:10B8E000026769462846AEDFE6E7000030B5144B34
:10B8F0000D4604000FCB85B08DE80F001DD0E5B1DB
:10B900002868A0612146684662DF002813D1012023
:10B910008DF81200ADF81000A21C04A9A8DF0028C1
:10B9200009D12946204612F03EFA002803D12946C3
:10B93000204614F0BBFB05B030BD0E20FBE7000035
:10B940004C0C040070B588B00446002924D0002CAB
:10B9500022D008462188102920D0502924D05729E8
:10B960001AD10546A188406906AAFFF765FA0028A2
:10B9700012D1069E307800280ED018216846FAF7BA
:10B980008EFD01208DF800000195A088ADF808001B
:10B990000396A9696846884708B070BD08B021467B
:10B9A000BDE8704011F00ABE08B02146BDE8704005
:10B9B00011F0DCBE007800F0010070470149085C1E
:10B9C00070470000040C0400084908B5085C0090AA
:10B9D000684610F0ABF8D0F810050099C84010F098
:10B9E000010000D0012080F0010008BD040C04001B
:10B9F0002DE9FC410646C0074FF000050ED0104F60
:10BA000000240122385D00950023114601950FF0B6
:10BA1000A3FF641C042CF4D300F04EF8B0070DD53E
:10BA2000074E0024361D0022305D03230095114689
:10BA300001950FF091FF641C042CF4D3BDE8FC8148
:10BA4000000C0400094908B5085C0090684610F035
:10BA50006DF8D0F80425009B0121994021EA0203EA
:10BA6000C0F808351140C0F80C1508BD000C0400E2
:10BA70000249085C012110F0E0B80000000C04004D
:10BA80000249085C002110F0D8B80000000C040046
:10BA9000084908B5085C0090684610F047F8D0F8EF
:10BAA00004050099C84010F0010000D0012080F08A
:10BAB000010008BD000C040010B500242046FFF76B
:10BAC000D7FF641C042CF9D310BD10B50024204608
:10BAD000FFF7D6FF641C042CF9D310BD10B5024645
