:020000040002F8
:10600000085E0020C1630200C9630200CB63020086
:10601000CD630200CF630200D163020000000000E4
:10602000000000000000000000000000D363020038
:10603000D563020000000000D7630200D9630200AC
:10604000D56A0200DB630200E96D0200B16B020059
:10605000DB630200DB63020071650200DB630200A8
:10606000DB630200DB630200DB630200DB63020030
:10607000DB630200DB630200DB630200DB63020020
:10608000DB6302002D6B0200DB630200DB630200B6
:10609000056C0200DB630200096C0200DB63020096
:1060A000DB630200DB630200DB630200DB630200F0
:1060B000DB630200DB630200000000000000000060
:1060C000DB630200DB630200DB630200DB630200D0
:1060D000DB630200DB630200DB630200DB630200C0
:1060E000DB630200DB630200DB63020000000000F0
:1060F00000000000DB63020000000000DB63020020
:10610000000000000000000000000000000000008F
:10611000000000000000000000000000000000007F
:10612000000000000000000000000000000000006F
:10613000000000000000000000000000000000005F
:10614000000000000000000000000000000000004F
:10615000000000000000000000000000000000003F
:10616000000000000000000000000000000000002F
:10617000000000000000000000000000000000001F
:10618000000000000000000000000000000000000F
:1061900000000000000000000000000000000000FF
:1061A00000000000000000000000000000000000EF
:1061B00000000000000000000000000000000000DF
:1061C00000000000000000000000000000000000CF
:1061D00000000000000000000000000000000000BF
:1061E00000000000000000000000000000000000AF
:1061F000000000000000000000000000000000009F
:10620000DFF80CD000F076F90048004769900200F2
:10621000085E002030B450E8012F93B2C4892344B3
:106220008489A34228BF1B1B0489A34202BFBFF37A
:106230002F8F002007E0C3EA020340E80134002C5E
:10624000E9D14FF001000A6030BC704750E8012FDF
:10625000C2EA024240E801210029F7D1704730B478
:1062600050E8022F1FFAA2F3C488A34202BFBFF373
:106270002F8F00200DE0C48923448489A34228BFC6
:106280001B1BC2EA034340E80234002CE8D14FF064
:1062900001000A6030BC704750E8022FC2EA224277
:1062A00040E802210029F7D17047034653E8022F46
:1062B000D988B2EB324F4FF0000017BF92B241EADB
:1062C000014142EA014104E05A68B2EB324F08BF93
:1062D000012043E80212002AE8D1704730B4044696
:1062E00054E8000F0D4644E80053002BF8D1156028
:1062F00030BC704730B4044654E8000F40EA010552
:1063000044E80053002BF7D1156030BC704730B41F
:10631000044654E8000F00EA010544E80053002B4E
:10632000F7D1156030BC704730B4044654E8000F14
:1063300080EA010544E80053002BF7D1156030BC1A
:10634000704730B4044654E8000F00EB010544E800
:106350000053002BF7D1156030BC704730B40446B1
:1063600054E8000FA0EB010544E80053002BF7D1DF
:10637000156030BC704770B404464FF0000054E81C
:10638000006F0D68AE4207BF44E80023012044E8D7
:1063900000630E60002B1CBF0020F0E770BC70474C
:1063A00030B4044654E8000F88422CBF451A054615
:1063B00044E80053002BF5D1156030BC7047000055
:1063C0000648804706480047FEE7FEE7FEE7FEE78F
:1063D000FEE7FEE7FEE7FEE7FEE7FEE70D6C0200E4
:1063E000016202002DE9F05F0546002092469B46BF
:1063F00088460646814640241BE0284641464746DB
:10640000224600F067F853465A46C01A914110D30D
:1064100011461846224600F016F82D1A67EB0108BF
:106420004F4622460120002100F00DF817EB00092D
:106430004E41201EA4F10104DFDC484631462A46C5
:106440004346BDE8F09F202A04DB203A00FA02F11F
:10645000002070479140C2F1200320FA03F3194352
:106460009040704700487047ACCD020040EA0103FD
:106470009B0703D009E008C9121F08C0042AFAD2FA
:1064800003E011F8013B00F8013B521EF9D27047BE
:10649000D2B201E000F8012B491EFBD27047002266
:1064A000F6E710B513460A4604461946FFF7F0FF13
:1064B000204610BD421C10F8011B0029FBD1801A98
:1064C0007047034611F8012B00F8012B002AF9D17F
:1064D00018467047202A04DB203A21FA02F00021F6
:1064E000704721FA02F3D040C2F1200291400843E4
:1064F00019467047064C074D06E0E06840F001037E
:1065000094E8070098471034AC42F6D3FFF77CFEBE
:1065100028D5020048D5020070B58C1810F8015B30
:1065200015F0070301D110F8013B2A1106D110F82C
:10653000012B03E010F8016B01F8016B5B1EF9D130
:106540002B0705D40023521E0DD401F8013BFAE7B6
:1065500010F8013BCB1A921C03E013F8015B01F821
:10656000015B521EF9D5A142D8D3002070BD0000B6
:106570002DE9F04F00268DB0DFF8A081B1460496DA
:106580004FF48075012437460596284603F0A6FD92
:1065900038B1D8F80403204203D0284603F094FD14
:1065A00026432D1D64007F1CADB2082FEDD34FF4A0
:1065B000BE74204603F092FD48B1204603F084FDEE
:1065C00046F0004604AA0221002003F067FD544C67
:1065D00016F0FF0F15D00127002537420DD008EB2C
:1065E0008501D1F81005D1F81015C0F3052054F835
:1065F0002520C1F3014102B190477F006D1C082D99
:10660000EBD3002E7EDA0020CDF82890411E0DF14C
:10661000100B07AACDF82C9042F82010401C914690
:106620000228F9D300252E46A11911F8607F91F9AF
:10663000000027F0C008401C40D007A9404602F0E7
:10664000D5FF40B34FEA971A404602F04DF854F890
:1066500020701FB1BAF1030F03D006E0BAF1030FA7
:106660002CD10AA9404602F0C9FF02A8CDF8088043
:1066700003F088FC029900EB8100D0F8000704A920
:10668000C0F301400290404602F0B0FF002802989B
:1066900002D0022802D011E003280FD1BAF1030F73
:1066A00008D10298022833D00221404603F030FC82
:1066B0006D1CEDB217B151464046B847761C042E0A
:1066C000B2D3002D21D001AA0221002003F0E6FC64
:1066D00000205A460DF1040152F8206051F8203094
:1066E000B34217D000200AAE4FEA090351F82070D8
:1066F00042F8207056F8207043F82070401C0228A1
:10670000F4D300E001E0002D8CD10DB0BDE8F08F96
:106710000321CAE7401C0228DED3F6E700600040F0
:106720005431002070B50646094800240188458888
:1067300020464D43214600F013F900F093F903E0A1
:10674000304600F027F9641CAC42F9D370BD00005C
:10675000F02B002010B502F081FAC82003F0A2F857
:106760002B2003F0F7FB322003F09CF82B2003F0E2
:1067700078FC322003F096F8784880210180A0212F
:1067800041802C2101712A2141712B21817111201D
:1067900000F046F9782003F085F8B12000F040F9C8
:1067A000052000F01BF93C2000F018F93C2000F017
:1067B00015F9B22000F034F9052000F00FF93C2063
:1067C00000F00CF93C2000F009F9B32000F028F9A2
:1067D000052000F003F93C2000F000F93C2000F017
:1067E000FDF8052000F0FAF83C2000F0F7F83C2016
:1067F00000F0F4F8B42000F013F9032000F0EEF8F4
:10680000C02000F00DF9282000F0E8F8082000F082
:10681000E5F8042000F0E2F8C12000F001F9C02002
:1068200000F0DCF8C22000F0FBF80D2000F0D6F8F4
:10683000002000F0D3F8C32000F0F2F88D2000F023
:10684000CDF82A2000F0CAF8C42000F0E9F88D2025
:1068500000F0C4F8EE2000F0C1F8C52000F0E0F828
:106860001A2000F0BBF8362000F0DAF8C02000F063
:10687000B5F8E02000F0D4F8042000F0AFF82220B2
:1068800000F0ACF8072000F0A9F80A2000F0A6F804
:106890002E2000F0A3F8302000F0A0F8252000F012
:1068A0009DF82A2000F09AF8282000F097F826207A
:1068B00000F094F82E2000F091F83A2000F08EF8C5
:1068C000002000F08BF8012000F088F8032000F091
:1068D00085F8132000F082F8E12000F0A1F80420F0
:1068E00000F07CF8162000F079F8062000F076F829
:1068F0000D2000F073F82D2000F070F8262000F035
:106900006DF8232000F06AF8272000F067F82720B0
:1069100000F064F8252000F061F82D2000F05EF80A
:106920003B2000F05BF8002000F058F8012000F058
:1069300055F8042000F052F8132000F04FF83A20E8
:1069400000F06EF8052000F049F8292000F068F802
:10695000BDE810400020FFF7E5BE0000F02B00204E
:1069600070B50B4E05460C46707900F059F8280AB0
:1069700000F034F8E8B200F031F8B07900F050F8E7
:10698000200A00F02BF8E0B2BDE8704000F026B815
:10699000F02B002038B5044602252C2003F061FBC3
:1069A0000A48210A01704470094C00202070094BEC
:1069B0002A4606490848009502F0F0FF08B100F0A9
:1069C00095FB20780028FCD038BD0000043C002056
:1069D000EC2B0020043D002008CD020038B5044611
:1069E00001252C2003F03DFB09480470094C0020D0
:1069F0002070094B2A4606490848009502F0CEFF50
:106A000008B100F073FB20780028FCD038BD0000EE
:106A1000043C0020EC2B0020043D002008CD0200A7
:106A200038B5054601242C2003F094FA0948057076
:106A3000094D00202870094B224606490848009459
:106A400002F0ACFF08B100F051FB28780028FCD020
:106A500038BD0000043C0020EC2B0020043D002049
:106A600008CD020001480079FFF7DABFF02B0020C3
:106A700000F01F02012191404009800000F1E02058
:106A8000C0F88012704700F01F02012191404009B8
:106A9000800000F1E020C0F80011704700F01F02F4
:106AA000012191404009800000F1E020C0F800126F
:106AB00070474907090E002806DA00F00F0000F1C0
:106AC000E02080F8141D704700F1E02080F80014E9
:106AD0007047000070B54FF48076304602F0D2FE69
:106AE000114CB50560B1304602F0D3FE0120C5F867
:106AF0000803607920B9012060712168002088476F
:106B00004FF48276304602F0BDFE00280AD03046AF
:106B100002F0BFFE0220C5F808032168BDE87040FE
:106B20000120084770BD0000002B0020074800210D
:106B3000C0F84011C0F84411C0F84811C0F84C1119
:106B4000C0F80011C0F8041105F066BB0010014048
:106B500000F050B970B50E46144900EB400001EB4F
:106B6000C0051446E86A183520B101280FD0022864
:106B700005D113E0284600F071F9A04201D20024AB
:106B800011E022463146284600F0A0F90BE02846E5
:106B900000F064F9A042F4D20446F2E731462846F8
:106BA00000F067F90446204670BD00003839002027
:106BB000F8B51248124E04464FF48C7104F04FF8A9
:106BC00000281AD00025C4F81851D4F818010090F4
:106BD000F07F3446FF2806D0A17F11B103F0B0F951
:106BE00001E003F034FA65772572D4E9002101B0A1
:106BF00004F10800BDE8F0401047F8BD0030004047
:106C0000E03B002005F056BA03F0BEBF30B54FF0B0
:106C1000805000228300D0F83011C3F80C21C3F853
:106C20001021624B1A60624B1B68624C2360604B00
:106C30001B1D1B68241D23605D4B08331B68241D2E
:106C400023605B4B0C331B68241D2360584B1033AF
:106C50001B68241D2360564B14331B68241D2360BE
:106C6000534B18331B68534C20342360504B1C3358
:106C70001B68241D23604E4B20331B68241D23609A
:106C80004B4B24331B68241D2360494B28331B685E
:106C9000241D2360464B2C331B68241D2360444B6A
:106CA00030331B68434C40342360414B34331B6802
:106CB000241D23603E4B38331B68241D23603C4B4E
:106CC0003C331B68241D2360394B40331B68241D53
:106CD00023600124082902D1D0F8343113B10829E6
:106CE00004D006E0354B3449196005E0D0F8343162
:106CF00013B1082904D006E0314BFB21196005E0EF
:106D0000D0F8343113B1082908D00EE090F8583289
:106D10002C48016863F30301016002E0D0F83431CC
:106D20001BB929494FF40070086028480168C90759
:106D300002D06FF0010101602548016841F4700143
:106D40000160BFF34F8FBFF36F8F4FF01021D1F869
:106D50000002002803DBD1F80402002822DA1D4BD0
:106D60001C601D480468002CFCD01224C1F80042AD
:106D70000568002DFCD0C1F8044201680029FCD050
:106D80001A6001680029FCD0BFF34F8F10487C388F
:106D90000168124A01F4E06111430160BFF34F8FB3
:106DA00000BFFDE70F490E48086030BD38050040C0
:106DB0000404001020C50040488103008C560040A8
:106DC00018F50040E40E00404096024000040040E8
:106DD00088ED00E004E5014000E401400400FA050C
:106DE0000090D003F82B0020014800680047000005
:106DF000082B002010B5124C02202061606111A008
:106E0000A06104F17800E0614FF40070206200207E
:106E1000A06260620BA1A164E06204F51E71E164EE
:106E20001021A065C4E91410E06509A1E01DFFF779
:106E300048FB08A12046FFF744FB2020A07110BDAD
:106E4000383900205465726D696E616C0000000075
:106E50005254540053454747455200000269C168E7
:106E60008A4203D88068401A104400E0501A401E3D
:106E700070472DE9F047C4681746894606464FF02B
:106E800000083069A04201D9051B02E0B168201A50
:106E90000D1AB0686D1E001BA84200D80546BD4201
:106EA00000D33D4670682A4620444946FFF7DEFA83
:106EB000B0687F1B2C44A844A944A04200D1002400
:106EC000F460002FDDD14046BDE8F0872DE9F041A8
:106ED00004468846D4E90207C51BE1686068164687
:106EE0000844B54206D94146FFF7C0FAB819E06038
:106EF000BDE8F0812A464146FFF7B8FA761B08EB59
:106F0000050132466068FFF7B1FAE660F0E700007D
:106F1000014A024900F026B8478B0200842B00206A
:106F200002E008C8121F08C1002AFAD17047704752
:106F3000002001E001C1121F002AFBD170470000B0
:106F40000121202803DA81400548014003E0402860
:106F500002DA2038814009B10120704700207047D3
:106F6000FC06FFBD2DE9F04116460F4604460025FC
:106F700003E03946B047641C6D1C20780028F8D126
:106F80002846BDE8F08110B501220221002001F061
:106F9000BBF908B1072818D107220221012001F00E
:106FA000B3F908B1072810D100210A22084601F0E0
:106FB000ABF908B1072808D10B220121002001F00C
:106FC000A3F908B1072800D1002010BD022001F06C
:106FD000A3B8000070B50024064D06E068680121E2
:106FE00010F8340003F0BEFE641C28788442F5D308
:106FF000002070BD102B0020F8B515460C46064643
:10700000052A01D20720F8BD03F0A4FF18B903F048
:1070100067FF0028F7D1124900224E600C708D6086
:10702000C1E90422C1E906220E4D0DE006EBC400C1
:107030002968009181788DF8011000780A4A694624
:1070400003F0DCFE0028DED1641EE4B2EED2BDE81F
:10705000F84004480021054A001D00F07BB80000FC
:10706000102B00206CCA0200D98B0200B9890200E3
:1070700072B603F0BBFA00BF03F0FAF80028FBD1A8
:10708000104C0121208801EB00400FA103F000FA11
:1070900010480068C00700D000BE2088022101EB24
:1070A00000400DA103F0F4F9BFF34F8F0948E43815
:1070B00001680D4A01F4E06111430160BFF34F8F95
:1070C00000BFFDE72C2C0020466174616C206572C6
:1070D000726F7200F0ED00E053797374656D207289
:1070E00065736574000000000400FA050EB5002108
:1070F0000091CDE901106A4644F20100FFF7B8FFA4
:107100000EBD10B58268C368934203D001F0F4FC51
:10711000002010BD052010BD29B112B1531E13422D
:1071200003D0092070470E20704701608380002142
:107130008160C1600846704710B58268C3689A1ABA
:1071400083889A4203D801F0E1FC002010BD04209E
:1071500010BD0000084B9B7823B12AB120B1006814
:10716000037C1BB10820704707207047002303747D
:1071700041744261184670473032002070B504F007
:10718000F1FC104800240B21047044700E4D8170F6
:1071900014206C602C706C70FFF76AFC07211420BF
:1071A000FFF787FC1420FFF76EFC084804600721F6
:1071B0001120FFF77EFC0548001F0068A860002032
:1071C00070BD000030320020302B00200815014037
:1071D0002DE9FC47DFF8789099F8023073B368B373
:1071E000052902D20720BDE8FC87436933B3437CFD
:1071F000012B25D0002704460025884616468DF829
:107200000050684600F0CEF801A805F041FBC8B177
:10721000012101700F4944600968C0E90218C0E902
:1072200004769DF8040089F801009DF8000000F044
:10723000DDF81420FFF732FC2846D4E70820D2E717
:107240000F46D8E704259DF8000000F0CFF8F3E7DB
:1072500030320020041501400649897839B130B137
:10726000416921B100210174022104F0B1BF08205D
:10727000704700003032002070B50A4E01460A48BF
:10728000B578FFF73EFF04464DB10020B070711C89
:107290000122C81D02F0C2FB08B1FFF727FF2046FC
:1072A00070BD0000442B00203C330020F0B5244E7C
:1072B00089B01F460D00044672603FD0A888296837
:1072C00082B22048FFF728FF002835D1A889A96895
:1072D00082B21C481030FFF71FFF00282CD120225B
:1072E00019496846FFF7C2F860690690207C00B132
:1072F00001208DF814008DF81C70607C00B10E2008
:107300008DF81500E0680290A06803902068019055
:10731000606800900A480D4A6946083002F04AFB4E
:10732000002809D1B0702068401C05D00449012212
:10733000491CC81D02F072FB09B0F0BD0720FBE735
:10734000442B00203C33002088CA020011C40200F4
:1073500010B501461048FFF7EFFE040019D10F48A1
:107360000F4A0178515C19B1001D04F077F902E071
:107370000C3004F05BF860B9084907480839FFF79A
:10738000C0FE30B9054901220839044802F056FB15
:107390000446204610BD00004C3300204C2B00203A
:1073A000EC2A002030B5EFF3108172B60D4A9468D4
:1073B000012324B10370002900D162B630BD93606F
:1073C0004FF0E023D3F88051074C25401560C3F8F7
:1073D0008041D3F8844154605A17C3F884210022B5
:1073E0000270E8E75C330020FC06FFBD0B498A68A9
:1073F000002A11D000280FD1EFF3108072B60B686D
:107400004FF0E022C2F800314B68C2F8043100228C
:107410008A60002800D162B6704700005C3300200B
:1074200070B5054608680C46411C04D002F0FBFD0F
:10743000206802F04FFD6068411C02D0002102F07C
:1074400026FD2968A069C1F82405607D227D296890
:107450001043C1F86C05D4E900122868C0F814255F
:10746000C0F80C15207D012814D1A068411C02D061
:10747000002102F00CFDE068411C04D002F0D3FDB5
:10748000E06802F027FDD4E902122868C0F8082558
:10749000C0F8101570BD70B5054608680C46411C53
:1074A00004D002F0CAFD206802F01EFD6068411C95
:1074B00002D0002102F0F4FC2968A069C1F824057B
:1074C000607D217D2A680843C2F86C05D4E900126A
:1074D0002868C0F80C15C0F81425207D012814D1A7
:1074E000A068411C02D0002102F0DAFCE068411CD7
:1074F00004D002F0A2FDE06802F0F6FCD4E902122A
:107500002868C0F80825C0F8101570BD70B51500C2
:10751000044609D00020286034B1206820B1A07949
:10752000800703D0072070BD0E2070BD084600F014
:107530002FFBC0B2142804D02179814203D8042043
:1075400070BD052070BDE288216800FB0210286034
:10755000002070BD2DE9FC470025178806461580E0
:1075600090F82D001446894630B13A4621464846E7
:1075700000F022FB051E09D1B0784FF00C0A18B3B9
:107580002088C846001DB84202D95046BDE8FC8795
:10759000684679DF0028F9D12088032108F8001017
:1075A00020881921401C80B2208008F80010208813
:1075B000401C80B2208000EB0801BDF8000005F0FF
:1075C000B5F8218808442080F0780222C8B12188CB
:1075D00096F9033001F1030C4846BC45D5D8425416
:1075E00021884FF0010C491C89B2218000F801C0AC
:1075F0002188491C89B2218009F801302088401C6B
:1076000020807068B8B1218890F9003001F1030C36
:107610004846BC45B9D8425421880A22491C89B23F
:10762000218042542188491C89B2218009F8013007
:107630002088401C2080308950B1CDE900474B465E
:107640000622022106F1080005F03AF9051E9DD137
:10765000308A50B1CDE900474B460722032106F19D
:10766000100005F02DF9051E90D1308B50B1CDE9F9
:1076700000474B461522142106F1180005F020F9A9
:10768000051E83D1306A30B13B462246494601F09F
:10769000CAF8051EDBD1706A30B13B462246494626
:1076A00001F020FE051ED2D196F82C0038B13B46E1
:1076B00022464946304604F08BFB051EC7D1307880
:1076C00038B13B4622464946304601F091FE051E40
:1076D000BDD128465AE718B504460020ADF8000091
:1076E00013466A46204600F006F8002802D0BDF88E
:1076F0000000204418BD70B588B182B100241588FF
:1077000003E0065D641C3444A4B2A54203D8061904
:1077100076789E4201D08C42F3D38C4201D3002074
:1077200070BDA11C1180005D401E80B270BD80F84C
:10773000301070472DE9F0410E00044606D02CB100
:1077400096F87A000025012803D006E00E20BDE857
:10775000F08196F89800012821D04FF00108A5701B
:107760002C2206F17801201DFEF780FE84F83050AF
:10777000D6F8A4006063D6F8A800A0634FF6FF70A7
:10778000A4F8A80004F19400C4F8A400C4F8AA5016
:10779000A4F8AE5084F8B050207810B104E007206F
:1077A000D5E7FF2084F8540004F155011F27C4F8E1
:1077B0009410A4F8987004F198023046FFF7CAFEBE
:1077C0000028C4D116F13C0F0ED004F17401C4F8A6
:1077D0009C10A4F8A07004F1A00206F13C00FFF791
:1077E000B9FE0028B3D103E0C4F89C50A4F8A0501F
:1077F00084F85180208BA4F8480084F83C802564EC
:1078000084F8505060696064464604F13C020021EF
:1078100004F1540072DF002899D1267097E710B563
:107820000288102A1BD0112A20D0262A1DD1007AC6
:107830000C46012801D0022817D1A0780521401C50
:10784000B0FBF1F201FB1201204600F052F80028D3
:107850000BD0A16B002908D0BDE810400847C27BBF
:10786000012A02D18088A1F8A80010BD0C46002191
:1078700084F8B2108088B4F8A8108842F5D1207935
:107880000028F2D10121DFE710B50C46022801D013
:10789000032810D1607800280DD000206070A178F6
:1078A000204600F026F8002805D0A16B002902D060
:1078B000BDE81040084710BD10B5044690F85400CC
:1078C00074DF012084F8B200002084F8B40084F84A
:1078D00050000621204601F022F9002808D1A178A5
:1078E000204600F006F810B1A16B01B188470020D6
:1078F00010BD2DE9F05F044600780F4638B1A7703F
:10790000002002F0B1F9012620B1667007E10820DD
:10791000BDE8F09F0025C4F8AA50A4F8AE5084F842
:10792000B050A07910B1A078012806D0E07968B1F4
:10793000A078012801D0022808D1616B21B184F818
:10794000B1600820884701E084F8B15004F1AB0130
:1079500000200A5C0AB1304603E0401C0628F8D338
:1079600000204FF002084FF0030B012F06D0022F2A
:107970000CD0032F0FD0042F15D110E0A17929B11D
:1079800094F8241011B908B130460DE0E17911B135
:1079900008B1404608E0207A08B1584604E0607A11
:1079A00008B1042000E02846A070616B41B10328B3
:1079B00001D0042804D1607910B194F8B200A0B1CC
:1079C00084F8B35004F13C0018210746FEF767FD28
:1079D00004F12C0084F83C60814603F0CFFF58B1DD
:1079E00094F82C0084F8510008E084F8B45084F82E
:1079F000B36007208847E5E784F8516094F82400D5
:107A000050B1484603F0BAFF20B194F8280084F83A
:107A1000520001E084F8526084F85050A27804F1DA
:107A2000AA0104F194094FF0060A052A60D2DFE8A2
:107A300002F078030F223F0084F83160C4F8A450AC
:107A4000C4E9101584F83C808020A4F8480051E077
:107A500084F8318094F82420384612B1072202704D
:107A600001E080F800B0228A8281C4F8A45041600D
:107A7000E168B9603EE06069B860208BB88194F835
:107A800024003D4610B184F83CA001E084F83C603D
:107A9000204604F0DFFE40B185F814800421204622
:107AA00001F03DF820BB05211EE084F831B01DE057
:107AB000E069B860208CB88194F824003D4610B18C
:107AC00084F83CA001E084F83C60204604F0C2FE4B
:107AD00048B185F814800421204601F020F838B917
:107AE00084F831A002E0042184F83110C4F8A49095
:107AF000A07878B13A4604F15400D4F8A41072DFAB
:107B000000287FF405AF94F8301094F8540073DF28
:107B10000028F6D1616B11B194F83100884700203C
:107B2000F6E684F83150F5E770B5040012D001464E
:107B30001C221448FEF79AFC1248134D0560206879
:107B400050B17ADF002806D12068016829604068BA
:107B5000686005E00E2070BD0B487BDF0028FAD17D
:107B600008484FF6FF711438084A20F8041B0549ED
:107B7000343901600021FFF7EDFA0028EBD0032033
:107B800070BD0000AC300020E42A0020EDC70200E8
:107B900010B5044600F006F808B1204610BD1420C8
:107BA00010BD0000142801D3002070470146014891
:107BB00001F08DBCCC3000207CB5054608880C4611
:107BC0000930904201D90C207CBD68466DDF002849
:107BD000FAD121880820685420881B21401C80B2DB
:107BE000208029542088401C80B220802844DDF861
:107BF00001100160BDF8051081802088801D80B2D1
:107C000020809DF80010490800D0012129542088C7
:107C1000401C208000207CBDF8B5294D0288044618
:107C20006E88212A37D011DC26484FF00301102A34
:107C3000008801EB004013D0112A25D0132A29D146
:107C400000231A46852130467FDF17E03B2A32D0D9
:107C5000522A2AD0562A1DD18088132176DF0DE0C2
:107C600019A102F015FC072000F070FB08B1FFF726
:107C70003DFAA1886980174801F08CFD002809D0E1
:107C8000BDE8F840FFF732BA13A102F001FC4FF64D
:107C9000FF706880F8BD00200090A08869468FDFE3
:107CA0000028F7D0FFF722FAF8BD00231A4619463C
:107CB0003046B1DFE2E78088132176DFDEE700009F
:107CC000A02A00202C2C0020436F6E6E6563746523
:107CD00064000000482F0020446973636F6E6E6576
:107CE000637465640000000010B51A4C0188606878
:107CF00010290ED011292BD1401E606028D1FFF72A
:107D000042F9002824D02168002921D0BDE8104084
:107D10000847D0B900210122084600F0F5FA08B161
:107D200007280FD107220221012000F0EDFA08B147
:107D3000072807D104220221002000F0E5FA20B133
:107D4000072802D0216801B188476068401C606044
:107D500010BD0000DC2A00202DE9F04701883B4ED1
:107D600040F2F3194FF6FF7510291BD011293ED0B0
:107D7000122954D0502946D1C188F289841D9142DC
:107D800041D1618902293ED18688304600F08EFFBC
:107D9000050038D004F10C0000F076F9A8B32946AC
:107DA00030464EE0C17B8788044601292BD1A84686
:107DB000284600F07BFF050017D02F800020287296
:107DC000234843464A460168C5F80A104068C5F88A
:107DD0000E0004F1100105F10A0001F02BF86872A1
:107DE000F08900280FD129462AE0042013E080887A
:107DF00000F05CFF040006D06068FFF72DFA08B1C0
:107E000003F0B6FF2580BDE8F087FFE76868FFF75D
:107E100023FA0028F7D0BDE8F04703F0A9BF878810
:107E20000646384600F042FF0400ECD02B464A4696
:107E300006F1080104F10A0000F0FCFF607221461F
:107E40003846BDE8F04700F035BD0000AC300020FA
:107E5000E42A00202DE9F04F0746858802883D4836
:107E6000012197B08346102A09D0112A49D01A2A35
:107E70006CD1387AB1EB101F45D2012244E0354C69
:107E8000083CA068C0430B9061680BA801F040FB60
:107E90000B990CA800F0A8FC2C220CA96846FEF750
:107EA000E5FA0026E946A04610E000BF09EB4600CF
:107EB0005FF00004B0F804A008EB84005146001DF8
:107EC00001F0FAFA641C1D2CF6D3761C0098B0421F
:107ED000ECD8142D05D317B00420BDE8F04FFFF700
:107EE00005B92946584601F0FDFA294608F1040073
:107EF00001F0F8FAF87B012828D016482946001D21
:107F000015E029461AE000220221B1EB101F01D230
:107F1000012600E000260F49083901F11000041D78
:107F2000294682B101F0DEFA36B12946204617B063
:107F3000BDE8F04F01F0D6BA2946204617B0BDE89B
:107F4000F04F01F0B9BA01F0B7FAF5E717B0BDE8A4
:107F5000F08F0000D0300020F0B585B016460F46F7
:107F600004001D4614D004AA19466069FFF7CEFA32
:107F700000280BD1A5F57F40FF380BD0049848B1FD
:107F8000007848B13088F42808D9072005B0F0BD42
:107F90000E20FBE70520F9E70820F7E70020009016
:107FA000019002900390A088ADF8000001208DF8A8
:107FB0000200CDE9026769462846AEDFE6E7000029
:107FC00030B5144B0D4604000FCB85B08DE80F0083
:107FD0001DD0E5B12868A0612146684662DF00280F
:107FE00013D101208DF81200ADF81000A21C04A9D5
:107FF000A8DF002809D12946204603F0EAFD002821
:1080000003D12946204604F051F905B030BD0E20B9
:10801000FBE700004CCA020070B588B00446002996
:1080200024D0002C22D008462188102920D05029A5
:1080300024D057291AD10546A188406906AAFFF71E
:1080400065FA002812D1069E307800280ED018213B
:108050006846FEF724FA01208DF800000195A088FB
:10806000ADF808000396A9696846884708B070BD56
:1080700008B02146BDE8704003F066BB08B0214659
:10808000BDE8704003F038BC007800F00100704794
:108090000149085C7047000004CA0200084908B59D
:1080A000085C0090684601F05FFFD0F81005009969
:1080B000C84010F0010000D0012080F0010008BD90
:1080C00004CA02002DE9FC410646C0074FF0000536
:1080D0000ED0104F00240122385D00950023114678
:1080E000019501F057FE641C042CF4D300F04EF807
:1080F000B0070DD5074E0024361D0022305D032346
:1081000000951146019501F045FE641C042CF4D342
:10811000BDE8FC8100CA0200094908B5085C00906E
:10812000684601F021FFD0F80425009B0121994009
:1081300021EA0203C0F808351140C0F80C1508BD4B
:1081400000CA02000249085C012101F094BF00004E
:1081500000CA02000249085C002101F08CBF000047
:1081600000CA0200084908B5085C0090684601F0A2
:10817000FBFED0F804050099C84010F0010000D0C3
:10818000012080F0010008BD00CA020010B50024E3
:108190002046FFF7D7FF641C042CF9D310BD10B59F
:1081A00000242046FFF7D6FF641C042CF9D310BD31
:1081B00010B50246064B4FF0FF3000215C5C944244
:1081C00001D1084610BD491C0429F7D310BD000099
:1081D00004CA020070B5094E0C004FF00005306073
:1081E00005D0012000F064F808B10220207070680A
:1081F00010B9FEF7C8FE0546284670BDDC2A0020EF
:1082000010B5002000F0D4F908B1062806D10120ED
:1082100000F0CEF908B1062800D1002010BD000002
:108220002DE9F0470D468146FFF7C2FF04460428BA
:1082300036D2DFF874801B481C4EA8F10C0725B31A
:10824000012D0ED0022D2BD104EB44003044457893
:10825000002D25D0B968002922D02846BDE8F04776
:10826000084704EB4401755C0E44717849B10E4A2D
:108270004FF40041093A8068FEF7AAFF08B987F871
:108280000390B17808F80410E2E78068FEF7E4FF95
:1082900004EB4401314418F804008D78A842D7D08B
:1082A000BDE8F08708CA0200D82A00204C30002020
:1082B000042801D2FFF7F2BE0020704701461048A3
:1082C00010B54088042907D007290ED00A2915D1F6
:1082D000BDE8104003F0C0BD132176DF0CE000289C
:1082E0000CD0BDE81040FEF701BFA0F57F41FF397B
:1082F00004D10448FFF7E0FA0828F0D110BD0000CF
:10830000A02A0020542F002070B50023042810D28A
:108310000D4D00EB4004012A02D101290CD00022AE
:10832000094E00EB4000304461B1012906D002291A
:1083300006D00723184670BD0E30C2B22A55F9E7A1
:108340004270F7E78270F5E74C300020044A01469E
:1083500000201279D20702D0084600F04DB87047CD
:10836000CC2A002070B506461E480024C0E90161F1
:10837000B00720D50025012211462846FFF7C4FF8B
:108380006D1C0446042D02D2002CF4D013E094B9E5
:1083900040F2666204211448FEF72EFE04000AD162
:1083A000FEF718FE040006D10F48104A0021001FF6
:1083B000FEF7D0FE0446F00712D00120FFF782FE40
:1083C00074B909480A4A00210C38FEF7C3FE0400BC
:1083D00006D10548074A01210838FEF7BBFE0446CE
:1083E000204670BDCC2A002014CA02007D860200FF
:1083F000A98E0200CD6F02002DE9F05F6A4C0546A0
:1084000000266078B34618B184F801B000F034FD5E
:10841000664F4FF47A694FF4C87A4FF00108182D6F
:1084200062D2DFE805F0AC0C0C31404D62676B7432
:108430006B74BE7D7D7D7D7DACAFB2B5BEBE0020D0
:10844000FFF790FE00284FF0000008D0FFF77AFEFB
:10845000022D02D14FF4E16008E0484606E0FFF744
:1084600079FE022D01D1C82000E05046410CC00326
:108470004FF4FA72801841F1000125705200002378
:10848000FDF7B0FF01462AE00020FFF76BFE002851
:108490004FF0000004D0FFF755FE4FF44870E5E7B9
:1084A000FFF758FEDFE70020FFF75CFE00284FF0E3
:1084B000000002D0FFF746FECFE7FFF74BFED4E700
:1084C0000020FFF74FFE00284FF0000002D0FFF71A
:1084D00039FE01E0FFF73EFE257041F69A110022B9
:1084E0003868FEF775FE064646E00020FFF714FEEA
:1084F000257008E0002051E025703DE084F80180FF
:108500000120FFF709FE002240F6CD41E8E784F89C
:1085100001800120FFF700FE00224FF48041DFE7D9
:108520007868FEF799FE0646D5F1110000D02EB10D
:108530000220FFF707FE84F802B01DE0012816D9DB
:1085400080B2C8214843C117C90341EA5041C00362
:108550004FF4FA72801841F1000152000023FDF738
:1085600041FF014600227868FEF732FE06460220EF
:10857000FFF7F0FD84F802803046BDE8F09F00F080
:108580007BFCB9E700F078FCB4E700F075FC04E090
:1085900000F072FC0020FFF7DDFD0120FFF7DAFD9F
:1085A000AAE7FFF7FCFDA7E7CC2A002008CA0200D3
:1085B000012104F0EDB900002DE9F8430546861CC1
:1085C00000208DF8000090460F464FF001096846E4
:1085D000FEF7E8FE1B4C20683860D4E90001401A21
:1085E000A16804F21C47081A0EE00121384600F089
:1085F00089FF00F0EBFC0146384600F083FFD4E928
:108600000001401AA168081A401C8642EDD8B8F152
:10861000000F03D0052065F3891002E0062065F302
:108620009F50A2682168114004EB8101C860206856
:10863000304420609DF80000FEF7D8FE4846BDE8B3
:10864000F88300001435002030B482680468531C9D
:108650008360A154D0E901128A4202D330BC01F0F8
:108660000ABA30BC70470000034803C8814201D1F8
:108670000120704700207047143500200078022147
:10868000FFF7CEBD05494FF0FF32082841F8202002
:1086900002D3084480F8582070470000543100206D
:1086A000F0B54FF0FF3512B10023082601E0082392
:1086B0000C260C4C05E000BF54F823707F1C04D03E
:1086C0005B1CB342F8D32846F0BD26185DB286F88D
:1086D000305044F82310002AF5D1E11881F85800F1
:1086E000F1E70000543100200249084490F93000BD
:1086F000704700005431002070B5084C050009D0C7
:1087000010342168002907D008682060496828468D
:108710008847F6E70834F4E770BD000040310020D8
:10872000054A012120B1012805D19170FFF7E4BF6E
:1087300051700020FAE77047403100202DE9F05FCA
:1087400026484168F1B3DFF898B00E688146DBF83F
:10875000004087688078E11B21F07F45ED1CB0B9AF
:10876000DFF880804FF48030C8F84403C8F8040371
:108770001120FEF77DF91120FEF785F94FF0010A6F
:10878000C8F800A02F2002F0E5FA89F802A0B5424F
:1087900000D23546124BE8193C3320F07F40186078
:1087A000DBF800105A46091B21F07F41001B20F026
:1087B0007F40C91C81420FD9106818602F2002F039
:1087C000C9FA00E004E0BDE8F05F1120FEF766B9E9
:1087D000BDE8F05F03F0C6B9BDE8F09F302B002084
:1087E000041501400010014073B58CB0064600200E
:1087F00000900D9880B100246D4621460DA800F030
:1088000066FE30B1009805EB400084800098401C63
:108810000090641C142CF0D32C2269463046FDF7DE
:1088200025FE0EB070BD2DE9F04117880646B81D33
:1088300014460D46984202D90C20BDE8F0813188DB
:10884000072206290AD34FF4486C4FF6FF7361459F
:1088500001D9994202D17088062801D21046ECE76E
:10886000604501D99842F9D1994203D0984201D08C
:108870008142F3D80520E85520881221401C80B29F
:10888000208029542088401C80B2208041193088E3
:1088900003F04CFF2188084480B220804119708881
:1088A00003F044FF2188084420800020C5E7FEF73C
:1088B0001DBC000038B54A7A0F4B62B100220A7223
:1088C0005969002906D001228DF80020ADF8020078
:1088D0006846884738BD0A7A62B19B684C68024690
:1088E00019462046FEF774FC0028F3D0BDE8384056
:1088F00003F03EBA5B68F1E7AC300020F0B587B01A
:10890000074600200490ADF810100590ADF8121045
:108910000190029001AA04A9384690DF060022D0F7
:1089200002F0BEF9114C0346012520883A4605EBBA
:1089300000400F4901F0B7FDBDF8042012B9BDF8A1
:10894000060038B12088BDF8063005EB004009A1CB
:1089500001F0A9FDBDF808202AB12088154905EBD2
:10896000004001F099FD07B03046F0BDFC2B00201F
:10897000B0CD0200546865207265717565737465C9
:10898000642054582F5258207061636B6574206CBA
:10899000656E67746820697320746F6F206C6F6EEA
:1089A000672062792025752F2575206F63746574A3
:1089B000732E0000FCCD02002DE9F0470025DFF802
:1089C0008C803CE06068002100EBC5060120327815
:1089D0009146FDF738FDD4E9062300EA020701EAD3
:1089E000030C57EA0C0728D082438B434846C4E95E
:1089F000062302F06DFA327882469146012000216A
:108A0000FDF721FDD4E9042300EA020401EA03078B
:108A10004A4650460021FDF716FD44404F403C4376
:108A20000BD17078012801D0012100E0002172688B
:108A300081EA0A010AB1484690476D1CEDB298F8E8
:108A4000000044468542BDD3BDE8F087102B0020CE
:108A500010B50021024800F066FD80F3100010BD43
:108A6000303900200E4910B50A784C780023A24214
:108A700012D0521CD2B20A70022A00D10B70084ADE
:108A80000B780C3252F8232002608868104420F0E2
:108A90007F408860012010BD0360002010BD0000F1
:108AA000302B002030B50446006887B00D46806842
:108AB00000281FD018216846FDF7F1FC0195A06839
:108AC0000590207910B1012810D107E001208DF820
:108AD000000020690290E068039005E002208DF814
:108AE0000000E068000302906069049020688168DB
:108AF0006846884707B030BD826883881A4003689B
:108B00009A5C0A708168491C81607047C2688388DA
:108B10001A4003689954C168491CC160704770B518
:108B20000D460446B0F89810D0F894000122FEF7E4
:108B3000D2FD00B1057004F13C0204F1940104F18E
:108B4000540072DF70BD10B50446C0B2FEF700FCE1
:108B5000204610BD0B484A8843889A4211D10A88A2
:108B6000A2F52063773B0CD18988C91E8AB2828026
:108B7000054803211346008801EB004003A101F0E2
:108B800092BC7047A02A00202C2C00204461746104
:108B9000206C656E2069732073657420746F2030BB
:108BA000782558282564290010B50949094800F09E
:108BB0003BFD08B1FEF79AFAF721064800F028FDC0
:108BC000002803D0BDE81040FEF790BA10BD0000A9
:108BD000558B0200342F00202DE9F04180460246DB
:108BE00001200021FDF72FFC1A4F05460E4678683C
:108BF000FEF732FB00280CD1174CD4E906211046B1
:108C00002A4001EA06031A4305D0A843B143C4E948
:108C10000601BDE8F081404602F05AF930B1D4E9CE
:108C2000040128433143C4E9040105E0D4E90410F8
:108C3000A943B043C4E90410D4E9060128433143F1
:108C4000C4E90601A1687868BDE8F0410022FEF79A
:108C5000BFBA00006CCA0200102B00201FB5114AD9
:108C60000023D2E90601526ACDE900012A208DF8DD
:108C70000300FF208DF802002D208DF801002E202A
:108C80008DF800004FF00050029006480392064A0B
:108C90006946083000F04AFE002801D0FEF726FAA7
:108CA0001FBD000000CD020029BF0200014603489D
:108CB00002888A4200D000207047000098300020CF
:108CC0002DE9FC5F0E008346DDE90C47C6F100008C
:108CD00098469246814600D40846012503E000BF2D
:108CE00090FBFAF06D1C5045FADAA84500D94546CC
:108CF00024B1002E01DB780700D5641EB80702D529
:108D0000B8F1000F0AD0F80708D13CB1A54205D24E
:108D100020215846641EFFF797FCF6E7002E02DA82
:108D20004E462D2102E0780703D52B215846FFF748
:108D30008BFC07F0030002280BD1B8F1000F08D11B
:108D40003CB1A54205D230215846641EFFF77CFC99
:108D5000F6E7CDE90047434652463146584603F010
:108D6000EBFCBDE8FC9F000070B50D4604460068B2
:108D70004FF4887101F0B4FF4FF49071206801F056
:108D8000AFFF4FF49271206801F0AAFF4FF4A27177
:108D9000206801F0A5FF20681249C0F8041320687C
:108DA0006907000B40B2090E002806DA00F00F0038
:108DB00000F1E02080F8141D03E000F1E02080F8CD
:108DC000001420680121000B40B200F01F02914006
:108DD0004009800000F1E020C0F88012C0F80011C6
:108DE00070BD0000100302000246002012689307C5
:108DF00002D0530702D47047500714D502F0030085
:108E0000012802D002280CD105E0C2F383100B68C0
:108E1000801C184404E00223086803EB92521044BB
:108E2000086001207047086800EB9253C2F3891074
:108E3000401CEEE7F0B58488A518944200D822467D
:108E4000A41AC288D6189A4200D81346D21A4B8860
:108E50000788BB420CD34088834209D88888A04247
:108E600006D3A84204D8C888904201D3B04201D9A1
:108E70000020F0BD0120F0BD0A4810B5807860B137
:108E8000002401E0022C06D02046FFF75BF9641CA9
:108E9000042CF7D310BD0324F6E7BDE81040FFF71C
:108EA00075B90000CC2A002003480179C90702D017
:108EB0000078FFF7A1BA7047CC2A0020F721018083
:108EC00017214180002101714171FB2181711B211A
:108ED000C17170472DE9F047394E002780463D4665
:108EE000DFF8E090D6F804A057E003D00446D0F8AD
:108EF0001C8035E099F8002002EB4201521CD2B2EE
:108F000089F8002009EBC10199F80230091D9A4245
:108F100001D189F8005048680A780446012A12D025
:108F2000022A02D0032A3BD108E003F021F900B164
:108F30000127257434E00574C06900E070680028DA
:108F4000F9D170602CE0207C50BB88686060C868F4
:108F5000A0600869E0604869A061F07800B16560D0
:108F60006268B168184B501A20F07F40984202D2D4
:108F7000A168084406E0881AA16820F07F40814279
:108F800002D9081A206000E0256065600120A56014
:108F900020742046E56103F0CDF8B8F10000A4D1BB
:108FA00099F8001099F801008142A3D117B97168AE
:108FB000514502D00120BDE8F0870020FBE700000A
:108FC000302B002030320020FFFF7F002DE9FF41D1
:108FD0000026234800F093FA2148001F074600F0BE
:108FE0008EFA204C60680090A56800E00098694601
:108FF000284004EB80000C30FFF7F6FE0028F5D186
:1090000001AA009901EA050304EB8303491CDB680C
:1090100042F82030401C00910228F2D3019800F061
:10902000030001280BD0022810D10198032101EB85
:1090300090500099BDF80A6001EB900005E001989E
:10904000BDF80A60C0F3831008440090384600F071
:1090500053FA08B10098606004B03046BDE8F08172
:109060002C39002014350020ACB018227C49684609
:10907000FDF7FCF97B4806907B494FF48070CDE901
:10908000070109900723794A06A96846FEF70EF9F9
:1090900008B1FEF72BF84FF40041002001F062FA0E
:1090A00008B1FEF723F801F0D5F8FEF767F808B12C
:1090B000FEF71CF86E490320FFF754F908B1FEF7DC
:1090C00015F869460020FFF785F808B1FEF70EF89D
:1090D00001F066FB08B1FEF709F801F01BFD08B1CD
:1090E000FEF704F8002469460120009401F078FBA3
:1090F00008B1FDF7FBFF684601F01CFC08B1FDF765
:10910000F5FF9DF808005BA120F00F00401C20F047
:10911000F00010308DF808000D2202A87CDF08B1A5
:10912000FDF7E4FF00941020ADF800003C2001940E
:10913000ADF80200ADF804404FF4C870ADF8060079
:1091400068467ADF08B1FDF7D1FFFFF72DFD4D48E6
:10915000019001A94C4800F028FB08B1FDF7C6FFBB
:109160004A48009069464A48FEF72AFF08B1FDF7D1
:10917000BDFF8DF8AC40AC216846FDF790F90220A8
:109180008DF800008DF8024005208DF803002BA813
:1091900001900120ADF84C003D498DF87C00402045
:1091A000891F2290149144F25060239039482990ED
:1091B000354869460C30FEF7BDFA08B1FDF796FF59
:1091C000314801210C30FEF7B2FA1C216846FDF748
:1091D00066F94FF42030CDE900404FF47020029042
:1091E0002D48059003252D488DF80C500690ADF8BC
:1091F0000E408DF810406846FEF796FC08B1FDF76A
:1092000075FF27A0FDF784FE2A482BA1008805EBF7
:10921000004001F03DF91C4803210C30FEF769FBCA
:1092200008B1FDF763FF184800220C3090F8541085
:10923000012077DF08B1FDF759FF2C2000F03AFE3E
:109240002B2000F037FE064EC825083E4FF47A4723
:10925000741C3846A0476D1EFAD1FDF77BFAFEE775
:10926000E8C90200342D0020342E0020A1C30200E2
:10927000BD8202004C56474C5F6E72663532383400
:1092800030000000C9A70200482F002079B6020074
:10929000AC2A002009B702002DB70200AF880200F7
:1092A0000D0A5541525420737461727465642E0D19
:1092B0000A0000002C2C00204465627567206C6F4A
:1092C0006767696E6720666F722055415254206F40
:1092D0007665722052545420737461727465642EE2
:1092E0000000000070B5144682880E4605462088AE
:1092F000111D0144921C994201D8FE2A01D90C206B
:1093000070BD521C32542088FF21401C80B2208046
:1093100031542088401C80B220808119288803F0B5
:1093200005FA2188084480B22080AA8842B1A96841
:1093300041B13044FDF79AF82088A988084420807C
:10934000002070BD072070BD2DE9F047C788044696
:10935000181D16468946B0FBF7F1B0FBF7F207FB84
:1093600012009A193A44D21CB2FBF7F2DDF820A0A1
:1093700001E02468491E0029FBD13D1A8846B54208
:1093800016D818E0BAF1000F05D0211809EB080033
:109390002A46091D04E0204409EB08012A46001D65
:1093A000FDF764F800202468761BA844B74201D971
:1093B000354600E03D46002EE4D1BDE8F0870000D0
:1093C00030B5024659B101F0F9F80021074C09E027
:1093D00004EB810315685B88AB4202D11160002069
:1093E00030BD491C8142F3D3052030BDFC2B002049
:1093F000F8B50F46017814460546012901D1687871
:1094000030B12088821C9A422DD8012902D006E072
:109410000720F8BD69780144891C994223D8181A9D
:10942000801E86B2ADF800602188B81C08446946E9
:109430007DDF0028EDD12878022805D1BDF8001085
:10944000B14201D809210AE00821012805D1687834
:10945000B04202D8ADF8000001E0ADF80060BDF800
:109460000000FE2801D90C20F8BD2288401CB85409
:109470002088401C80B2208039542088401C2080E5
:10948000BDF80010084420800020F8BD10B50A88FF
:1094900049888A4203D1FCF7FFFE012010BD00205D
:1094A00010BD70B50C460546FCF7D9FE002802D069
:1094B00061882868084470BD01F01F0301229A40AA
:1094C000D243490900EB8100114600F021B84A0956
:1094D00050F8220001F01F0201219140084000D005
:1094E0000120704701F01F0301229A40490900EB57
:1094F0008100114600F01CB8002100F00FB80121D6
:1095000000F016B808B56A46FCF71BFF009808BDC6
:1095100008B56A46FCF7FBFE009808BD08B56A4628
:10952000FCF7F5FE08BD08B56A46FCF7D7FE08BD96
:1095300008B56A46FCF7DEFE009808BD08B56A4625
:10954000FCF70CFF009808BD38B5044600258DF8DF
:1095500000506846FDF726FF21686268086890425F
:109560000ED9401E08600178A38AE26801FB03253A
:10957000227A2168101AC0B20A79824200D2087198
:109580009DF80000FDF732FF284638BD38B5054686
:1095900000208DF800000C466846FDF703FFE868E0
:1095A000A98A201AB0FBF1F12A681068431C1360E5
:1095B00001709DF80000FDF719FF38BD10B530B1FE
:1095C000017A42680368891AC9B21A6006E00E205F
:1095D00010BD03681A68541C1C601170491EC9B282
:1095E000F7D2006800210171084610BDC20800F0E2
:1095F00007030120895C98400840704710B5C208F5
:1096000000F00703885C01249C402043885410BD6F
:1096100028B1A1F11702E12A03D3072070470E20D9
:10962000704701800020704710B560B10161F721DB
:1096300020F8021B20F8021BFB2100F8021BFFF799
:109640003DFC002010BD0E2010BD0000F0B5858847
:1096500093B00C46002D39D1018800263E4F2429B5
:109660003BD006DC102909D011290CD0232958D170
:109670004FE03A290BD0552953D129E00146204625
:1096800002F098F84DE0A01DFFF718FC49E02246D3
:10969000408934F8061F814200D8084660801728A8
:1096A00000D217206080106970B1607960B1D7E98D
:1096B0000001CDE90301ADF80E506088ADF810004F
:1096C000136903A9104698476671267113B0F0BD5F
:1096D0000146204602F0BEF823E0011D2C2206A818
:1096E000FCF7C4FEBDF81800BDF81C2004EBC00157
:1096F0004A732269AAB1D7E90423CDE90423ADF85E
:109700001200487B8DF814002269204604A9904776
:1097100007E0017A207B884200D201462846FFF705
:10972000EDF8A07A0028D1D0E1882846A5DF0125F0
:1097300070B11128CAD001F0B3FA0246074808A157
:10974000008813B005EB0040BDE8F04000F0A4BE77
:10975000A672E572BAE7000034CA0200FC2B0020B2
:1097600073645F626C655F67617474635F6578637F
:1097700068616E67655F6D74755F7265717565733D
:109780007428292072657475726E65642025732EA5
:109790000000000020B10278DE2A03D008207047C4
:1097A0000E20704741800020704760B159B10278A7
:1097B000DE2A0AD009684160DE2101704FF6FF7190
:1097C0004180002070470E207047082070477FB509
:1097D000054600294DD0002D4BD008780C46DE28D8
:1097E00047D1A8886188884202D1204603F03EF81C
:1097F0002888012825D002283BD011283AD05128AA
:1098000037D135F8040F6188884232D1A978A81C75
:1098100002292ED1017A042903D0062901D0052975
:1098200027D10021009102228DF8002001914FF4F0
:10983000C07202910391ADF80420007A05280FD080
:1098400010E0297A2046012913D1A9884288914243
:109850000FD10121017204B0BDE8704003F006B8D9
:10986000ADF8041028886946B0DF002801D061688F
:1098700088477FBDA88861888842FAD14FF6FF707B
:1098800060807FBD00F180400068002800D001208A
:10989000704708B500F18040002101600068009029
:1098A00008BD00002DE9F041040007D0044E4FF43C
:1098B0007A47751C3846A847641EFAD1BDE8F08186
:1098C00000CD020070B50B4C207808B185250FE063
:1098D0000020A06060602061E060074801F01CFA91
:1098E000054601F063F908B901F000FA0120207083
:1098F000284670BD403100202187020038B5002580
:109900008DF800506846FDF74DFD074CE068401E9D
:10991000E060E06810B901F00FFAA5709DF8000052
:10992000FDF764FD38BD0000403100202DE9FF4106
:109930001C460378164D174E45F82320103545F880
:109940002340F0CE8DE8F0000C788DF800404C7884
:109950008DF801408C788DF80240CC788DF803406A
:109960000C798DF805404C798DF806408C6802948E
:109970000C7B8DF80C40497B8DF80D1002B1064A26
:109980006946001D01F01EFB04B0BDE8F081000037
:10999000C03B0020ECCC020035BF02001FB5001D0B
:1099A000069C8DE81E000022694601F0D3FB04B03E
:1099B00010BD0000F0B505460478154889B016467C
:1099C00040F82420124A08690832A2F10C0742F834
:1099D0002400487F385520226846FCF747FD049450
:1099E0002878385C48B10EB10A4A00E00022694686
:1099F000281D01F033FD09B0F0BD0EB1064A00E0AC
:109A00000022694605F10C0001F0DEFBF3E70000DF
:109A1000F02A002009C60200B1C4020030B4037865
:109A2000054CE35C1BB130BC001D01F04DBD30BCEA
:109A30000C3001F033BC0000EC2A002030B4037875
:109A4000054CE35C1BB130BC001D01F0BFBD30BC58
:109A50000C3001F099BC0000EC2A00200FB408B5CE
:109A60000399002904D004AA00926A4600F00FF876
:109A700001B05DF814FB10B582680446002A05D0D9
:109A8000D4E90403216898470020A06010BD2DE9A7
:109A9000FC4791460C00804676D014F8011B39B182
:109AA00025290ED04046FEF7CFFD20780028F4D1BE
:109AB00098F80C00002867D04046BDE8FC47FFF747
:109AC000DABF0020012221782B291BD02D2902D0BA
:109AD000302908D102E040F0010001E040F002002E
:109AE000641C002AEFD100252A290ED02178A1F18B
:109AF00030020A2A11D205EB850201EB4205641CF3
:109B0000303DF1E740F00400EAE7D9F800100B1D02
:109B1000C9F800300968641C0D44217800232E29FF
:109B20000BD114F8011FA1F130020A2A05D203EB70
:109B3000830201EB4203303BF3E76C290DD0682927
:109B40000BD0692921D00BDC252918D0582931D018
:109B500063290ED0642915D117E014F8011FECE732
:109B6000702969D0732932D075291BD0782909D181
:109B700020E0D9F80000011DC9F800100178404626
:109B8000FEF762FD641C90E76CE0D9F800100A1D36
:109B9000C9F800200968CDE900500A224046FFF7C5
:109BA0008FF8EFE7D9F800100A1DC9F800200968FE
:109BB0000A2206E0D9F800100A1DC9F80020096839
:109BC0001022CDE90050404602F0B6FDDAE7D9F8A0
:109BD000001000270A1DC9F800200E68C00705D133
:109BE00012E04046761C7F1CFEF72EFD31780029DE
:109BF000F7D104E0202140466D1EFEF725FDBD4251
:109C0000C0D9002DF6D1BDE74EB13046FCF752FC6D
:109C1000074604E0202140466D1EFEF715FDBD42BB
:109C200006D9002DF6D103E04046761CFEF70CFD68
:109C300031780029F8D1A5E7D9F80000011DC9F84D
:109C40000010056830214046FEF7FEFC78214046B2
:109C5000FEF7FAFC08200021CDE90001034610229E
:109C60002946B0E7BDE8FC872DE9F04128B101683D
:109C700019B1C969BDE8F04108470D4D0D480024F0
:109C8000461B14270DE000BF04EB840005EB8000A9
:109C9000016829B1C969884710B10120BDE8F08188
:109CA000641CB6FBF7F0A042EED80020F6E70000F7
:109CB0000000000000000000044801214174007A07
:109CC00008B100207047012070470000F4330020E5
:109CD000012801D0032808D10449002201284A7430
:109CE00000D00020087401F0EDBE7047F43300206E
:109CF00070B50246022801D0032A45D1234C207AB0
:109D0000002841D0012833D0022831D12048002337
:109D1000022A006802D0032A2AD11BE0E3600179FD
:109D200011B1012924D10DE0D0E90565711B4FF473
:109D30008056B14200D33146294481614569A94228
:109D40000ED015E00169491C0161426991420FD1B1
:109D5000237213E0E168491CE160082908D9E36037
:109D60002372022A0AD00D21FEF79CFE01F0A0FE0C
:109D7000607C28B1BDE8704000F01EBF0021F3E711
:109D8000BDE8704001F09EBE70BD0000F4330020BD
:109D9000742B00202DE9FF411C46DDE90A781546A9
:109DA0000E46684600F0E0F846EA450141EA8401C3
:109DB00041EA072242EA0841009A00EB8200C0F81B
:109DC0000017BDE8FF812DE9FF411C46DDE90A7857
:109DD00015460E46684600F0D5F846EA450141EAC8
:109DE000840141EA072242EA0841009A00EB82001E
:109DF000C0F80017BDE8FF812DE9FF411C46DDE9F1
:109E00000A7815460E46684600F0CAF846EA45014B
:109E100041EA840141EA072242EA0841009A00EB44
:109E20008200C0F80017BDE8FF812DE9FF411C4604
:109E3000DDE90A7815460E46684600F0BFF846EAA6
:109E4000450141EA840141EA072242EA0841009AB9
:109E500000EB8200C0F80017BDE8FF812DE9FF414B
:109E60001C46DDE90A7815460E46684600F0B4F84F
:109E700046EA450141EA840141EA072242EA0841F3
:109E8000009A00EB8200C0F80017BDE8FF811CB506
:109E900000220B46009211460192FFF7ADFF1CBD58
:109EA0001CB500220B46009211460192FFF7BDFF40
:109EB0001CBD0000202802D24FF0A04102E004495E
:109EC00000F01F0001EB80000322C0F8002770475C
:109ED000000300501CB5002100910B4601220191A6
:109EE0001146FFF789FF1CBD1CB5002100910B46F0
:109EF000012201911146FFF798FF1CBD1CB50021FE
:109F000000910B46012201911146FFF7A7FF1CBDEE
:109F100013B50C46684600F035F8009900EB810156
:109F2000D1F8002722F44032C1F80027009900EB55
:109F30008100D0F8001741EA0441C0F800171CBDA9
:109F400001B5684600F048F8009A01219140C0F838
:109F50000C1508BD01B5684600F04CF8009A0121C7
:109F60009140C0F80C1508BD0168202902D24FF0BD
:109F7000A040704701F01F010160014870470000D8
:109F8000000300500168202902D24FF0A040704722
:109F900001F01F01016001487047000000030050FC
:109FA0000168202902D24FF0A040704701F01F0144
:109FB000016001487047000000030050016820293B
:109FC00002D24FF0A040704701F01F01016001482C
:109FD00070470000000300500168202902D24FF0B2
:109FE000A040704701F01F01016001487047000068
:109FF000000300500168202902D24FF0A0407047B2
:10A0000001F01F010160014870470000000300508B
:10A0100001B56846FFF7B6FFD0F810050099C840B3
:10A0200000F0010008BD01B56846FFF7B9FF009ACE
:10A0300001219140C0F8081508BD01B56846FFF739
:10A04000BDFF009A01219140C0F8081508BD01B577
:10A050006846FFF7C1FF009A01219140C0F808153A
:10A0600008BD01B56846FFF7C5FF009A0121914080
:10A07000C0F8081508BD38B501240090684631B114
:10A08000FFF772FF00998C40C0F8084538BDFFF714
:10A090006BFF00998C40C0F80C4538BD1CB5094CCD
:10A0A0000144D4E90034CDE900346C4606E000BF39
:10A0B00054F82030D3F81035401C08C28142F7D83C
:10A0C0001CBD00005CCA0200034908B50844002119
:10A0D00001600068009008BD0060004002494058DF
:10A0E000012800D0002070470060004030B5124BBE
:10A0F00001460020D3F81044224609E0157A854233
:10A1000005D1401C0A28F7DB4FF0FF3030BD526804
:10A11000002AF3D1421CF9D00872D3F810242AB1D6
:10A1200052684A60D3F81024516030BD0022C3F851
:10A1300010144A6030BD0000143500207047FCF751
:10A1400007BD704708B5034A00924023024A00F059
:10A1500005F808BD81BD020014340020F0B595B0AB
:10A160001C4615460F4608461A9E00F0F7FA1821BD
:10A1700009A8FCF794F90E96CDE9095400230822AA
:10A1800003A9384600F0FFFA05980690BDF81000C4
:10A19000ADF81C00BDF81200ADF81E0000208DF8CF
:10A1A00021000398082600F00300012802D00228AD
:10A1B00018D032E003983346850AC0F3C2008DF808
:10A1C000200003980FA9C0F38314A200384600F0C2
:10A1D000DAFA09A8009006AB22460FA9284600F03B
:10A1E00019FA1AE00398840DC0F3C2008DF820001C
:10A1F000082C01D2254600E0082533462A460FA93F
:10A20000384600F0C0FA2E44641B09AB06AA294662
:10A210000FA800F051F9002CEAD1384600F0A4FA5A
:10A2200015B0F0BD0A4A012902EBC00007D002298F
:10A2300007D0032907D0042907D000207047022047
:10A2400070470420704700797047407970470000DC
:10A2500048D5020010B5FFF772FF04210348FFF74D
:10A2600045FF02490120487210BD00008C2B0020E0
:10A270002DE9F04F8DB0FEF7F7F918B100200DB0C1
:10A28000BDE8F08F7A4C4FF0000BC4F818B4BFF360
:10A290004F8F60680290A568D846284004EB800084
:10A2A00008E021680298814201D86160E6E7284011
:10A2B00004EB80000C3002A9FEF796FD0028F0D1D7
:10A2C00005AA029901EA050304EB8303491CDB6834
:10A2D00042F82030401C02910228F2D3059800F089
:10A2E0000300022802D001284ED0A9E00598502290
:10A2F000810D8946B2EB905F00D850210E4666F37F
:10A300009F50059008315B4800F0DFF9070079D0D5
:10A3100000F024FA4346082205A9384600F039FA2D
:10A32000029908F1080A2940681A8000001D864237
:10A3300023D94F4D0C3530B1C2B204EB8101301A34
:10A3400090460C3104E02946F2B20025904628469A
:10A35000C6B25346384600F01CFA0AEB08032DB18A
:10A36000324629464FEA070000F013FA029909F134
:10A37000030001EB900002903BE004EB81015346A7
:10A38000324638460C31EFE70598C0F383100628B3
:10A3900000D30620059960F38911C1F38310801C56
:10A3A00005918100334800F090F9070048D000F093
:10A3B000D5F94346082205A9384600F0EAF908F124
:10A3C000080800260FE00298434600EA0501401CF9
:10A3D00004EB81010290042238460C3100F0D9F9D7
:10A3E00008F10408761C0598C0F38310B042EAD83F
:10A3F00047B1D4F81054D4F8180468B1384600F0C6
:10A40000B3F92FE01CE0687A012804D12A682846B5
:10A410003946126890476D68002DF4D1384600F037
:10A42000A3F98DF800B06846FCF7BCFFD4F8180417
:10A4300008B9029860609DF80000FCF7D7FF11E0B2
:10A44000D4F8104404E0216820468968884764688D
:10A45000002CF8D108480221008801EB004007A138
:10A4600000F016F8FEF700F980F0010007E70000A1
:10A4700014350020D0D502002C2C00204261636BE3
:10A48000656E647320666C75736865640000000017
:10A4900000231A4601F0C8BD08B5012300926A46A0
:10A4A00001F0C2FD08BD1CB5CDE9002302236A46B8
:10A4B00001F0BAFD1CBD00002DE9F0470E468046B4
:10A4C0001C46924608293ED894F80C900020207330
:10A4D0001946104601F094FA0025B54206D218F844
:10A4E00005201AA12046FFF7B9FA03E019A120467A
:10A4F000FFF7B4FA6D1C082DEFD317A12046FFF724
:10A50000ADFA0025B54210D218F80570FBF7AAFF86
:10A510000068C05D10F03E0F01D03A4600E02E22E8
:10A520000EA12046FFF79AFA03E00DA12046FFF79F
:10A5300095FA6D1C082DE5D301222146504601F005
:10A5400041FA84F80C90BDE8F087000020253032F5
:10A5500078000000202020007C000000256300001F
:10A5600020000000104810B5FF218160002101602B
:10A570004160C0F81814C0F8141480F820140B4877
:10A5800000F0F0F800280DD109480A490A4B401A9A
:10A59000C108002003E000BF23F82000401C8842CF
:10A5A000FAD3002010BD000014350020D0D50200E1
:10A5B000D0D5020048D50200FC2B002002480349F8
:10A5C000401AC00870470000D0D5020048D50200EC
:10A5D00013B56846FEF7F4FE08B100201CBD024822
:10A5E000009950F831001CBD48D5020070B50848EC
:10A5F0000125D0F8104480F8205405E065722168E8
:10A600002046496888476468002CF7D170BD000077
:10A61000143500202DE9FF4781460C9D00200C4693
:10A620002F7B2873984616462946184601F0E8F90C
:10A63000072E42D2DFE806F004090F161F2A360063
:10A6400049462846FFF70AFA37E049462846226875
:10A65000FFF704FA31E0D4E9002349462846FFF722
:10A66000FDF92AE0A0680090D4E900234946284675
:10A67000FFF7F4F921E0D4E90201CDE90001D4E9C2
:10A68000002349462846FFF7E9F916E004F10800DF
:10A6900007C88DE80700D4E9002349462846FFF79C
:10A6A000DDF90AE004F108000FC88DE80F00D4E9D5
:10A6B000002349462846FFF7D1F9002229464046A3
:10A6C00001F080F92F73BDE8FF872DE9F041858AFD
:10A6D00080462D1F4819C01CB0FBF5F0C6B240469D
:10A6E000FEF732FF041E19D0002020710120607196
:10A6F000E58000272546761EC4F800800BE0404622
:10A70000FEF722FF60B16179491C6171286005463E
:10A710007F1CC0F80080B742F1D32046BDE8F0812D
:10A72000204600F002F80020F8E72DE9F0414579D5
:10A7300001466B1E002201E00968521C9A42FBD3BD
:10A740000F680146002605E038460C68FEF71EFF3C
:10A750002146761CAE42F7D3BDE8F0810121001DF1
:10A76000FEF7D0BEFEF72ABF10B504460121001D3A
:10A77000FEF7E4FE10F0FF0F04D12046BDE81040C4
:10A78000FFF7D3BF10BD38B501240094FEF7DCFD00
:10A7900038BD38B500240094FEF7D6FD38BD000062
:10A7A000064910B500204870091D0860BFF35F8F8F
:10A7B0000349044800F02CFA002010BD7C2B002037
:10A7C000E0CA020008340020FCF790BC20B1034925
:10A7D00009680160002070470E207047C0CC02005D
:10A7E0002DE9FE4306460D460846FFF7EFFF002819
:10A7F0007ED18046CDF80080CDF80480012406206B
:10A800008DF80060ADF80400CDF808808DF80240A6
:10A81000694620202A6869DF3F4F40B100F040FAC6
:10A82000024638883D4904EB0040FFF735FECDF87D
:10A8300000808DF801408DF80280CDF80480CDF8BD
:10A8400008808DF80380694640202A6869DF40B19E
:10A8500000F026FA02463888314904EB0040FFF741
:10A860001BFECDF800808DF80060F720ADF80200E7
:10A87000CDF80480CDF80880694623202A6869DF76
:10A8800040B100F00DFA02463888264904EB00403A
:10A89000FFF702FECDF80080CDF80480CDF80880E7
:10A8A0008DF800404646694601202A6869DF40B1BC
:10A8B00000F0F6F9024638881B4904EB0040FFF728
:10A8C000EBFD4FF4B0600090019602966946A1201E
:10A8D0002A6869DF40B100F0E3F90246388813497D
:10A8E00004EB0040FFF7D8FD00960196029600E0C9
:10A8F00010E08DF800606946A0202A6869DF40B149
:10A9000000F0CEF902463888094904EB0040FFF711
:10A91000C3FD0020BDE8FE83342C00209CD3020040
:10A92000E4D3020030D40200FCD2020048D302007B
:10A93000A8D202002DE9F0410446D0F8008060DF83
:10A940002168194D074641451CD92888022606EB87
:10A95000004016A1FFF79CFD2888424606EB004008
:10A960001EA12368FFF79FFDF006D0F80C012168B7
:10A97000800200F10050421A288825A106EB004011
:10A98000FFF78AFD012467B1384600F089F90246D5
:10A9900028882AA104EB0040FFF77EFD3846BDE879
:10A9A000F0812E480470F9E7342C0020496E73754D
:10A9B0006666696369656E742052414D20616C6CF6
:10A9C0006F636174656420666F72207468652053DC
:10A9D0006F66744465766963652E00004368616E36
:10A9E0006765207468652052414D207374617274EC
:10A9F000206C6F636174696F6E2066726F6D2030BA
:10AA000078257820746F20307825782E000000009B
:10AA10004D6178696D756D2052414D2073697A657D
:10AA200020666F72206170706C69636174696F6E0B
:10AA300020697320307825782E00000073645F62EF
:10AA40006C655F656E61626C65282920726574753E
:10AA5000726E65642025732E00000000EB2B002031
:10AA600030B51548ADF5017D0078002821D04FF4B0
:10AA7000FA7500BFADF8005280A9684661DF38B1B1
:10AA8000052816D00DF5017DBDE83040FCF72EBB42
:10AA90006C460A497DA800F0BBF806E0D0E9002129
:10AAA000204690477DA800F0CAF87F980028E1D0A2
:10AAB000F4E70DF5017D30BDEB2B0020C4CC020086
:10AAC000F8B5134C2078C0B10120A07001F022F934
:10AAD000112814D0022001F035F900258DF800501E
:10AAE0006846FCF75FFC11DF064625709DF8000004
:10AAF000FCF77CFC2EB13046F8BD0820F8BD0020E4
:10AB0000F8BDA57001F0C8F9032001F01BF9F6E7C4
:10AB1000E82B00207CB5194C207808B108207CBDBA
:10AB20000120A070002001F0F5F8112819D00020B4
:10AB300001F008F912480026006801908DF80060C5
:10AB40006846FCF72FFC0F4901A810DF05000AD06A
:10AB5000002020709DF80000FCF748FC2DB128462D
:10AB60007CBD00207CBD0120F3E7A670667001F07B
:10AB7000AFF9012001F0E6F8F3E70000E82B002030
:10AB800058CC0200717002000EB50749684600F00B
:10AB90003FF805E0D0E900108847684600F04FF81C
:10ABA00002980028F6D10EBD74CC0200014800784E
:10ABB00070470000E82B00200548817819B1007823
:10ABC00018B1FFF77DBF08207047FFF7A3BF000053
:10ABD000E82B00201FB568464BDF30B1052814D0A4
:10ABE00004B0BDE81040FCF781BA084901A800F0A4
:10ABF0000FF806E0D0E900210098904701A800F086
:10AC00001EF803980028E6D0F4E71FBDE0CC020050
:10AC1000016009684160AFF3008010B5D0E9002100
:10AC20005368994201D1002104E0D1E90034A342E4
:10AC300002D01946816010BD08314160F0E781689B
:10AC400000290BD0026892680A44826041684B6810
:10AC50009A4203D108314160FFF7DFBF7047405887
:10AC6000002800D0012070470C4A10B502F59473FB
:10AC70000EE0991AC91001EBD171491002EBC10124
:10AC80000C68844201D90B4602E005D201F10802AA
:10AC90009A42EED3002010BD486810BD00CB0200E0
:10ACA00000B5FFF7E1FF002800D1014800BD00001A
:10ACB000ECCA02004058002800D00120704708B5B7
:10ACC000002242504058009008BDD0F804030840CC
:10ACD00000D0012070474058002800D00120704764
:10ACE00008B5002242504058009008BD084800684E
:10ACF000012110F0010F08D14FF0E020E02280F890
:10AD00000024C0F88012C0F80011024801607047AA
:10AD100000E100E0180500400649024600200B79DA
:10AD20000BB1852070470A6001220A7100224A7126
:10AD300070470000002B00200449012008600448EF
:10AD40000168C1F300410029FAD170470C000040AE
:10AD500018040040002802D00149800108477047CC
:10AD600081CA02002DE9F0410E46804600F012FE35
:10AD7000204D0028404616D0FDF7B6FC284490F838
:10AD800058008009032802D001280AD003E0404679
:10AD9000FFF73EF928B103214046BDE8F041FFF737
:10ADA000B7B80221F8E700F001FE002820D04046A5
:10ADB000FDF79AFC0446104F4FF4807007EB8401B6
:10ADC00000EB8400D1F8102580B242F00102C1F8F6
:10ADD0001025FFF779F9002E0AD04046FDF784FCD4
:10ADE00055F82000002803D00120A040C7F8040334
:10ADF000BDE8F08154310020006000402DE9FC41A5
:10AE0000DFF8C080044608EB0400002790F930000A
:10AE10001346C0170E46401C01D008274FE0B078FB
:10AE20001946C0F340022046FDF73AFC0546401C97
:10AE300044D0B07841071CD4C0070DD068460094B8
:10AE4000FFF7A0F8009900EB8100D0F8001721F07F
:10AE50000201C0F8001707E0002173782046009136
:10AE60000A460191FEF7AFFF164920466431FEF70E
:10AE7000C5FBB078800718D51348317800EB850002
:10AE8000D0F81025114B1A40C0F810254FF47C5211
:10AE90004FF4403302EA042203EA01410A43D0F8A6
:10AEA00010150A43C0F8102509E008EB05003278B8
:10AEB00010F8581F41EA8211017000E0042738465B
:10AEC000BDE8FC815431002000600040FFC0FCFF61
:10AED00010B5FFF79DF8002800D0012010BD00003C
:10AEE00070B5194D95F86A0008B1082070BD0020B2
:10AEF000411E2A18401CC0B282F830103028F8D306
:10AF000000242046FDF7BEFB641CE4B20C2CF8D3F1
:10AF10000D490024E0204C66A1F868400B4981F8F7
:10AF2000000401264020891FC1F88002C1F80001F9
:10AF30004FF4BE70FFF7C8F80549F007C1F80403E5
:10AF400085F86A60204670BD5431002006E000E0BC
:10AF500000600040034890F86A00002800D00120FB
:10AF600070470000543100200121B1EB507F01D126
:10AF700001207047002070470121B1EB507F01D1C3
:10AF8000012070470020704738B50D4600F084FD61
:10AF9000040014D000208DF800006846FCF702FA87
:10AFA000207928B19DF80000FCF720FA112038BD67
:10AFB0000120256020719DF80000FCF717FA0020A1
:10AFC00038BD00002DE9FC5F0C4601799046DFF8A2
:10AFD0007CB101EBC1020BEB82060746307F99463C
:10AFE00010B10820BDE8FC9F594A3868054652F860
:10AFF0002110FFF7C9FF08B11120F3E7C6E9008966
:10B00000207B0128207802D8FEF79AFF01E0FFF7A5
:10B010001EF84FF0000ACDF800A0CDF804A020786B
:10B02000534652460121FEF719FF60784FF0FF3872
:10B03000FF2806D08146FEF783FF4846FEF75EFFF5
:10B0400000E0C146A078FF2809D0002280460123F5
:10B05000CDF800A01146CDF804A0FEF7FFFE387928
:10B06000A17800EBC0020BEB820080F82010E078A2
:10B07000FF2817D0217911B1FEF762FF01E0FEF73A
:10B08000E6FFE078FEF73AFF3879E17800EBC0029E
:10B090000BEB8202D1773A79217902EBC2020BEBFA
:10B0A000820081772278C5F80825C5F80C95C5F887
:10B0B0001085A068C5F82405217B607B00B10120C4
:10B0C000012904D0022905D0032908D105E040F068
:10B0D000020004E040F0040001E040F00600C5F882
:10B0E0005405A079C5F8C005306810B14020C5F8F6
:10B0F00004030720C5F800053068012108B338684B
:10B100006279000B40B200284FEA421206DA00F0E2
:10B110000F0000F1E02080F8142D03E000F1E020A2
:10B1200080F800243868000B40B200F01F0301FAD9
:10B1300003F24009800000F1E020C0F88022C0F84E
:10B140000021504686F81DA031774BE7E03B0020F8
:10B15000FCCC02002DE9F04105460F460079154967
:10B1600000EBC00001EB80041646607F10B1112097
:10B17000BDE8F081206820B116F0140F01D1012044
:10B18000607797E80F0004F10C0888E80F00E07F73
:10B19000FF2806D0A17F11B1FEF759FF01E0FEF7AD
:10B1A000CFFE33463A4621462868BDE8F04100F01C
:10B1B000DDBE0000E03B00200149024801F090B9EB
:10B1C000C0310020002000402DE9F0410546007903
:10B1D00016460F4600EB40012D4A01EBC00102EB81
:10B1E000810494F82A1011B10820BDE8F0812949A2
:10B1F00051F820102868FFF7C7FE08B11120F4E7C6
:10B2000039462846FCF70CF9666038692060300042
:10B210004FF001062FD03F7F4FF48E712868FFF763
:10B220004EFD4FF4A2712868FFF749FD28681A49BE
:10B23000C0F8041328684FEA4711000B40B20028F9
:10B2400006DA00F00F0000F1E02080F8141D03E0A2
:10B2500000F1E02080F800142868000B40B200F0F4
:10B260001F0206FA02F14009800000F1E020C0F858
:10B270008012C0F8001128680421C0F800150020D1
:10B28000A061E06184F8290044F8140FA675ACE7CA
:10B29000C031002064CA0200800002002DE9F05F86
:10B2A000054600794FF4017600EB400303EBC00044
:10B2B000344B03EB80040020636813B12B68C3F8A0
:10B2C0000863A3694FF000096BB1E06938B16068A9
:10B2D00010B12868C0F804631120BDE8F09FE26156
:10B2E0000120216105E0C4F82490A261E160C4F866
:10B2F0001C9094F82910014302D1284600F0D1FC9B
:10B3000060680028286803D0C0F804630020E4E7E0
:10B310004FF4A2763146FFF7D2FCB2464FF4927B4F
:10B3200059462868FFF7C6FC06464FF48471286822
:10B33000FFF7C0FC804651462868FFF7BBFC074674
:10B3400048EA07003043EBD056EA070007D1214610
:10B35000286800F025FCA169606A8142E0D8C4F841
:10B3600018900EB10320B8E70FB10F20B5E794F89D
:10B37000291001200029296801D00860C6E748602B
:10B38000C4E70000C03100202DE9F04705460079F0
:10B390000B4600EB400101EBC000234901EB8004A8
:10B3A000284600F043F810B11120BDE8F0874FF0B7
:10B3B0000008C4F82080A360626184F828804FF4FC
:10B3C0008E76474631462868FFF779FC28684FF0AB
:10B3D0000109C0F808902146286800F057FF60680E
:10B3E00000BBD5F800A00EE094F8280008B10F27A4
:10B3F00016E031465046FFF75DFC0028F4D02146A8
:10B40000504600F043FF216A60698142F1D3314622
:10B410002868FFF74FFC0028F9D02868C0F80C9086
:10B42000C4F814803846C0E7C0310020007900EB32
:10B43000400101EBC000044901EB80004069002895
:10B4400000D0012070470000C031002001490248AF
:10B4500001F0F2B8EC310020002000402DE9F0416D
:10B460000546164600790F46154A00EBC00102EB6F
:10B47000810494F8201011B10820BDE8F081114931
:10B4800051F820102868FFF77FFD08B11120F4E77C
:10B4900039462846FBF7FFFF6660386920601EB119
:10B4A000397F2846FDF760FC28680821C0F80015A0
:10B4B0000020A061E0610121606184F82010DCE7D8
:10B4C000EC31002068CA02002DE9F05F04460079E3
:10B4D0000E4600EBC001DFF8F0A017460AEB81052D
:10B4E0003046FFF741FDB0B168684FF000084FF4F7
:10B4F000047910B12168C1F80893A8694FF0000BD6
:10B5000080B1E86948B1686810B12068C0F8049358
:10B510001120BDE8F09F1020FBE7EF614FF001081C
:10B520002E6102E0EE60C5E9067B00254FF48871CC
:10B530002068FFF7D5FB4FF4A2712068FFF7D0FB1E
:10B540002068C0F83465C0F838752068B8F1000F7D
:10B5500012D0D0F8001241F02001C0F8001220797A
:10B56000D04600EBC0010AEB8100406838B120688A
:10B57000C0F804932846CCE701210160EFE74FF4BF
:10B58000887A4FF4A27951462068FFF7A4FB07465A
:10B5900049462068FFF79FFB06464FF492712068EA
:10B5A000FFF799FB014647EA06000843EBD02279F2
:10B5B00002EBC20308EB8302C2F818B001B1032505
:10B5C000002ED7D00F25D5E7EC3100202DE9F0472C
:10B5D00004460E460079204900EBC00001EB8005CF
:10B5E00017463046FFF7C0FC30B1204600F036F871
:10B5F00020B11120BDE8F0871020FBE76F61AE603D
:10B600004FF49076002731462068FFF769FB4FF42E
:10B61000AC7841462068FFF763FB2068AA68696937
:10B62000C0F84425C0F84815206801218160686889
:10B6300078B9B14649462068FFF74DFB06464146BA
:10B640002068FFF748FB0643F4D000B10F27002025
:10B6500068613846CEE70000EC31002000790549EA
:10B6600000EBC00001EB80004069002800D0012001
:10B6700070470000EC3100202DE9F04105460078CC
:10B68000002826D10026144F4FF0010812E0286947
:10B69000805DFBF75DFE04000BD0112CF7D03988DC
:10B6A000224608EB01400DA1FEF7F6FE2046FBF70F
:10B6B0001DFD761CA88AB042E9D8A98A28690844E9
:10B6C00010F8010C0D2804D10A20FBF741FE1128C7
:10B6D000FAD0BDE8F08100002C2C00204661696C96
:10B6E000656420726563656976696E67204E55539F
:10B6F000206D6573736167652E204572726F7220CD
:10B70000307825782E20000010B550B103280CD1D8
:10B710000220FCF71BFE002807D0BDE81040FBF715
:10B72000E5BCBDE8104000F097BB10BD00780028D4
:10B7300007D104483B21408876DF002801D0FBF781
:10B74000D5BC7047A02A0020F0B58BB0002601962A
:10B750000D4604468988406901AAFBF7D7FE0AA86E
:10B76000CDE908600227ADF82070ADF82260218A8B
:10B77000A88808AAADDF002819D1A069002816D032
:10B780000998FCF781FC002811D0019E0EB1012020
:10B790003070182102A8FAF782FE8DF80870039421
:10B7A000A888ADF810000596A16902A888470BB0DB
:10B7B000F0BD000070B58D88027900EBC5042273DE
:10B7C000C97BA41D012902D0022904D101E000880F
:10B7D00000E0408820802188608881420FD9284677
:10B7E000A5DF0126A0B1112814D0FFF759FA0246AF
:10B7F0000A480BA1008806EB0040FEF74DFEA17938
:10B80000E079814208D92846BDE87040FDF776B856
:10B810006671F4E72671F2E770BD0000FC2B002092
:10B8200073645F626C655F67617474635F6578639E
:10B8300068616E67655F6D74755F7265717565735C
:10B840007428292072657475726E65642025732EC4
:10B85000000000007CB506468D88C88806EBC5044C
:10B86000A41D172800D217202188814200D808463D
:10B8700060800020207121882846B5DF50B1FFF795
:10B880000FFA02460E480121008801EB00400DA18D
:10B89000FEF702FE6079002810D1306900280DD033
:10B8A0001449D1E90201CDE90001ADF802506088E8
:10B8B000ADF8040032696946304690477CBD00000F
:10B8C000FC2B002073645F626C655F676174747346
:10B8D0005F65786368616E67655F6D74755F7265DB
:10B8E000706C7928292072657475726E65642025E4
:10B8F000732E000034CA0200F0B587B00C4605462E
:10B900008E1D8988406906AAFBF700FE182168464B
:10B91000FAF7C5FD0195A088069AADF808000392D4
:10B9200031882B89002704F11200994202D17389D2
:10B93000022B0DD0AA8991421ED1A96900291BD0E2
:10B940008DF8007004907089ADF81400A96911E0B9
:10B95000002A11D0FCF798FB20B10699012008704D
:10B96000022002E00698077003208DF80000A96904
:10B97000002901D06846884707B0F0BD006801285B
:10B9800005D0022803D0042801D0002070470120F0
:10B99000704700000449084490F93000082801DB92
:10B9A00001207047002070475431002004490844AA
:10B9B00090F93000082801D201207047002070471C
:10B9C0005431002010B50C46017A052908D0407A80
:10B9D00038B1084808A102682046FEF73FF800E0A9
:10B9E0001AB106A12046FEF739F82046BDE81040FE
:10B9F000FEF741B8C42B0020257300000D0A00009B
:10BA000038B5C3880D46044633B114A0009015A282
:10BA100016A12846FEF722F8217A05291CD0607A63
:10BA200048B1A088FEF7FEFB164951F8202016A168
:10BA30002846FEF713F8A0880021FEF7C9FD03464B
:10BA40001049207A143951F8202001B02846BDE869
:10BA500030400EA1FEF702B838BD00001B5B306D10
:10BA6000000000001B5B313B33316D0025734C6FD0
:10BA700067732064726F70706564202825642925BF
:10BA8000730D0A00C42B0020257300003C25733E73
:10BA90002025733A200000000349884201D1034861
:10BAA000704700207047000000200040082B002055
:10BAB000034802490068FDF7E9BC0000782B00202C
:10BAC000B8CA02002DE9F041234C0025234E207A0C
:10BAD000012730B92248311D0068FDF7E2FC3060D3
