:020000040002F8
:10600000A05B0020C1630200C9630200CB630200F1
:10601000CD630200CF630200D163020000000000E4
:10602000000000000000000000000000D363020038
:10603000D563020000000000D7630200D9630200AC
:1060400039670200DB630200356B0200DB6302008C
:10605000DB630200DB63020071650200DB630200A8
:10606000DB630200DB630200DB630200DB63020030
:10607000DB630200DB630200DB630200DB63020020
:10608000DB63020091670200DB630200DB63020056
:1060900015680200DB63020019680200DB6302007E
:1060A000DB630200DB630200DB630200DB630200F0
:1060B000DB630200DB630200000000000000000060
:1060C000DB630200DB630200DB630200DB630200D0
:1060D000DB630200DB630200DB6302000000000000
:1060E00000000000000000000000000000000000B0
:1060F00000000000000000000000000000000000A0
:10610000000000000000000000000000000000008F
:10611000000000000000000000000000000000007F
:10612000000000000000000000000000000000006F
:10613000000000000000000000000000000000005F
:10614000000000000000000000000000000000004F
:10615000000000000000000000000000000000003F
:10616000000000000000000000000000000000002F
:10617000000000000000000000000000000000001F
:10618000000000000000000000000000000000000F
:1061900000000000000000000000000000000000FF
:1061A00000000000000000000000000000000000EF
:1061B00000000000000000000000000000000000DF
:1061C00000000000000000000000000000000000CF
:1061D00000000000000000000000000000000000BF
:1061E00000000000000000000000000000000000AF
:1061F000000000000000000000000000000000009F
:10620000DFF80CD000F076F900480047918D0200CD
:10621000A05B002030B450E8012F93B2C48923441E
:106220008489A34228BF1B1B0489A34202BFBFF37A
:106230002F8F002007E0C3EA020340E80134002C5E
:10624000E9D14FF001000A6030BC704750E8012FDF
:10625000C2EA024240E801210029F7D1704730B478
:1062600050E8022F1FFAA2F3C488A34202BFBFF373
:106270002F8F00200DE0C48923448489A34228BFC6
:106280001B1BC2EA034340E80234002CE8D14FF064
:1062900001000A6030BC704750E8022FC2EA224277
:1062A00040E802210029F7D17047034653E8022F46
:1062B000D988B2EB324F4FF0000017BF92B241EADB
:1062C000014142EA014104E05A68B2EB324F08BF93
:1062D000012043E80212002AE8D1704730B4044696
:1062E00054E8000F0D4644E80053002BF8D1156028
:1062F00030BC704730B4044654E8000F40EA010552
:1063000044E80053002BF7D1156030BC704730B41F
:10631000044654E8000F00EA010544E80053002B4E
:10632000F7D1156030BC704730B4044654E8000F14
:1063300080EA010544E80053002BF7D1156030BC1A
:10634000704730B4044654E8000F00EB010544E800
:106350000053002BF7D1156030BC704730B40446B1
:1063600054E8000FA0EB010544E80053002BF7D1DF
:10637000156030BC704770B404464FF0000054E81C
:10638000006F0D68AE4207BF44E80023012044E8D7
:1063900000630E60002B1CBF0020F0E770BC70474C
:1063A00030B4044654E8000F88422CBF451A054615
:1063B00044E80053002BF5D1156030BC7047000055
:1063C0000648804706480047FEE7FEE7FEE7FEE78F
:1063D000FEE7FEE7FEE7FEE7FEE7FEE71D680200D8
:1063E000016202002DE9F05F0546002092469B46BF
:1063F00088460646814640241BE0284641464746DB
:10640000224600F067F853465A46C01A914110D30D
:1064100011461846224600F016F82D1A67EB0108BF
:106420004F4622460120002100F00DF817EB00092D
:106430004E41201EA4F10104DFDC484631462A46C5
:106440004346BDE8F09F202A04DB203A00FA02F11F
:10645000002070479140C2F1200320FA03F3194352
:10646000904070470048704740C5020040EA010371
:106470009B0703D009E008C9121F08C0042AFAD2FA
:1064800003E011F8013B00F8013B521EF9D27047BE
:10649000D2B201E000F8012B491EFBD27047002266
:1064A000F6E710B513460A4604461946FFF7F0FF13
:1064B000204610BD421C10F8011B0029FBD1801A98
:1064C0007047034611F8012B00F8012B002AF9D17F
:1064D00018467047202A04DB203A21FA02F00021F6
:1064E000704721FA02F3D040C2F1200291400843E4
:1064F00019467047064C074D06E0E06840F001037E
:1065000094E8070098471034AC42F6D3FFF77CFEBE
:10651000B4CC0200D4CC020070B58C1810F8015B2A
:1065200015F0070301D110F8013B2A1106D110F82C
:10653000012B03E010F8016B01F8016B5B1EF9D130
:106540002B0705D40023521E0DD401F8013BFAE7B6
:1065500010F8013BCB1A921C03E013F8015B01F821
:10656000015B521EF9D5A142D8D3002070BD0000B6
:106570002DE9F04700268AB0DFF85091B0464FF47D
:106580008075012437460696284603F0DBFA38B1B9
:10659000D9F80403204203D0284603F0C9FA264361
:1065A0002D1D64007F1CADB2082FEDD34FF4BE74D7
:1065B000204603F0C7FA48B1204603F0B9FA46F086
:1065C000004606AA0121002003F09EFA404D16F075
:1065D000FF0F15D00127002437420DD009EB8401AD
:1065E000D1F81005D1F81015C0F3042055F8242077
:1065F000C1F3014102B190477F00641C082CEBD32A
:10660000002E5FDA4FF0FF30CDF8108054E02819EB
:1066100010F8507F90F9000027F0C008401C3BD0D4
:1066200007A9404602F066FE10B34FEA97194046AC
:1066300001F016FF55F820701FB1B9F1030F03D018
:1066400006E0B9F1030F27D104A9404602F05AFE33
:106650004FF0A04101EB8800D0F8000706A9C0F375
:10666000014A404602F046FE18B1BAF1020F03D0CB
:1066700012E0BAF1030F0FD1B9F1030F08D1BAF14B
:10668000020F1DD00221404603F022FA761CF6B21A
:1066900017B149464046B847641C042CB7D3002EB6
:1066A00010D06A460121002003F02EFA06990098C6
:1066B000884207D006900498002634460790A6E743
:1066C0000321E0E70AB0BDE8F08700000060004069
:1066D0004031002000F01F0201219140400980005C
:1066E00000F1E020C0F88012704700F01F02012185
:1066F00091404009800000F1E020C0F8001170478F
:1067000000F01F02012191404009800000F1E020CB
:10671000C0F8001270474907090E002806DA00F099
:106720000F0000F1E02080F8141D704700F1E02018
:1067300080F800147047000070B54FF48076304642
:1067400002F024FF114CB50560B1304602F025FF80
:106750000120C5F80803607920B901206071216823
:10676000002088474FF48276304602F00FFF002861
:106770000AD0304602F011FF0220C5F80803216854
:10678000BDE870400120084770BD0000FC2A0020D1
:1067900007480021C0F84011C0F84411C0F8481162
:1067A000C0F84C11C0F80011C0F8041105F030B960
:1067B0000010014000F0C4B970B50E46144900EB5A
:1067C000400001EBC0051446E86A183520B10128E5
:1067D0000FD0022805D113E0284600F0E5F9A042C9
:1067E00001D2002411E022463146284600F014FA76
:1067F0000BE0284600F0D8F9A042F4D20446F2E7B4
:106800003146284600F0DBF90446204670BD000002
:106810001439002005F04AB803F01ABFF0B5B448A7
:106820000023021D0178101D01254FF08054062918
:106830000BD11678360708D10678C6F30316032E57
:1068400006D0042E04D0052E02D0062907D00EE073
:10685000B4F82463A74FC6F304263E6002E016781E
:10686000360704D10678C6F30316032E02D0062994
:1068700004D00FE0A14FA04E7E670EE016783607D9
:1068800008D10678C6F30316032E06D0042E04D0D2
:10689000052E02D0062907D00EE0D4F84462984FA6
:1068A000C6F342363E6002E01678360704D1067819
:1068B000C6F30316032E02D0062906D011E0914E2E
:1068C000376827F0807737600EE01678360708D1F2
:1068D0000678C6F30316032E06D0042E04D0052E28
:1068E00002D006290AD011E04FF08046C6F80C31DC
:1068F000C6F81031824E361F336002E01678360734
:1069000004D10678C6F30316032E02D0062905D05B
:106910000CE07B4F032664373E600AE016783607AA
:1069200004D10678C6F30316032E02D006290DD033
:1069300014E0754F05263E60734E78363560724E12
:10694000083633603F263F1D3E6002E0167836076A
:1069500004D10678C6F30316052E02D0062957D0B7
:1069600062E06A4E36686A4F3E60684E361D366891
:106970003F1D3E60654E083636683F1D3E60634EE3
:106980000C3636683F1D3E60604E103636683F1D3F
:106990003E605E4E143636683F1D3E605B4E1836D4
:1069A00036685B4F20373E60584E1C3636683F1DB8
:1069B0003E60564E203636683F1D3E60534E2436AC
:1069C00036683F1D3E60514E283636683F1D3E609A
:1069D0004E4E2C3636683F1D3E604C4E3036366883
:1069E0004B4F40373E60494E343636683F1D3E605F
:1069F000464E383636683F1D3E60444E3C3636685B
:106A00003F1D3E60414E403636683F1D3E6002E00D
:106A10001678360708D10678C6F30316032E06D07B
:106A2000042E04D0052E02D0062907D019E0D4F890
:106A30005812384A01F04F01116002E0117809073D
:106A40000FD10078C0F30310032803D0042801D02D
:106A5000052806D130480168C90702D06FF001014E
:106A60000160D4F83001062808D1D4F83401062892
:106A700004D12A48016841F48061016021487438DA
:106A8000016841F470010160BFF34F8FBFF36F8F56
:106A90004FF01021D1F80002002803DBD1F80402E6
:106AA000002821DA1E4A15601E480468002CFCD01C
:106AB0001524C1F800420568002DFCD0C1F804423D
:106AC00001680029FCD0136001680029FCD0BFF3E5
:106AD0004F8F0C48F0380168134A01F4E06111430C
:106AE0000160BFF34F8FFEE7114910480860F0BD09
:106AF000E00F00F0403501400DF0ADBA00C0074096
:106B00003C050040FCED00E010560040040400107D
:106B100020C50040E40E0040000400403C17004047
:106B200004E5014000E401400400FA050090D003B0
:106B3000982A00200148006800470000042B00202C
:106B400010B5124C02202061606111A0A06104F117
:106B50007800E0614FF4007020620020A062606263
:106B60000BA1A164E06204F51E71E1641021A0652F
:106B7000C4E91410E06509A1E01DFFF7A2FC08A11B
:106B80002046FFF79EFC2020A07110BD1439002084
:106B90005465726D696E616C0000000052545400BF
:106BA00053454747455200000269C1688A4203D8ED
:106BB0008068401A104400E0501A401E70472DE9CA
:106BC000F047C4681746894606464FF0000830690A
:106BD000A04201D9051B02E0B168201A0D1AB06865
:106BE0006D1E001BA84200D80546BD4200D33D469D
:106BF00070682A4620444946FFF738FCB0687F1B7E
:106C00002C44A844A944A04200D10024F460002FE1
:106C1000DDD14046BDE8F0872DE9F04104468846C5
:106C2000D4E90207C51BE168606816460844B5420E
:106C300006D94146FFF71AFCB819E060BDE8F081BB
:106C40002A464146FFF712FC761B08EB0501324647
:106C50006068FFF70BFCE660F0E70000014A0249BC
:106C600000F031B8BF880200842B002002E008C881
:106C7000121F08C1002AFAD170477047002001E0B6
:106C800001C1121F002AFBD17047000001212028FA
:106C900003DA81400548014003E0402802DA203849
:106CA000814009B10120704700207047FC06FFBDFC
:106CB000082806D228B1012803D0042801D00120D9
:106CC0007047002070472DE9F04116460F460446F4
:106CD000002503E03946B047641C6D1C207800286D
:106CE000F8D12846BDE8F08110B50122022100202C
:106CF00001F0C6F908B1072818D1072202210120A6
:106D000001F0BEF908B1072810D100210A22084677
:106D100001F0B6F908B1072808D10B2201210020A3
:106D200001F0AEF908B1072800D1002010BD022003
:106D300001F0B6B870B50024064D06E06868012180
:106D400010F8340003F06EFD641C28788442F5D3FB
:106D5000002070BD102B0020F8B515460C460646E5
:106D6000052A01D20720F8BD03F058FE18B903F038
:106D70001DFE0028F7D1124900224E600C708D6074
:106D8000C1E90422C1E906220E4D0DE006EBC40064
:106D90002968009181788DF8011000780A4A6946C7
:106DA00003F092FD0028DED1641EE4B2EED2BDE80D
:106DB000F84004480021054A001D00F07BB800009F
:106DC000102B002040C202005189020031870200CE
:106DD00072B603F03FF900BF02F07EFF0028FBD13E
:106DE000104C0121208801EB00400FA103F084F832
:106DF00010480068C00700D000BE2088022101EBC7
:106E000000400DA103F078F8BFF34F8F0948E43834
:106E100001680D4A01F4E06111430160BFF34F8F37
:106E2000FEE700001C2C0020466174616C20657236
:106E3000726F7200F0ED00E053797374656D20722B
:106E400065736574000000000400FA050EB50021AA
:106E50000091CDE901106A4644F20100FFF7B8FF46
:106E60000EBD10B58268C368934203D001F000FDE7
:106E7000002010BD052010BD29B112B1531E1342D0
:106E800003D0092070470E207047016083800021E5
:106E90008160C1600846704710B58268C3689A1A5D
:106EA00083889A4203D801F0EDFC002010BD042035
:106EB00010BD0000074B9B7823B12AB120B10068B8
:106EC000037C1BB108207047072070474174426162
:106ED000002070470C32002070B504F0A3FA10486F
:106EE00000240B21047044700E4D817014206C60DE
:106EF0002C706C70FFF7EEFB07211420FFF70BFCE2
:106F00001420FFF7F2FB0848046007211120FFF767
:106F100002FC0548001F0068A860002070BD00004A
:106F20000C320020302B0020081501402DE9FC47D1
:106F3000DFF8789099F8023073B368B3052902D26C
:106F40000720BDE8FC87436933B3437C012B25D080
:106F5000002704460025884616468DF800506846EE
:106F600000F0CEF801A805F08FF8C8B1012101703A
:106F70000F4944600968C0E90218C0E904769DF829
:106F8000040089F801009DF8000000F0DDF81420ED
:106F9000FFF7B6FB2846D4E70820D2E70F46D8E72C
:106FA00004259DF8000000F0CFF8F3E70C32002034
:106FB000041501400649897839B130B1416921B1E0
:106FC00000210174022104F0FFBC0820704700007A
:106FD0000C32002070B50A4E01460A48B578FFF71A
:106FE00040FF04464DB10020B070711C0122C81D45
:106FF00002F044FB08B1FFF729FF204670BD0000F6
:10700000442B002018330020F0B5244E89B01F46D1
:107010000D00044672603FD0A888296882B22048DB
:10702000FFF72AFF002835D1A889A96882B21C4839
:107030001030FFF721FF00282CD120221949684683
:10704000FFF714FA60690690207C00B101208DF8EA
:1070500014008DF81C70607C00B10E208DF81500B6
:10706000E0680290A068039020680190606800903A
:107070000A480D4A6946083002F0CCFA002809D1C6
:10708000B0702068401C05D004490122491CC81D6D
:1070900002F0F4FA09B0F0BD0720FBE7442B002012
:1070A0001833002058C2020009BC020010B5014686
:1070B0001048FFF7F1FE040019D10F480F4A01787C
:1070C000515C19B1001D03F02BFF02E00C3003F0FE
:1070D0000FFE60B9084907480839FFF7C2FE30B90A
:1070E000054901220839044802F0D8FA044620462E
:1070F00010BD0000283300204C2B0020F02A002077
:1071000030B5EFF3108172B60D4A9468012324B1B3
:107110000370002900D162B630BD93604FF0E023C8
:10712000D3F88051074C25401560C3F88041D3F84F
:10713000844154605A17C3F8842100220270E8E7A2
:1071400038330020FC06FFBD0B498A68002A11D0A5
:1071500000280FD1EFF3108072B60B684FF0E022D9
:10716000C2F800314B68C2F8043100228A6000285E
:1071700000D162B670470000383300202DE9F0419D
:10718000064608680C46411C4FF0A0474FF0010529
:1071900006D005FA00F1C7F80815206802F084FC53
:1071A0006068411C02D0002102F06CFC3168A069CB
:1071B000C1F82405607D227D31681043C1F86C055B
:1071C000D4E900123068C0F81425C0F80C15207DF1
:1071D000012815D1A068411C02D0002102F052FC08
:1071E000E068411C05D08540C7F80855E06802F00A
:1071F0005BFCD4E902123068C0F80825C0F810150D
:10720000BDE8F0812DE9F041064608680C46411CB6
:107210004FF0A0474FF0010506D005FA00F1C7F87E
:107220000815206802F04AFC6068411C02D0002169
:1072300002F031FC3168A069C1F82405607D217D30
:1072400032680843C2F86C05D4E900123068C0F80F
:107250000C15C0F81425207D012815D1A068411C0B
:1072600002D0002102F017FCE068411C05D08540E7
:10727000C7F80855E06802F021FCD4E90212306832
:10728000C0F80825C0F81015BDE8F08170B51500EC
:10729000044609D00020286034B1206820B1A079CC
:1072A000800703D0072070BD0E2070BD084600F097
:1072B00037FBC0B2142804D02179814203D80420BE
:1072C00070BD052070BDE288216800FB02102860B7
:1072D000002070BD2DE9FC47002517880646158063
:1072E00090F82D001446894630B13A46214648466A
:1072F00000F02AFB051E09D1B0784FF00C0A18B334
:107300002088C846001DB84202D95046BDE8FC8717
:10731000684679DF0028F9D12088032108F8001099
:1073200020881921401C80B2208008F80010208895
:10733000401C80B2208000EB0801BDF8000004F082
:10734000F1FD218808442080F0780222C8B121880C
:1073500096F9033001F1030C4846BC45D5D8425498
:1073600021884FF0010C491C89B2218000F801C02E
:107370002188491C89B2218009F801302088401CED
:1073800020807068B8B1218890F9003001F1030CB9
:107390004846BC45B9D8425421880A22491C89B2C2
:1073A000218042542188491C89B2218009F801308A
:1073B0002088401C2080308950B1CDE900474B46E1
:1073C0000622022106F1080004F076FE051E9DD17A
:1073D000308A50B1CDE900474B460722032106F120
:1073E000100004F069FE051E90D1308B50B1CDE93C
:1073F00000474B461522142106F1180004F05CFEEC
:10740000051E83D1306A30B13B462246494601F021
:10741000C6F8051EDBD1706A30B13B4622464946AC
:1074200001F0E4FD051ED2D196F82C0038B13B46A0
:1074300022464946304604F04BF9051EC7D1307844
:1074400038B13B4622464946304601F055FE051EFE
:10745000BDD128465AE718B504460020ADF8000013
:1074600013466A46204600F006F8002802D0BDF810
:107470000000204418BD70B588B182B10024158881
:1074800003E0065D641C3444A4B2A54203D8061987
:1074900076789E4201D08C42F3D38C4201D30020F7
:1074A00070BDA11C1180005D401E80B270BD80F8CF
:1074B000301070472DE9F0410D00044606D02CB184
:1074C00095F87A000026012803D006E00E20BDE8DA
:1074D000F08195F89800012829D0D5F8A00004285B
:1074E00025D0D5F89C00042821D04FF00108A670C3
:1074F0002C2205F17801201DFEF7B8FF84F83060DA
:10750000D5F8A4006063D5F8A800A0634FF6FF701B
:10751000A4F8A80004F19400C4F8A400C4F8AA6078
:10752000A4F8AE6084F8B060207810B104E00720C1
:10753000CDE7FF2084F8540004F155011F27C4F85B
:107540009410A4F8987004F198022846FFF7C2FE40
:107550000028BCD115F13C0F0ED004F17401C4F821
:107560009C10A4F8A07004F1A00205F13C00FFF704
:10757000B1FE0028ABD103E0C4F89C60A4F8A06081
:1075800084F85180208BA4F8480084F83C8026645D
:1075900084F8506060696064454604F13C02002153
:1075A00004F1540072DF002891D125708FE710B5E7
:1075B0000288102A1BD0112A20D0262A1DD1007A39
:1075C0000C46012801D0022817D1A0780521401CC3
:1075D000B0FBF1F201FB1201204600F052F8002846
:1075E0000BD0A16B002908D0BDE810400847C27B32
:1075F000012A02D18088A1F8A80010BD0C46002104
:1076000084F8B2108088B4F8A8108842F5D12079A7
:107610000028F2D10121DFE710B50C46022801D085
:10762000032810D1607800280DD000206070A17868
:10763000204600F026F8002805D0A16B002902D0D2
:10764000BDE81040084710BD10B5044690F854003E
:1076500074DF012084F8B200002084F8B40084F8BC
:1076600050000621204601F016F9002808D1A17823
:10767000204600F006F810B1A16B01B18847002048
:1076800010BD2DE9F05F044600780F4638B1A770B1
:10769000002002F019F9012620B1667007E10820E8
:1076A000BDE8F09F0025C4F8AA50A4F8AE5084F8B5
:1076B000B050A07910B1A078012806D0E07968B167
:1076C000A078012801D0022808D1616B21B184F88B
:1076D000B1600820884701E084F8B15004F1AB01A3
:1076E00000200A5C0AB1304603E0401C0628F8D3AB
:1076F00000204FF002084FF0030B012F06D0022F9D
:107700000CD0032F0FD0042F15D110E0A17929B18F
:1077100094F8241011B908B130460DE0E17911B1A7
:1077200008B1404608E0207A08B1584604E0607A83
:1077300008B1042000E02846A070616B41B1032825
:1077400001D0042804D1607910B194F8B200A0B13E
:1077500084F8B35004F13C0018210746FEF79FFE61
:1077600004F12C0084F83C60814603F069FD58B1B7
:1077700094F82C0084F8510008E084F8B45084F8A0
:10778000B36007208847E5E784F8516094F8240047
:1077900050B1484603F054FD20B194F8280084F815
:1077A000520001E084F8526084F85050A27804F14D
:1077B000AA0104F194094FF0060A052A60D2DFE815
:1077C00002F078030F223F0084F83160C4F8A4501F
:1077D000C4E9101584F83C808020A4F8480051E0EA
:1077E00084F8318094F82420384612B107220270C0
:1077F00001E080F800B0228A8281C4F8A450416080
:10780000E168B9603EE06069B860208BB88194F8A7
:1078100024003D4610B184F83CA001E084F83C60AF
:10782000204604F013FC40B185F814800421204662
:1078300001F031F820BB05211EE084F831B01DE0D5
:10784000E069B860208CB88194F824003D4610B1FE
:1078500084F83CA001E084F83C60204604F0F6FB8C
:1078600048B185F814800421204601F014F838B995
:1078700084F831A002E0042184F83110C4F8A49007
:10788000A07878B13A4604F15400D4F8A41072DF1D
:1078900000287FF405AF94F8301094F8540073DF9B
:1078A0000028F6D1616B11B194F8310088470020AF
:1078B000F6E684F83150F5E770B5040012D00146C1
:1078C0001C221448FEF7D2FD1248134D05602068B3
:1078D00050B17ADF002806D120680168296040682D
:1078E000686005E00E2070BD0B487BDF0028FAD1F0
:1078F00008484FF6FF711438084A20F8041B054960
:10790000343901600021FFF7D5FA0028EBD00320BD
:1079100070BD000098300020E82A0020E5BF02007A
:1079200010B5044600F006F808B1204610BD14203A
:1079300010BD0000142801D3002070470146014803
:1079400001F049BCB83000207CB5054608880C46DB
:107950000930904201D90C207CBD68466DDF0028BB
:10796000FAD121880820685420881B21401C80B24D
:10797000208029542088401C80B220802844DDF8D3
:1079800001100160BDF8051081802088801D80B243
:1079900020809DF80010490800D00121295420883A
:1079A000401C208000207CBDF8B5294D028804468B
:1079B0006E88212A37D011DC26484FF00301102AA7
:1079C000008801EB004013D0112A25D0132A29D1B9
:1079D00000231A46852130467FDF17E03B2A32D04C
:1079E000522A2AD0562A1DD18088132176DF0DE035
:1079F00019A102F081FA072000F064FB08B1FFF73B
:107A000025FAA1886980174801F048FD002809D0AF
:107A1000BDE8F840FFF71ABA13A102F06DFA4FF66D
:107A2000FF706880F8BD00200090A08869468FDF55
:107A30000028F7D0FFF70AFAF8BD00231A461946C6
:107A40003046B1DFE2E78088132176DFDEE7000011
:107A5000A42A00201C2C0020436F6E6E65637465A1
:107A600064000000342F0020446973636F6E6E65FC
:107A7000637465640000000010B51A4C01886068EA
:107A800010290ED011292BD1401E606028D1FFF79C
:107A90002BF9002824D02168002921D0BDE810400E
:107AA0000847D0B900210122084600F0E9FA08B1E0
:107AB00007280FD107220221012000F0E1FA08B1C6
:107AC000072807D104220221002000F0D9FA20B1B2
:107AD000072802D0216801B188476068401C6060B7
:107AE00010BD0000E02A00202DE9F04701883B4E40
:107AF00040F2F3194FF6FF7510291BD011293ED023
:107B0000122954D0502946D1C188F289841D91424E
:107B100041D1618902293ED18688304600F05AFF62
:107B2000050038D004F10C0000F076F9A8B329461E
:107B300030464EE0C17B8788044601292BD1A846F8
:107B4000284600F047FF050017D02F80002028723C
:107B5000234843464A460168C5F80A104068C5F8FC
:107B60000E0004F1100105F10A0000F0F7FF687241
:107B7000F08900280FD129462AE0042013E08088EC
:107B800000F028FF040006D06068FFF713FA08B180
:107B900003F06EFD2580BDE8F087FFE76868FFF71A
:107BA00009FA0028F7D0BDE8F04703F061BD8788E7
:107BB0000646384600F00EFF0400ECD02B464A463D
:107BC00006F1080104F10A0000F0C8FF60722146C6
:107BD0003846BDE8F04700F029BD0000983000208D
:107BE000E82A00202DE9F04F0746858802883D48A5
:107BF000012197B08346102A09D0112A49D01A2AA8
:107C00006CD1387AB1EB101F45D2012244E0354CDB
:107C1000083CA068C0430B9061680BA801F0FCFA17
:107C20000B990CA800F09CFC2C220CA96846FEF7CE
:107C30001DFC0026E946A04610E000BF09EB460007
:107C40005FF00004B0F804A008EB84005146001D6A
:107C500001F0B6FA641C1D2CF6D3761C0098B042D5
:107C6000ECD8142D05D317B00420BDE8F04FFFF772
:107C7000EDB82946584601F0B9FA294608F1040042
:107C800001F0B4FAF87B012828D016482946001DD7
:107C900015E029461AE000220221B1EB101F01D2A3
:107CA000012600E000260F49083901F11000041DEB
:107CB000294682B101F09AFA36B12946204617B01A
:107CC000BDE8F04F01F092BA2946204617B0BDE852
:107CD000F04F01F075BA01F073FAF5E717B0BDE89F
:107CE000F08F0000BC300020F0B585B016460F467E
:107CF00004001D4614D004AA19466069FFF7C6FAAD
:107D000000280BD1A5F57F40FF380BD0049848B16F
:107D1000007848B13088F42808D9072005B0F0BDB4
:107D20000E20FBE70520F9E70820F7E70020009088
:107D3000019002900390A088ADF8000001208DF81A
:107D40000200CDE9026769462846AEDFE6E700009B
:107D500030B5144B0D4604000FCB85B08DE80F00F5
:107D60001ED0EDB12868A0612146684662DF002878
:107D700014D120788DF812000120ADF81000A21C5B
:107D800004A9A8DF002809D12946204603F081FB79
:107D9000002803D12946204603F084FE05B030BDFB
:107DA0000E20FBE724C2020070B588B0044600290B
:107DB00024D0002C22D008462188102920D0502918
:107DC00024D057291AD10546A188406906AAFFF791
:107DD0005DFA002812D1069E307800280ED01821B6
:107DE0006846FEF75CFB01208DF800000195A08835
:107DF000ADF808000396A9696846884708B070BDC9
:107E000008B02146BDE8704003F000B908B0214633
:107E1000BDE8704003F0D2B9007800F0010070476F
:107E20000149085C70470000DCC102000649095C9A
:107E30004FF0A040D0F81005C84010F0010000D06D
:107E4000012080F001007047DCC102002DE9FC41F7
:107E50000646C0074FF000050ED0104F0024012247
:107E6000385D009500231146019501F0C3FD641CA7
:107E7000042CF4D300F046F8B0070DD5074E0024CB
:107E8000361D0022305D032300951146019501F057
:107E9000B1FD641C042CF4D3BDE8FC81D8C1020000
:107EA00007490B5C4FF0A041D1F804250120984010
:107EB00020EA0203C1F808351040C1F80C057047EC
:107EC000D8C102000249085C012101F012BE000085
:107ED000D8C102000249085C002101F00ABE00007E
:107EE000D8C102000649095C4FF0A040D0F8040553
:107EF000C84010F0010000D0012080F00100704760
:107F0000D8C1020010B500242046FFF7DBFF641C37
:107F1000042CF9D310BD10B500242046FFF7DAFF7A
:107F2000641C042CF9D310BD10B50246064B4FF06B
:107F3000FF3000215C5C944201D1084610BD491C11
:107F40000429F7D310BD0000DCC1020070B5094E52
:107F50000C004FF00005306005D0012000F064F8FF
:107F600008B102202070706810B9FEF7BDFE05460A
:107F7000284670BDE02A002010B5002000F0D4F99A
:107F800008B1062806D1012000F0CEF908B1062874
:107F900000D1002010BD00002DE9F0470D468146BC
:107FA000FFF7C2FF0446042836D2DFF874801B486E
:107FB0001C4EA8F10C0725B3012D0ED0022D2BD19C
:107FC00004EB440030444578002D25D0B9680029E1
:107FD00022D02846BDE8F047084704EB4401755C11
:107FE0000E44717849B10E4A4FF40041093A806855
:107FF000FEF79CFF08B987F80390B17808F80410E1
:10800000E2E78068FEF7D6FF04EB4401314418F83C
:1080100004008D78A842D7D0BDE8F087E0C1020007
:10802000DC2A002038300020042801D2FFF7FEBEF1
:10803000002070470146104810B54088042907D039
:1080400007290ED00A2915D1BDE8104003F084BBE2
:10805000132176DF0CE000280CD0BDE81040FEF7BD
:10806000F5BEA0F57F41FF3904D10448FFF7ECFAD3
:108070000828F0D110BD0000A42A0020402F0020C5
:1080800070B50023042810D20D4D00EB4004012AE6
:1080900002D101290CD00022094E00EB40003044EF
:1080A00061B1012906D0022906D00723184670BD08
:1080B0000E30C2B22A55F9E74270F7E78270F5E751
:1080C00038300020044A014600201279D20702D03D
:1080D000084600F04DB87047D02A002070B506461B
:1080E0001E480024C0E90161B00720D50025012207
:1080F00011462846FFF7C4FF6D1C0446042D02D22A
:10810000002CF4D013E094B940F2666204211448C4
:10811000FEF722FE04000AD1FEF70CFE040006D191
:108120000F48104A0021001FFEF7C4FE0446F00766
:1081300012D00120FFF78AFE74B909480A4A0021CB
:108140000C38FEF7B7FE040006D10548074A0121A6
:108150000838FEF7AFFE0446204670BDD02A002046
:10816000ECC10200F5830200D18B02002F6D0200EA
:108170002DE9F05F6A4C054600266078B34618B1D9
:1081800084F801B000F00CFD664F4FF47A694FF4AB
:10819000C87A4FF00108182D62D2DFE805F0AC0C68
:1081A0000C31404D62676B746B74BE7D7D7D7D7D4F
:1081B000ACAFB2B5BEBE0020FFF794FE00284FF072
:1081C000000008D0FFF77EFE022D02D14FF4E160DF
:1081D00008E0484606E0FFF77DFE022D01D1C820E9
:1081E00000E05046410CC0034FF4FA72801841F190
:1081F0000001257052000023FEF7F4F801462AE042
:108200000020FFF76FFE00284FF0000004D0FFF7BA
:1082100059FE4FF44870E5E7FFF75CFEDFE700200A
:10822000FFF760FE00284FF0000002D0FFF74AFE83
:10823000CFE7FFF74FFED4E70020FFF753FE0028FB
:108240004FF0000002D0FFF73DFE01E0FFF742FED5
:10825000257041F69A1100223868FEF767FE06463F
:1082600046E00020FFF71CFE257008E0002051E0EA
:1082700025703DE084F801800120FFF711FE002207
:1082800040F6CD41E8E784F801800120FFF708FEC1
:1082900000224FF48041DFE77868FEF78BFE064648
:1082A000D5F1110000D02EB10220FFF70BFE84F8AB
:1082B00002B01DE0012816D980B2C8214843C11779
:1082C000C90341EA5041C0034FF4FA72801841F1EA
:1082D000000152000023FEF785F80146002278686D
:1082E000FEF724FE06460220FFF7F4FD84F8028024
:1082F0003046BDE8F09F00F053FCB9E700F050FCB9
:10830000B4E700F04DFC04E000F04AFC0020FFF769
:10831000E1FD0120FFF7DEFDAAE7FFF7FCFDA7E77F
:10832000D02A0020E0C10200012103F02CBF000090
:108330002DE9F8430546861C00208DF80000904684
:108340000F464FF001096846FEF7DAFE1B4C206825
:108350003860D4E90001401AA16804F21C47081AE9
:108360000EE00121384600F051FF00F0C3FC014649
:10837000384600F04BFFD4E90001401AA168081A02
:10838000401C8642EDD8B8F1000F03D0052065F3FC
:10839000891002E0062065F39F50A2682168114011
:1083A00004EB8101C8602068304420609DF8000023
:1083B000FEF7CAFE4846BDE8F8830000F03400200E
:1083C00030B482680468531C8360A154D0E9011260
:1083D0008A4202D330BC01F07EB930BC7047000045
:1083E000034803C8814201D1012070470020704733
:1083F000F034002000780221FFF7CEBD05494FF090
:10840000FF32082841F8202002D3084480F8482091
:108410007047000040310020F0B54FF0FF3512B139
:108420000023082601E008230C260C4C05E000BFC1
:1084300054F823707F1C04D05B1CB342F8D3284649
:10844000F0BD26185DB286F8305044F82310002A9B
:10845000F5D1E11881F84800F1E700004031002033
:108460000249084490F93000704700004031002074
:1084700070B5084C050009D010342168002907D0D8
:1084800008682060496828468847F6E70834F4E71A
:1084900070BD00002C310020054A012120B10128C7
:1084A00005D19170FFF7E4BF51700020FAE77047E3
:1084B0002C3100202DE9F05F26484168F1B3DFF848
:1084C00098B00E688146DBF8004087688078E11B31
:1084D00021F07F45ED1CB0B9DFF880804FF480308B
:1084E000C8F84403C8F804031120FEF7F3F811207C
:1084F000FEF7FBF84FF0010AC8F800A02F2002F0A9
:1085000089F989F802A0B54200D23546124BE81924
:108510003C3320F07F401860DBF800105A46091BFE
:1085200021F07F41001B20F07F40C91C81420FD900
:10853000106818602F2002F06DF900E004E0BDE83B
:10854000F05F1120FEF7DCB8BDE8F05F02F06ABF13
:10855000BDE8F09F302B00200415014000100140C1
:1085600073B58CB00646002000900D9880B10024B1
:108570006D4621460DA800F02EFE30B1009805EBA7
:10858000400084800098401C0090641C142CF0D3A0
:108590002C2269463046FDF769FF0EB070BD2DE90B
:1085A000F04117880646B81D14460D46984202D978
:1085B0000C20BDE8F0813188072206290AD34FF448
:1085C000486C4FF6FF73614501D9994202D170881A
:1085D000062801D21046ECE7604501D99842F9D14E
:1085E000994203D0984201D08142F3D80520E85542
:1085F00020881221401C80B2208029542088401CF1
:1086000080B220804119308803F08CFC2188084416
:1086100080B220804119708803F084FC21880844CE
:1086200020800020C5E7FEF711BC000038B54A7A6B
:108630000F4B62B100220A725969002906D001224B
:108640008DF80020ADF802006846884738BD0A7AE8
:1086500062B19B684C68024619462046FEF766FCEC
:108660000028F3D0BDE8384003F002B85B68F1E7BA
:1086700098300020F0B587B0074600200490ADF890
:1086800010100590ADF812100190029001AA04A9F3
:10869000384690DF060022D002F062F8114C034603
:1086A000012520883A4605EB00400F4901F02FFCD8
:1086B000BDF8042012B9BDF8060038B12088BDF815
:1086C000063005EB004009A101F021FCBDF80820AF
:1086D0002AB12088154905EB004001F011FC07B0D4
:1086E0003046F0BDEC2B002044C5020054686520E4
:1086F0007265717565737465642054582F525820E3
:108700007061636B6574206C656E67746820697353
:1087100020746F6F206C6F6E672062792025752F33
:108720002575206F63746574732E000090C5020078
:108730002DE9F0470025DFF88C803CE060680021DF
:1087400000EBC506012032789146FDF77CFED4E9A6
:10875000062300EA020701EA030C57EA0C0728D0B7
:1087600082438B434846C4E9062302F015F9327868
:108770008246914601200021FDF765FED4E90423DD
:1087800000EA020401EA03074A4650460021FDF7C9
:108790005AFE44404F403C430BD17078012801D031
:1087A000012100E00021726881EA0A010AB148460D
:1087B00090476D1CEDB298F8000044468542BDD349
:1087C000BDE8F087102B002010B50021024800F012
:1087D0002EFD80F3100010BD0C3900200E4910B59D
:1087E0000A784C780023A24212D0521CD2B20A70EE
:1087F000022A00D10B70084A0B780C3252F8232061
:1088000002608868104420F07F408860012010BD1D
:108810000360002010BD0000302B002030B504465E
:10882000006887B00D46806800281FD01821684670
:10883000FDF735FE0195A0680590207910B101285B
:1088400010D107E001208DF8000020690290E06857
:10885000039005E002208DF80000E068000302901C
:1088600060690490206881686846884707B030BD19
:10887000826883881A4003689A5C0A708168491C80
:1088800081607047C26883881A4003689954C16840
:10889000491CC160704770B50D460446B0F8981089
:1088A000D0F894000122FEF7D6FD00B1057004F166
:1088B0003C0204F1940104F1540072DF70BD10B564
:1088C0000446C0B2FEF7F2FB204610BD0B484A88B2
:1088D00043889A4211D10A88A2F52063773B0CD1D4
:1088E0008988C91E8AB28280054803211346008800
:1088F00001EB004003A101F00ABB7047A42A00204D
:108900001C2C002044617461206C656E206973200A
:1089100073657420746F20307825582825642900E9
:1089200010B50949094800F003FD08B1FEF78EFAB9
:10893000F721064800F0F0FC002803D0BDE8104005
:10894000FEF784BA10BD0000CD880200202F002061
:108950002DE9F0418046024601200021FDF773FD1C
:108960001A4F05460E467868FEF724FB00280CD106
:10897000174CD4E9062110462A4001EA06031A439F
:1089800005D0A843B143C4E90601BDE8F0814046E3
:1089900002F002F830B1D4E9040128433143C4E9BC
:1089A000040105E0D4E90410A943B043C4E904106C
:1089B000D4E9060128433143C4E90601A168786877
:1089C000BDE8F0410022FEF7B1BA000040C202004B
:1089D000102B00200146034802888A4200D0002064
:1089E00070470000843000202DE9FC5F0E008346B4
:1089F000DDE90C47C6F1000098469246814600D456
:108A00000846012503E000BF90FBFAF06D1C5045BD
:108A1000FADAA84500D9454624B1002E01DB7807D3
:108A200000D5641EB80702D5B8F1000F0AD0F807C8
:108A300008D13CB1A54205D220215846641EFFF75B
:108A4000BFFCF6E7002E02DA4E462D2102E0780741
:108A500003D52B215846FFF7B3FC07F0030002288B
:108A60000BD1B8F1000F08D13CB1A54205D230219D
:108A70005846641EFFF7A4FCF6E7CDE900474346DD
:108A800052463146584603F053FABDE8FC9F0000B9
:108A900070B50D46044600684FF4887101F080FE01
:108AA0004FF49071206801F07BFE4FF492712068C2
:108AB00001F076FE4FF4A271206801F071FE20688B
:108AC0001249C0F8041320686907000B40B2090E70
:108AD000002806DA00F00F0000F1E02080F8141DF5
:108AE00003E000F1E02080F8001420680121000B71
:108AF00040B200F01F0291404009800000F1E020E8
:108B0000C0F88012C0F8001170BD00001003020010
:108B1000024600201268930702D0530702D4704720
:108B2000500714D502F00300012802D002280CD10E
:108B300005E0C2F383100B68801C184404E0022394
:108B4000086803EB925210440860012070470868DF
:108B500000EB9253C2F38910401CEEE7F0B5848815
:108B6000A518944200D82246A41AC288D6189A4260
:108B700000D81346D21A4B880788BB420CD34088D2
:108B8000834209D88888A04206D3A84204D8C8885E
:108B9000904201D3B04201D90020F0BD0120F0BDC8
:108BA0000A4810B5807860B1002401E0022C06D09C
:108BB0002046FFF787F9641C042CF7D310BD03246B
:108BC000F6E7BDE81040FFF79DB90000D02A00206D
:108BD00003480179C90702D00078FFF7C9BA704786
:108BE000D02A0020F7210180172141800021017146
:108BF0004171FB2181711B21C17170472DE9F04743
:108C0000394E002780463D46DFF8E090D6F804A0B4
:108C100057E003D00446D0F81C8035E099F80020D6
:108C200002EB4201521CD2B289F8002009EBC101CB
:108C300099F80230091D9A4201D189F8005048681C
:108C40000A780446012A12D0022A02D0032A3BD114
:108C500008E002F089FE00B10127257434E00574B4
:108C6000C06900E070680028F9D170602CE0207CB9
:108C700050BB88686060C868A0600869E0604869A7
:108C8000A061F07800B165606268B168184B501A55
:108C900020F07F40984202D2A168084406E0881A7A
:108CA000A16820F07F40814202D9081A206000E0CC
:108CB000256065600120A56020742046E56102F012
:108CC00035FEB8F10000A4D199F8001099F8010020
:108CD0008142A3D117B97168514502D00120BDE886
:108CE000F0870020FBE70000302B00200C32002032
:108CF000FFFF7F002DE9FF410026234800F083FAA3
:108D00002148001F074600F07EFA204C6068009062
:108D1000A56800E000986946284004EB80000C300C
:108D2000FFF7F6FE0028F5D101AA009901EA050334
:108D300004EB8303491CDB6842F82030401C00919F
:108D40000228F2D3019800F0030001280BD002287A
:108D500010D10198032101EB90500099BDF80A60F1
:108D600001EB900005E00198BDF80A60C0F38310A4
:108D700008440090384600F043FA08B1009860605B
:108D800004B03046BDE8F08108390020F0340020FE
:108D9000ACB0182275496846FDF768FB7448069028
:108DA00074494FF48070CDE9070109900723724A96
:108DB00006A96846FEF728F908B1FEF747F84FF410
:108DC0000041002001F002F908B1FEF73FF800F081
:108DD00075FFFEF781F808B1FEF738F86749032000
:108DE000FFF77CF908B1FEF731F869460020FFF77C
:108DF000ADF808B1FEF72AF801F006FA08B1FEF75F
:108E000025F801F0DDFB08B1FEF720F800246946E3
:108E10000120009401F03AFA08B1FEF717F868460D
:108E200001F0DEFA08B1FEF711F89DF8080054A130
:108E300020F00F00401C20F0F00010308DF80800EA
:108E40000B2202A87CDF08B1FEF700F80094102086
:108E5000ADF800003C200194ADF80200ADF80440EC
:108E60004FF4C870ADF8060068467ADF08B1FDF728
:108E7000EDFFFFF755FD4548019001A9444800F07A
:108E800018FB08B1FDF7E2FF4248009069464248EE
:108E9000FEF75EFF08B1FDF7D9FF8DF8AC40AC21BD
:108EA0006846FDF7FCFA02208DF800008DF80240BC
:108EB00005208DF803002BA801900120ADF84C008F
:108EC00035498DF87C004020891F2290149144F28E
:108ED00050602390314829902D4869460C30FEF7A8
:108EE000E9FA08B1FDF7B2FF294801210C30FEF77D
:108EF000DEFA1C216846FDF7D2FA4FF42030CDE9A6
:108F000000404FF470200290254805900325254825
:108F10008DF80C500690ADF80E408DF81040684664
:108F2000FEF7CAFC08B1FDF791FF1FA0FDF796FE02
:108F3000224823A1008805EB004000F0DDFF144823
:108F400003210C30FEF79DFB08B1FDF77FFF1048B1
:108F500000220C3090F85410012077DF08B1FDF7A3
:108F600075FF00F0B9FE01F063F9FAE7C0C1020035
:108F7000202D0020202E002099BB02003580020009
:108F80004E6F726469635F554152540075A20200CE
:108F9000342F00203DAF0200B02A0020CDAF0200E8
:108FA000F1AF0200278602000D0A5541525420738A
:108FB0007461727465642E0D0A0000001C2C002080
:108FC0004465627567206C6F6767696E6720666FBE
:108FD000722055415254206F7665722052545420AD
:108FE000737461727465642E0000000070B51446DD
:108FF00082880E4605462088111D0144921C994224
:1090000001D8FE2A01D90C2070BD521C3254208890
:10901000FF21401C80B2208031542088401C80B247
:1090200020808119288802F07DFF2188084480B2C1
:109030002080AA8842B1A96841B13044FDF716FAF0
:109040002088A98808442080002070BD072070BDBA
:109050002DE9F047C7880446181D16468946B0FB1F
:10906000F7F1B0FBF7F207FB12009A193A44D21C51
:10907000B2FBF7F2DDF820A001E02468491E0029C8
:10908000FBD13D1A8846B54216D818E0BAF1000F58
:1090900005D0211809EB08002A46091D04E02044E8
:1090A00009EB08012A46001DFDF7E0F900202468BD
:1090B000761BA844B74201D9354600E03D46002E54
:1090C000E4D1BDE8F087000030B5024659B100F0A8
:1090D000A9FF0021074C09E004EB810315685B88B8
:1090E000AB4202D11160002030BD491C8142F3D354
:1090F000052030BDEC2B0020F8B50F460178144652
:109100000546012901D1687830B12088821C9A4235
:109110002DD8012902D006E00720F8BD6978014466
:10912000891C994223D8181A801E86B2ADF80060B7
:109130002188B81C084469467DDF0028EDD12878D5
:10914000022805D1BDF80010B14201D809210AE07A
:109150000821012805D16878B04202D8ADF8000096
:1091600001E0ADF80060BDF80000FE2801D90C2038
:10917000F8BD2288401CB8542088401C80B2208052
:1091800039542088401C2080BDF8001008442080FD
:109190000020F8BD10B50A8849888A4203D1FDF73E
:1091A0007BF8012010BD002010BD70B50C460546AF
:1091B000FDF755F8002802D061882868084470BD82
:1091C00001F01F0301229A40D243490900EB8100BC
:1091D000114600F021B84A0950F8220001F01F02A0
:1091E00001219140084000D00120704701F01F0389
:1091F00001229A40490900EB8100114600F01CB899
:10920000002100F00FB8012100F016B808B56A4639
:10921000FDF797F8009808BD08B56A46FDF777F89E
:10922000009808BD08B56A46FDF771F808BD08B595
:109230006A46FDF753F808BD08B56A46FDF75AF8C7
:10924000009808BD08B56A46FDF788F8009808BD83
:1092500038B5044600258DF800506846FDF750FFEC
:1092600021686268086890420ED9401E0860017843
:10927000A38AE26801FB0325227A2168101AC0B292
:109280000A79824200D208719DF80000FDF75CFF68
:10929000284638BD38B5054600208DF800000C463C
:1092A0006846FDF72DFFE868A98A201AB0FBF1F1A6
:1092B0002A681068431C136001709DF80000FDF7D8
:1092C00043FF38BD10B530B1017A42680368891A8E
:1092D000C9B21A6006E00E2010BD03681A68541C5B
:1092E0001C601170491EC9B2F7D2006800210171DB
:1092F000084610BDC20800F007030120895C9840B1
:109300000840704710B5C20800F00703885C0124CC
:109310009C402043885410BD28B1A1F11702E12AD6
:1093200003D3072070470E2070470180002070474C
:1093300010B560B10161F72120F8021B20F8021B73
:10934000FB2100F8021BFFF74DFC002010BD0E2092
:1093500010BD0000F0B5858893B00C46002D39D1C2
:10936000018800263E4F24293BD006DC102909D075
:1093700011290CD0232958D14FE03A290BD0552977
:1093800053D129E00146204601F076FE4DE0A01DB4
:10939000FFF728FC49E02246408934F8061F814245
:1093A00000D808466080172800D217206080106916
:1093B00070B1607960B1D7E90001CDE90301ADF882
:1093C0000E506088ADF81000136903A91046984745
:1093D0006671267113B0F0BD0146204601F09CFE77
:1093E00023E0011D2C2206A8FDF740F8BDF8180067
:1093F000BDF81C2004EBC0014A732269AAB1D7E969
:109400000423CDE90423ADF81200487B8DF8140045
:109410002269204604A9904707E0017A207B884210
:1094200000D201462846FFF725F9A07A0028D1D0BE
:10943000E1882846A5DF012570B11128CAD001F0C6
:109440008FF90246074808A1008813B005EB0040D9
:10945000BDE8F04000F054BDA672E572BAE7000026
:109460000CC20200EC2B002073645F626C655F67C6
:10947000617474635F65786368616E67655F6D745E
:10948000755F7265717565737428292072657475CE
:10949000726E65642025732E0000000020B10278F2
:1094A000DE2A03D0082070470E207047418000203C
:1094B000704760B159B10278DE2A0AD0096841606C
:1094C000DE2101704FF6FF714180002070470E20B1
:1094D0007047082070477FB5054600294DD0002D04
:1094E0004BD008780C46DE2847D1A888618888428E
:1094F00002D1204602F0B6FD2888012825D0022896
:109500003BD011283AD0512837D135F8040F618863
:10951000884232D1A978A81C02292ED1017A0429C7
:1095200003D0062901D0052927D10021009102226C
:109530008DF8002001914FF4C07202910391ADF8B3
:109540000420007A05280FD010E0297A204601294E
:1095500013D1A988428891420FD10121017204B030
:10956000BDE8704002F07EBDADF804102888694661
:10957000B0DF002801D0616888477FBDA888618876
:109580008842FAD14FF6FF7060807FBD00F18040C5
:109590000068002800D00120704708B500F1804025
:1095A000002101600068009008BD000070B50B4C00
:1095B000207808B185250FE00020A0606060206160
:1095C000E060074801F008F9054601F053F808B9D2
:1095D00001F0ECF801202070284670BD2C310020ED
:1095E0009984020038B500258DF800506846FDF7D3
:1095F00087FD074CE068401EE060E06810B901F0AC
:10960000FBF8A5709DF80000FDF79EFD38BD000039
:109610002C310020F0B505460478154889B016466F
:1096200040F82420124A0869121DA2F1080742F8E6
:109630002400487F385520226846FCF717FF049421
:109640002878385C48B10EB10A4A00E00022694629
:10965000281D01F065FB09B0F0BD0EB1064A00E01F
:109660000022694605F10C0001F010FAF3E7000052
:10967000F42A002001BE0200A9BC020030B4037825
:10968000054CE35C1BB130BC001D01F07FBB30BC5E
:109690000C3001F065BA0000F02A002030B40378E5
:1096A000054CE35C1BB130BC001D01F0F1BB30BCCC
:1096B0000C3001F0CBBA0000F02A00200FB408B53E
:1096C0000399002904D004AA00926A4600F00FF81A
:1096D00001B05DF814FB10B582680446002A05D07D
:1096E000D4E90403216898470020A06010BD2DE94B
:1096F000FC4791460C00804676D014F8011B39B126
:1097000025290ED04046FEF75BFE20780028F4D1D4
:1097100098F80C00002867D04046BDE8FC47FFF7EA
:10972000DABF0020012221782B291BD02D2902D05D
:10973000302908D102E040F0010001E040F00200D1
:10974000641C002AEFD100252A290ED02178A1F12E
:1097500030020A2A11D205EB850201EB4205641C96
:10976000303DF1E740F00400EAE7D9F800100B1DA6
:10977000C9F800300968641C0D44217800232E29A3
:109780000BD114F8011FA1F130020A2A05D203EB14
:10979000830201EB4203303BF3E76C290DD06829CB
:1097A0000BD0692921D00BDC252918D0582931D0BC
:1097B00063290ED0642915D117E014F8011FECE7D6
:1097C000702969D0732932D075291BD0782909D125
:1097D00020E0D9F80000011DC9F8001001784046CA
:1097E000FEF7EEFD641C90E76CE0D9F800100A1D4E
:1097F000C9F800200968CDE900500A224046FFF769
:10980000F3F8EFE7D9F800100A1DC9F8002009683D
:109810000A2206E0D9F800100A1DC9F800200968DC
:109820001022CDE90050404602F082FBDAE7D9F879
:10983000001000270A1DC9F800200E68C00705D1D6
:1098400012E04046761C7F1CFEF7BAFD31780029F5
:10985000F7D104E0202140466D1EFEF7B1FDBD4268
:10986000C0D9002DF6D1BDE74EB13046FCF722FE3F
:10987000074604E0202140466D1EFEF7A1FDBD42D3
:1098800006D9002DF6D103E04046761CFEF798FD80
:1098900031780029F8D1A5E7D9F80000011DC9F8F1
:1098A0000010056830214046FEF78AFD78214046C9
:1098B000FEF786FD08200021CDE9000103461022B5
:1098C0002946B0E7BDE8FC872DE9F04128B10168E1
:1098D00019B1C969BDE8F04108470D4D0D48002494
:1098E000461B14270DE000BF04EB840005EB80004D
:1098F000016829B1C969884710B10120BDE8F0812C
:10990000641CB6FBF7F0A042EED80020F6E700009A
:109910000000000000000000044801214174007AAA
:1099200008B100207047012070470000D0330020AC
:10993000012801D0032808D10449002201284A74D3
:1099400000D00020087401F01DBD7047D033002006
:1099500070B50246022801D0032A45D1234C207A53
:10996000002841D0012833D0022831D120480023DB
:10997000022A006802D0032A2AD11BE0E3600179A1
:1099800011B1012924D10DE0D0E90565711B4FF417
:109990008056B14200D33146294481614569A942CC
:1099A0000ED015E00169491C0161426991420FD155
:1099B000237213E0E168491CE160082908D9E360DB
:1099C0002372022A0AD00D21FEF728FF01F0D0FCF5
:1099D000607C28B1BDE8704000F052BE0021F3E782
:1099E000BDE8704001F0CEBC70BD0000D033002057
:1099F000742B002070B541EA4201DDE904564FF0B6
:109A0000A04441EA830141EA052104EB800041EAD8
:109A10000641C0F8001770BD70B541EA4201DDE9AA
:109A200004564FF0A04441EA830141EA052104EBCA
:109A3000800041EA0641C0F8001770BD70B541EAE8
:109A40004201DDE904564FF0A04441EA830141EAB6
:109A5000052104EB800041EA0641C0F8001770BD03
:109A600070B541EA4201DDE904564FF0A04441EAF5
:109A7000830141EA052104EB800041EA0641C0F878
:109A8000001770BD1CB500220B46009211460192D2
:109A9000FFF7D4FF1CBD1CB500220B4600921146F7
:109AA0000192FFF7DDFF1CBD1CB5002100910B46A4
:109AB000012201911146FFF7C1FF1CBD1CB5002119
:109AC00000910B46012201911146FFF7C9FF1CBD11
:109AD0004FF0A04202EB8000D0F8002722F4403281
:109AE000C0F80027D0F8002742EA0141C0F800176B
:109AF000704701224FF0A043824011B1C3F80825FE
:109B00007047C3F80C25704718B5084B6C460144E4
:109B10001B68009306E000BF54F82030D3F81035DE
:109B2000401C08C28142F7D818BD000034C20200B0
:109B3000034908B50844002101600068009008BD91
:109B40000060004002494058012800D000207047C2
:109B50000060004030B5124B01460020D3F810449D
:109B6000224609E0157A854205D1401C0A28F7DB18
:109B70004FF0FF3030BD5268002AF3D1421CF9D0BB
:109B80000872D3F810242AB152684A60D3F810241E
:109B9000516030BD0022C3F810144A6030BD00008F
:109BA000F03400207047FCF705BE704708B5034A43
:109BB00000924023024A00F005F808BD81B6020079
:109BC000F0330020F0B595B01C4615460F46084608
:109BD0001A9E00F0F7FA182109A8FCF760FC0E960F
:109BE000CDE909540023082203A9384600F0FFFA02
:109BF00005980690BDF81000ADF81C00BDF81200E5
:109C0000ADF81E0000208DF821000398082600F012
:109C10000300012802D0022818D032E0039833460E
:109C2000850AC0F3C2008DF8200003980FA9C0F385
:109C30008314A200384600F0DAFA09A8009006ABB7
:109C400022460FA9284600F019FA1AE00398840D5D
:109C5000C0F3C2008DF82000082C01D2254600E098
:109C6000082533462A460FA9384600F0C0FA2E448C
:109C7000641B09AB06AA29460FA800F051F9002C75
:109C8000EAD1384600F0A4FA15B0F0BD0A4A01291D
:109C900002EBC00007D0022907D0032907D004290E
:109CA00007D00020704702207047042070470079D9
:109CB0007047407970470000D4CC020010B5FFF720
:109CC00072FF04210348FFF745FF02490120487253
:109CD00010BD00008C2B00202DE9F04F8DB0FEF759
:109CE0007FFB18B100200DB0BDE8F08F7A4C4FF02B
:109CF000000BC4F818B4BFF34F8F60680290A568DA
:109D0000D846284004EB800008E021680298814290
:109D100001D86160E6E7284004EB80000C3002A91E
:109D2000FEF7F6FE0028F0D105AA029901EA050324
:109D300004EB8303491CDB6842F82030401C02918D
:109D40000228F2D3059800F00300022802D001286F
:109D50004ED0A9E005985022810D8946B2EB905F64
:109D600000D850210E4666F39F50059008315B489D
:109D700000F0DFF9070079D000F024FA434608220A
:109D800005A9384600F039FA029908F1080A294075
:109D9000681A8000001D864223D94F4D0C3530B122
:109DA000C2B204EB8101301A90460C3104E029461E
:109DB000F2B2002590462846C6B25346384600F017
:109DC0001CFA0AEB08032DB1324629464FEA070078
:109DD00000F013FA029909F1030001EB90000290E0
:109DE0003BE004EB81015346324638460C31EFE745
:109DF0000598C0F38310062800D30620059960F368
:109E00008911C1F38310801C05918100334800F053
:109E100090F9070048D000F0D5F94346082205A97B
:109E2000384600F0EAF908F1080800260FE0029829
:109E3000434600EA0501401C04EB81010290042224
:109E400038460C3100F0D9F908F10408761C059861
:109E5000C0F38310B042EAD847B1D4F81054D4F814
:109E6000180468B1384600F0B3F92FE01CE0687AB6
:109E7000012804D12A6828463946126890476D683F
:109E8000002DF4D1384600F0A3F98DF800B06846F3
:109E9000FDF736F9D4F8180408B9029860609DF807
:109EA0000000FDF751F911E0D4F8104404E02168F6
:109EB0002046896888476468002CF8D10848022148
:109EC000008801EB004007A100F016F8FEF788FAC1
:109ED00080F0010007E70000F034002054CD0200BC
:109EE0001C2C00204261636B656E647320666C7588
:109EF000736865640000000000231A4601F090BCFE
:109F000008B5012300926A4601F08AFC08BD1CB521
:109F1000CDE9002302236A4601F082FC1CBD00004B
:109F20002DE9F0470E4680461C46924608293ED849
:109F300094F80C90002020731946104601F0C0F9E7
:109F40000025B54206D218F805201AA12046FFF7D1
:109F5000B5FB03E019A12046FFF7B0FB6D1C082DEF
:109F6000EFD317A12046FFF7A9FB0025B54210D279
:109F700018F80570FCF776FA0068C05D10F03E0F27
:109F800001D03A4600E02E220EA12046FFF796FBB4
:109F900003E00DA12046FFF791FB6D1C082DE5D3D2
:109FA00001222146504601F06DF984F80C90BDE87D
:109FB000F0870000202530327800000020202000AB
:109FC0007C0000002563000020000000104810B550
:109FD000FF218160002101604160C0F81814C0F8C1
:109FE000141480F820140B4800F0F0F800280DD16C
:109FF00009480A490A4B401AC108002003E000BF83
:10A0000023F82000401C8842FAD3002010BD000035
:10A01000F034002054CD020054CD0200D4CC020014
:10A02000EC2B002002480349401AC008704700008A
:10A0300054CD0200D4CC020013B56846FFF744F8B3
:10A0400008B100201CBD0248009950F831001CBD29
:10A05000D4CC020070B508480125D0F8104480F82F
:10A06000205405E065722168204649688847646885
:10A07000002CF7D170BD0000F03400202DE9FF471F
:10A0800081460C9D00200C462F7B2873984616466F
:10A090002946184601F014F9072E42D2DFE806F0EF
:10A0A00004090F161F2A360049462846FFF706FB0B
:10A0B00037E0494628462268FFF700FB31E0D4E943
:10A0C000002349462846FFF7F9FA2AE0A0680090E5
:10A0D000D4E9002349462846FFF7F0FA21E0D4E905
:10A0E0000201CDE90001D4E9002349462846FFF7E3
:10A0F000E5FA16E004F1080007C88DE80700D4E986
:10A10000002349462846FFF7D9FA0AE004F108007F
:10A110000FC88DE80F00D4E9002349462846FFF711
:10A12000CDFA00222946404601F0ACF82F73BDE875
:10A13000FF872DE9F041858A80462D1F4819C01CF4
:10A14000B0FBF5F0C6B24046FFF782F8041E19D006
:10A150000020207101206071E58000272546761ED1
:10A16000C4F800800BE04046FFF772F860B16179F7
:10A17000491C6171286005467F1CC0F80080B74209
:10A18000F1D32046BDE8F081204600F002F800201F
:10A19000F8E72DE9F041457901466B1E002201E008
:10A1A0000968521C9A42FBD30F680146002605E05D
:10A1B00038460C68FFF76EF82146761CAE42F7D39E
:10A1C000BDE8F0810121001DFFF720B8FFF77AB844
:10A1D00010B504460121001DFFF734F810F0FF0F01
:10A1E00004D12046BDE81040FFF7D3BF10BD38B5FD
:10A1F00001240094FEF72CFF38BD38B500240094EC
:10A20000FEF726FF38BD0000064910B50020487053
:10A21000091D0860BFF35F8F0349044800F05CFA32
:10A22000002010BD7C2B0020B0C20200E4330020CF
:10A2300008B500208DF800006846FCF761FFF1EEDC
:10A24000100A20F09F00E1EE100ABFF35F8F08496B
:10A250004020C1F880029DF80000FCF775FF00F077
:10A2600009FA08B141DF08BD20BF40BF20BF08BDCB
:10A2700004E000E0FCF7EABD20B103490968016091
:10A28000002070470E20704790C402002DE9FE4365
:10A2900006460D460846FFF7EFFF00287ED18046B0
:10A2A000CDF80080CDF80480012406208DF80060F0
:10A2B000ADF80400CDF808808DF8024069462020F2
:10A2C0002A6869DF3F4F40B100F04AFA02463888F9
:10A2D0003D4904EB0040FFF713FECDF800808DF8F8
:10A2E00001408DF80280CDF80480CDF808808DF80B
:10A2F0000380694640202A6869DF40B100F030FAE7
:10A3000002463888314904EB0040FFF7F9FDCDF8EB
:10A3100000808DF80060F720ADF80200CDF80480D1
:10A32000CDF80880694623202A6869DF40B100F033
:10A3300017FA02463888264904EB0040FFF7E0FD93
:10A34000CDF80080CDF80480CDF808808DF800406D
:10A350004646694601202A6869DF40B100F000FAEC
:10A36000024638881B4904EB0040FFF7C9FD4FF453
:10A37000B0600090019602966946A1202A6869DFC4
:10A3800040B100F0EDF902463888134904EB004073
:10A39000FFF7B6FD00960196029600E010E08DF8FA
:10A3A00000606946A0202A6869DF40B100F0D8F952
:10A3B00002463888094904EB0040FFF7A1FD002060
:10A3C000BDE8FE83242C002030CB020078CB0200B5
:10A3D000C4CB020090CA0200DCCA02003CCA0200E0
:10A3E0002DE9F0410446D0F8008060DF2168194D66
:10A3F000074641451CD92888022606EB004016A1D5
:10A40000FFF77AFD2888424606EB00401EA123682C
:10A41000FFF77DFDF006D0F80C012168800200F105
:10A420000050421A288825A106EB0040FFF768FD7E
:10A43000012467B1384600F093F9024628882AA122
:10A4400004EB0040FFF75CFD3846BDE8F0812E4884
:10A450000470F9E7242C0020496E73756666696301
:10A4600069656E742052414D20616C6C6F6361743C
:10A47000656420666F722074686520536F6674444B
:10A4800065766963652E00004368616E67652074B8
:10A4900068652052414D207374617274206C6F6343
:10A4A0006174696F6E2066726F6D20307825782038
:10A4B000746F20307825782E000000004D61786997
:10A4C0006D756D2052414D2073697A6520666F72FB
:10A4D000206170706C69636174696F6E20697320AC
:10A4E000307825782E00000073645F626C655F65CC
:10A4F0006E61626C6528292072657475726E656480
:10A500002025732E00000000EB2B002030B51548ED
:10A51000ADF5017D0078002821D04FF4FA7500BF19
:10A52000ADF8005280A9684661DF38B1052816D021
:10A530000DF5017DBDE83040FCF788BC6C460A494A
:10A540007DA800F0C9F806E0D0E900212046904738
:10A550007DA800F0D8F87F980028E1D0F4E70DF549
:10A56000017D30BDEB2B002094C40200F8B5134CE4
:10A570002078C0B10120A07001F04CF8112814D04F
:10A58000022001F05FF800258DF800506846FCF7C6
:10A59000B7FD11DF064625709DF80000FCF7D4FDDD
:10A5A0002EB13046F8BD0820F8BD0020F8BDA570DA
:10A5B00001F0F2F8032001F045F8F6E7E82B00205F
:10A5C0007CB5204C207808B108207CBD0120A0700B
:10A5D000002001F01FF8112819D0002001F032F8F6
:10A5E00019480026006801908DF800606846FCF765
:10A5F00087FD164901A810DF05000AD00020207051
:10A600009DF80000FCF7A0FD2DB128467CBD002080
:10A610007CBD0120F3E7A67066700721162000F0CC
:10A62000B0FF08B1FCF712FC0721152000F0A9FFCC
:10A6300008B1FCF70BFC01F0CBF8012001F002F8A7
:10A64000E5E70000E82B002028C40200D16D0200DD
:10A650000EB50749684600F03FF805E0D0E9001064
:10A660008847684600F04FF802980028F6D10EBDE2
:10A6700044C402000148007870470000E82B002025
:10A680000548817819B1007818B1FFF76FBF08202D
:10A690007047FFF795BF0000E82B00201FB5684604
:10A6A0004BDF30B1052814D004B0BDE81040FCF7F2
:10A6B000CDBB084901A800F00FF806E0D0E9002161
:10A6C0000098904701A800F01EF803980028E6D0F3
:10A6D000F4E71FBDB0C40200016009684160AFF338
:10A6E000008010B5D0E900215368994201D10021C2
:10A6F00004E0D1E90034A34202D01946816010BDC4
:10A7000008314160F0E7816800290BD00268926847
:10A710000A44826041684B689A4203D10831416023
:10A72000FFF7DFBF704700000C4A10B502F59473C5
:10A730000EE0991AC91001EBD171491002EBC10169
:10A740000C68844201D90B4602E005D201F10802EF
:10A750009A42EED3002010BD486810BDD0C202005E
:10A7600000B5FFF7E1FF002800D1014800BD00005F
:10A77000BCC202004058002800D00120704708B534
:10A78000002242504058009008BDD0F80403084011
:10A7900000D0012070474058002800D001207047A9
:10A7A00008B5002242504058009008BD0848006893
:10A7B000012110F0010F08D14FF0E020E02280F8D5
:10A7C0000024C0F88012C0F80011024801607047F0
:10A7D00000E100E0180500400649024600200B7920
:10A7E0000BB1852070470A6001220A7100224A716C
:10A7F00070470000FC2A002004490120086004483A
:10A800000168C1F300410029FAD170470C000040F3
:10A8100018040040002802D0014980010847704711
:10A8200051C202002DE9F0418846054600F012FDB4
:10A83000234E002828461AD0FDF712FE304490F827
:10A8400048008009032802D001280ED007E04FF00D
:10A85000A040D0F81005E84010F0010F05D003210A
:10A860002846BDE8F041FFF733B90221F8E700F0D0
:10A87000FDFC002822D02846FDF7F2FD04464FF4E7
:10A88000807000EB84000F4F81B207EB8400D0F89A
:10A89000102542F00102C0F810250846FFF748F9DC
:10A8A000B8F1000F0AD02846FDF7DAFD56F820006F
:10A8B000002803D00120A040C7F80403BDE8F081C0
:10A8C00040310020006000402DE9FC41DFF8BC80F1
:10A8D000044608EB0400002790F930001346C01727
:10A8E0000E46401C01D008274CE0B0781946C0F352
:10A8F00040022046FDF790FD0546401C41D0B0784F
:10A90000410719D4C0070AD04FF0A04000EB8401E2
:10A91000D1F8000720F00200C1F8000707E000218D
:10A920007378204600910A460191FFF775F81749A0
:10A9300020465431FEF7E6FCB078800718D514485D
:10A94000317800EB8500D0F81025124B1A40C0F882
:10A9500010254FF4F8524FF4403302EA042203EA80
:10A9600001410A43D0F810150A43C0F8102509E048
:10A9700008EB0500327810F8481F41EA8211017097
:10A9800000E004273846BDE8FC810000403100208B
:10A9900000600040FFE0FCFF4FF0A041D1F810152F
:10A9A000C14011F0010000D00120704770B5184D72
:10A9B00095F8580008B1082070BD0020411E2A18E3
:10A9C000401CC0B282F830102028F8D30024204662
:10A9D000FDF714FD641CE4B20C2CF8D300240D49DF
:10A9E000E0206C6581F8000401264020891FC1F831
:10A9F0008002C1F800014FF4BE70FFF799F80649D4
:10AA0000F007C1F8040385F85860204670BD0000C7
:10AA10004031002006E000E000600040034890F86C
:10AA20005800002800D0012070470000403100206D
:10AA30000121B1EB507F01D1012070470020704708
:10AA400038B50D4600F088FC040014D000208DF8C5
:10AA500000006846FCF754FB207928B19DF80000FF
:10AA6000FCF772FB112038BD0120256020719DF894
:10AA70000000FCF769FB002038BD000001490248D6
:10AA800001F02AB99C310020002000402DE9F0415E
:10AA90000546007916460F4600EB40012D4A01EBB2
:10AAA000C00102EB810494F82A1011B10820BDE81E
:10AAB000F081294951F820102868FFF7C1FF08B13B
:10AAC0001120F4E739462846FCF758FB66603869E0
:10AAD000206030004FF001062FD03F7F4FF48E7181
:10AAE0002868FFF74CFE4FF4A2712868FFF747FE75
:10AAF00028681A49C0F8041328684FEA4711000B68
:10AB000040B2002806DA00F00F0000F1E02080F8E3
:10AB1000141D03E000F1E02080F800142868000B09
:10AB200040B200F01F0206FA02F14009800000F175
:10AB3000E020C0F88012C0F8001128680421C0F895
:10AB400000150020A061E06184F8290044F8140F8A
:10AB5000A675ACE79C31002038C2020080000200DC
:10AB60002DE9F05F054600794FF4017600EB4003D4
:10AB700003EBC000344B03EB80040020636813B187
:10AB80002B68C3F80863A3694FF000096BB1E06953
:10AB900038B1606810B12868C0F804631120BDE8BE
:10ABA000F09FE2610120216105E0C4F82490A261D8
:10ABB000E160C4F81C9094F82910014302D12846A2
:10ABC00000F0CFFC60680028286803D0C0F8046358
:10ABD0000020E4E74FF4A2763146FFF7D0FDB246FD
:10ABE0004FF4927B59462868FFF7C4FD06464FF4A0
:10ABF00084712868FFF7BEFD804651462868FFF73C
:10AC0000B9FD074648EA07003043EBD056EA070093
:10AC100007D12146286800F023FCA169606A8142BF
:10AC2000E0D8C4F818900EB10320B8E70FB10F2098
:10AC3000B5E794F8291001200029296801D008609F
:10AC4000C6E74860C4E700009C3100202DE9F047CA
:10AC5000054600790B4600EB400101EBC00023499B
:10AC600001EB8004284600F043F810B11120BDE844
:10AC7000F0874FF00008C4F82080A360626184F878
:10AC800028804FF48E76474631462868FFF777FDD7
:10AC900028684FF00109C0F808902146286800F0A4
:10ACA000F1FE606800BBD5F800A00EE094F8280023
:10ACB00008B10F2716E031465046FFF75BFD00282C
:10ACC000F4D02146504600F0DDFE216A60698142E1
:10ACD000F1D331462868FFF74DFD0028F9D02868E8
:10ACE000C0F80C90C4F814803846C0E79C310020AE
:10ACF000007900EB400101EBC000044901EB80004A
:10AD00004069002800D00120704700009C310020DD
:10AD10000149024801F08CB8C831002000200040F1
:10AD20002DE9F0410546164600790F46154A00EB1D
:10AD3000C00102EB810494F8201011B10820BDE895
:10AD4000F081114951F820102868FFF779FE08B109
:10AD50001120F4E739462846FCF754FA6660386952
:10AD600020601EB1397F2846FDF792FE2868082131
:10AD7000C0F800150020A061E0610121606184F845
:10AD80002010DCE7C83100203CC202002DE9F05F52
:10AD9000044600790E4600EBC001DFF8F0A017462C
:10ADA0000AEB81053046FFF743FEB0B168684FF00B
:10ADB00000084FF4047910B12168C1F80893A8691C
:10ADC0004FF0000B80B1E86948B1686810B12068A5
:10ADD000C0F804931120BDE8F09F1020FBE7EF615D
:10ADE0004FF001082E6102E0EE60C5E9067B002508
:10ADF0004FF488712068FFF7D3FC4FF4A2712068EC
:10AE0000FFF7CEFC2068C0F83465C0F838752068BC
:10AE1000B8F1000F12D0D0F8001241F02001C0F8B4
:10AE200000122079D04600EBC0010AEB8100406897
:10AE300038B12068C0F804932846CCE701210160AE
:10AE4000EFE74FF4887A4FF4A27951462068FFF774
:10AE5000A2FC074649462068FFF79DFC06464FF4D2
:10AE600092712068FFF797FC014647EA0600084305
:10AE7000EBD0227902EBC20308EB8302C2F818B0D0
:10AE800001B10325002ED7D00F25D5E7C83100200A
:10AE90002DE9F04704460E460079204900EBC0003A
:10AEA00001EB800517463046FFF7C2FD30B1204662
:10AEB00000F036F820B11120BDE8F0871020FBE744
:10AEC0006F61AE604FF49076002731462068FFF73F
:10AED00067FC4FF4AC7841462068FFF761FC2068BE
:10AEE000AA686969C0F84425C0F84815206801219E
:10AEF0008160686878B9B14649462068FFF74BFC25
:10AF0000064641462068FFF746FC0643F4D000B1F0
:10AF10000F27002068613846CEE70000C8310020C6
:10AF20000079054900EBC00001EB80004069002872
:10AF300000D0012070470000C83100202DE9F04109
:10AF400005460078002826D10026144F4FF001084E
:10AF500012E02869805DFCF7A9F804000BD0112CE1
:10AF6000F7D03988224608EB01400DA1FEF7C8FF53
:10AF70002046FBF76BFF761CA88AB042E9D8A98A65
:10AF80002869084410F8010C0D2804D10A20FCF7A8
:10AF90008DF81128FAD0BDE8F08100001C2C0020AB
:10AFA0004661696C656420726563656976696E6780
:10AFB000204E5553206D6573736167652E20457271
:10AFC000726F7220307825782E20000010B550B1B5
:10AFD00003280CD10220FDF775F8002807D0BDE842
:10AFE0001040FBF733BFBDE8104000F0B5BB10BD0B
:10AFF0000078002807D104483B21408876DF0028EC
:10B0000001D0FBF723BF7047A42A0020F0B58BB016
:10B01000002601960D4604468988406901AAFCF77E
:10B0200035F90AA8CDE908600227ADF82070ADF81F
:10B030002260218AA88808AAADDF002819D1A0695A
:10B04000002816D00998FCF7E7FE002811D0019ED1
:10B050000EB101203070182102A8FBF720FA8DF8FC
:10B0600008700394A888ADF810000596A16902A89D
:10B0700088470BB0F0BD000070B58D88027900EBF9
:10B08000C5042273C97BA41D012902D0022904D161
:10B0900001E0008800E040882080218860888142AB
:10B0A0000FD92846A5DF0126A0B1112814D0FFF73B
:10B0B00057FB02460A480BA1008806EB0040FEF74A
:10B0C0001FFFA179E079814208D92846BDE8704088
:10B0D000FDF7D0BA6671F4E72671F2E770BD0000A3
:10B0E000EC2B002073645F626C655F67617474634E
:10B0F0005F65786368616E67655F6D74755F7265C3
:10B10000717565737428292072657475726E656433
:10B110002025732E000000007CB506468D88C88867
:10B1200006EBC504A41D172800D2172021888142F0
:10B1300000D8084660800020207121882846B5DFAD
:10B1400050B1FFF70DFB02460E480121008801EBCC
:10B1500000400DA1FEF7D4FE6079002810D13069BF
:10B1600000280DD01449D1E90201CDE90001ADF864
:10B1700002506088ADF80400326969463046904755
:10B180007CBD0000EC2B002073645F626C655F6720
:10B19000617474735F65786368616E67655F6D7411
:10B1A000755F7265706C7928292072657475726E8E
:10B1B00065642025732E00000CC20200F0B587B034
:10B1C0000C4605468E1D8988406906AAFCF75EF884
:10B1D00018216846FBF763F90195A088069AADF837
:10B1E0000800039231882B89002704F1120099424C
:10B1F00002D17389022B0DD0AA8991421ED1A9696F
:10B2000000291BD08DF8007004907089ADF81400EF
:10B21000A96911E0002A11D0FCF7FEFD20B10699C2
:10B2200001200870022002E00698077003208DF8C4
:10B230000000A969002901D06846884707B0F0BD21
:10B240000068012803D0022801D0002070470120A7
:10B25000704700000449084490F93000082801DBD9
:10B260000120704700207047403100200449084405
:10B2700090F93000082801D2012070470020704763
:10B280004031002010B50C46017A052908D0407ADB
:10B2900038B1084808A102682046FEF70FFA00E01E
:10B2A0001AB106A12046FEF709FA2046BDE8104073
:10B2B000FEF711BAC42B0020257300000D0A000010
:10B2C00038B5C3880D46044633B114A0009015A2CA
:10B2D00016A12846FEF7F2F9217A05291CD0607ADA
:10B2E00048B1A088FEF7D2FC164951F8202016A1DB
:10B2F0002846FEF7E3F9A0880021FEF79DFE0346ED
:10B300001049207A143951F8202001B02846BDE8B0
:10B3100030400EA1FEF7D2B938BD00001B5B306D86
:10B32000000000001B5B313B33316D0025734C6F17
:10B3300067732064726F7070656420282564292506
:10B34000730D0A00C42B0020257300003C25733EBA
:10B350002025733A200000000349884201D10348A8
:10B36000704700207047000000200040042B0020A0
:10B37000034802490068FDF70DBF0000782B00204C
:10B3800088C202002DE9F041234C0025234E207A8B
:10B39000012730B92248311D0068FDF706FF3060F3
:10B3A00038B1022020723168087928B101281ED1F5
:10B3B00016E06560BDE8F081D1E90503C01A4FF4DD
:10B3C0008052904200D31046B7EB900F01D2820812
:10B3D00000E001220869C9681844194429DF03E024
:10B3E000D1E90301084428DF58B1112812D0032104
:10B3F0003068FDF713FA25726560BDE8F041FFF78C
:10B40000B7BF207C0028D5D1BDE8F0410021022043
:10B41000FEF79EBA2772CDE7D0330020742B0020B0
:10B4200088C2020070B5012670044FF0E0210025AB
:10B43000C1F88001084C4010C4F84803C4F8080360
:10B4400066602F20FFF7E6F9A660044C2F20A56068
:10B45000FFF7E0F9A57070BD00100140302B00200F
:10B4600070B5054688690C4600284FF4847128465B
:10B470000AD0FFF784F9D5F81805626AE1688854A4
:10B48000606A401C606270BDFFF779F9D5F8180555
:10B4900070BD30B58FB005461C216846FAF7FFFF36
:10B4A00000249DF80000019440F00C008DF800008D
:10B4B000039404940594069428788DF836000220AD
:10B4C000ADF834000C949DF83000142120F00F00EA
:10B4D000401C20F0F00010308DF830009DF8310055
:10B4E00020F00F00401C20F0F00010308DF83100EB
:10B4F0009DF8320020F00600801C20F0180040F07B
:10B5000001008DF8320007A8FAF7C9FF0DA80790CF
:10B510000CA808900120ADF82400F420ADF82640D6
:10B52000ADF82800688805F10C0307AA6946AADF70
:10B530000FB030BD1FB501238DF80030CDE90121DA
:10B54000D0E90012684690471FBD1FB501238DF852
:10B5500000308DF808100192D0E90012684690473B
:10B560001FBD10B5044600684FF49271FFF707F94C
:10B570004FF484712068FFF702F92068012101600F
:10B5800010BD70B50D460446FBF780FB70B1284630
:10B59000FBF78EFB68B16807000E002C0CDA04F094
:10B5A0000F0101F1E02181F8140D09E042F20100E0
:10B5B00070BD42F2020070BD04F1E02484F8000482
:10B5C000002070BD38B50021012548B101280CD0FC
:10B5D000032809D1FFF7EAF8BDE83840FEF702B8C2
:10B5E0004FF0E020C0F8805138BD8DF8001068465B
:10B5F000FBF786FD064C207808B9FDF7D7FFE06819
:10B60000401CE060A5709DF80000FBF79DFD38BD73
:10B610002C3100203EB5044609496846FFF75CF826
:10B6200008E000BFD0E900212046904730B16846CD
:10B63000FFF769F802980028F4D13EBD11203EBD05
:10B640002CC402003EB5044608496846FFF744F89A
:10B6500007E000BFD0E90021204690476846FFF789
:10B6600052F802980028F5D13EBD000038C402000F
:10B6700002498969002900D00847704798300020A6
:10B680002DE9F0411400884618D000250E4F0326FE
:10B6900008EB050122460020FBF78EF80544241A2A
:10B6A00040B93878002809D008494FF47A408847D3
:10B6B000761E05D001203870002CE9D1BDE8F0815C
:10B6C00000203870FAE70000882B002011C4020027
:10B6D0002DE9F0410746806A14468846C8B3002524
:10B6E00031E000BFB96A05EB450001EB8006B08888
:10B6F000801CFE2802D90C20BDE8F0812288401C65
:10B7000008F8020020881622401C80B2208008F829
:10B7100000202088401C80B2208000EB0801308887
:10B7200000F000FC2188084480B22080B28842B139
:10B73000B16871B14044FAF799FE2088B188084495
:10B7400020806D1CEDB297F82C00A842CAD80020CA
:10B75000D2E7FFE70720CFE710B50020FCF7B2FCE7
:10B7600008B1FBF773FBFCF707FC08B1FBF76EFBB6
:10B7700033DF002803D0BDE81040FBF767BB10BDE6
:10B78000002805D10349012048700020FCF770BE55
:10B79000704700002C31002010B51620FBF776FA18
:10B7A00048B10A4882684FF4800152B1016821F41F
:10B7B0008001016010BDBDE8104042F20100FBF7BE
:10B7C00045BB4FF0E020C0F8801110BD3833002099
:10B7D00010B51620FBF75AFA80B10F4890F8000414
:10B7E0004009FBF765FA60B10C4882684FF48001AC
:10B7F0006AB1016841F48001016010BD42F20100AC
:10B8000001E042F20200BDE81040FBF71FBB4FF021
:10B81000E020C0F8001110BD16E000E03833002031
:10B820002DE9F84F204D924689460646984601225A
:10B8300069461846AF68FCF77BFD58B300980021B5
:10B840000446801C09E000BF00EA07035AF82120E3
:10B8500005EB8303401C491CDA604145F4D34FEAF1
:10B86000164AFCF7B1FF4AEA0041601C384005EB7C
:10B8700080003C4005EB8402C160D06866F3C500DF
:10B8800068F3891069F39F2020F00300401C20F02A
:10B890000400D06095F8200402E000BFFEF71CFA17
:10B8A0000028FBD1BDE8F88FF03400202DE9F84FD7
:10B8B0001D4C00256846D4E901A6FCF78FFF002740
:10B8C00038B30023009A61681CE0D1F800C0084634
:10B8D000944503D9ACEB02020A6015E0A2EB0C021E
:10B8E00063440760D0F80CC0C1698146BCF1000F09
:10B8F00008D006EB030828F07F48C0E9018CC9F89E
:10B900001C5005460029E0D128466160FDF776F914
:10B9100003E02846FDF772F910B15046FCF7CAFD66
:10B92000E770BDE8F88F0000302B00200D4B10B5FC
:10B93000596831B102680C68A24204D8A21A0A60A0
:10B94000C161586010BD0B4603E00B46C969121B6C
:10B9500021B10C689442F8D3A41A0C600260C16152
:10B96000D86110BD302B00202DE9F041144E7768CE
:10B970003D462C4603E0844204D02546E469002C71
:10B98000F9D11BE0D4B1A5420BD1F869706040B980
:10B990000C49012088600021B160F0702F20FEF773
:10B9A00039FF2168E069E86110B102681144016063
:10B9B0007068874202D00120BDE8F0810020FBE7DB
:10B9C000302B0020001001407CB5064600240D46B7
:10B9D0008DF800406846FBF793FB01A800F054FB8C
:10B9E00070B10570094946609DF8040048709DF8E3
:10B9F0000000FBF7A9FB1420FAF782FE20467CBD6D
:10BA000004249DF80000FBF79FFBF7E70C320020B1
:10BA10002DE9F041194D6C68002C2CD018480027F6
:10BA20000068A968B846401A20F07F462068B042F6
:10BA30000CD82146361A0744E469087C20B181F805
:10BA40001080886949698847002CEFD12978687887
:10BA5000814206D1401CC0B26870022801D185F82D
:10BA60000180064869780C3040F82170BDE8F0414B
:10BA70001420FAF745BEBDE8F0810000302B00200D
:10BA80000415014070B50C4605464FF48E71FEF763
:10BA900076FE216AA068415C206A401C2062C5F8DD
:10BAA0001C1570BD30B58FB00024054607949DF875
:10BAB0001C001C2120F00F00401C20F0F000103072
:10BAC0008DF81C009DF81D0020F00F00401C20F098
:10BAD000F00010308DF81D009DF81E0020F00600CB
